{
  "address": "0xc2a33a404e1fd76eddbF841A9327CD0e1BB4353e",
  "abi": [
    {
      "inputs": [
        {
          "internalType": "uint256",
          "name": "_volatilityCap",
          "type": "uint256"
        },
        {
          "internalType": "uint256",
          "name": "_minOptionPricePercentage",
          "type": "uint256"
        }
      ],
      "stateMutability": "nonpayable",
      "type": "constructor"
    },
    {
      "anonymous": false,
      "inputs": [
        {
          "indexed": true,
          "internalType": "address",
          "name": "previousOwner",
          "type": "address"
        },
        {
          "indexed": true,
          "internalType": "address",
          "name": "newOwner",
          "type": "address"
        }
      ],
      "name": "OwnershipTransferred",
      "type": "event"
    },
    {
      "inputs": [
        {
          "internalType": "bool",
          "name": "isPut",
          "type": "bool"
        },
        {
          "internalType": "uint256",
          "name": "expiry",
          "type": "uint256"
        },
        {
          "internalType": "uint256",
          "name": "strike",
          "type": "uint256"
        },
        {
          "internalType": "uint256",
          "name": "lastPrice",
          "type": "uint256"
        },
        {
          "internalType": "uint256",
          "name": "volatility",
          "type": "uint256"
        }
      ],
      "name": "getOptionPrice",
      "outputs": [
        {
          "internalType": "uint256",
          "name": "",
          "type": "uint256"
        }
      ],
      "stateMutability": "view",
      "type": "function"
    },
    {
      "inputs": [],
      "name": "minOptionPricePercentage",
      "outputs": [
        {
          "internalType": "uint256",
          "name": "",
          "type": "uint256"
        }
      ],
      "stateMutability": "view",
      "type": "function"
    },
    {
      "inputs": [],
      "name": "owner",
      "outputs": [
        {
          "internalType": "address",
          "name": "",
          "type": "address"
        }
      ],
      "stateMutability": "view",
      "type": "function"
    },
    {
      "inputs": [],
      "name": "renounceOwnership",
      "outputs": [],
      "stateMutability": "nonpayable",
      "type": "function"
    },
    {
      "inputs": [
        {
          "internalType": "address",
          "name": "newOwner",
          "type": "address"
        }
      ],
      "name": "transferOwnership",
      "outputs": [],
      "stateMutability": "nonpayable",
      "type": "function"
    },
    {
      "inputs": [
        {
          "internalType": "uint256",
          "name": "_minOptionPricePercentage",
          "type": "uint256"
        }
      ],
      "name": "updateMinOptionPricePercentage",
      "outputs": [
        {
          "internalType": "bool",
          "name": "",
          "type": "bool"
        }
      ],
      "stateMutability": "nonpayable",
      "type": "function"
    },
    {
      "inputs": [
        {
          "internalType": "uint256",
          "name": "_volatilityCap",
          "type": "uint256"
        }
      ],
      "name": "updateVolatilityCap",
      "outputs": [
        {
          "internalType": "bool",
          "name": "",
          "type": "bool"
        }
      ],
      "stateMutability": "nonpayable",
      "type": "function"
    },
    {
      "inputs": [],
      "name": "volatilityCap",
      "outputs": [
        {
          "internalType": "uint256",
          "name": "",
          "type": "uint256"
        }
      ],
      "stateMutability": "view",
      "type": "function"
    }
  ],
  "transactionHash": "0xefdfbc40d765b02be4ecc747cf6eb6f633959c47c23764cb98fcac47a2eb8796",
  "args": [
    1000,
    1
  ],
  "numDeployments": 1,
  "solcInputHash": "76abe4e6d02d904aee51326ce50a63f1",
  "bytecode": "0x60806040523480156200001157600080fd5b5060405162002b6238038062002b6283398101604081905262000034916200009e565b6200003f336200004e565b600191909155600255620000c3565b600080546001600160a01b038381166001600160a01b0319831681178455604051919092169283917f8be0079c531659141344cd1fd0a4f28419497f9722a3daafe3b4186f6b6457e09190a35050565b60008060408385031215620000b257600080fd5b505080516020909101519092909150565b612a8f80620000d36000396000f3fe608060405234801561001057600080fd5b50600436106100885760003560e01c8063715018a61161005b578063715018a6146100e85780638da5cb5b146100f2578063ad1ad5dc1461010d578063f2fde38b1461012057600080fd5b806305e927df1461008d57806325b2a93b146100a9578063326611f8146100b25780635b7b6d88146100d5575b600080fd5b61009660015481565b6040519081526020015b60405180910390f35b61009660025481565b6100c56100c0366004612940565b610133565b60405190151581526020016100a0565b6100966100e3366004612959565b610146565b6100f06101d4565b005b6000546040516001600160a01b0390911681526020016100a0565b6100c561011b366004612940565b6101e8565b6100f061012e3660046129a2565b6101fb565b600061013d610279565b50600255600190565b60008061015e606461015888426102d3565b906102e8565b90506000610190662386f26fc1000061018a8a61017c57600061017f565b60015b888a8760008b6102f4565b9061043a565b905060006101b26402540be40061018a600254896102e890919063ffffffff16565b9050818111156101c65792506101cb915050565b509150505b95945050505050565b6101dc610279565b6101e66000610446565b565b60006101f2610279565b50600190815590565b610203610279565b6001600160a01b03811661026d5760405162461bcd60e51b815260206004820152602660248201527f4f776e61626c653a206e6577206f776e657220697320746865207a65726f206160448201526564647265737360d01b60648201526084015b60405180910390fd5b61027681610446565b50565b6000546001600160a01b031633146101e65760405162461bcd60e51b815260206004820181905260248201527f4f776e61626c653a2063616c6c6572206973206e6f7420746865206f776e65726044820152606401610264565b60006102df82846129e1565b90505b92915050565b60006102df82846129f4565b60008061030087610496565b9050600061030d87610496565b9050600061032c61031d88610496565b6103276064610496565b6104fd565b9050600061034761033c88610496565b610327612710610496565b9050600061035761031d88610496565b905060006103a961039c61037361036e89896104fd565b6107c4565b610391610396876103918861038c8a6103276002610496565b6107e7565b610a50565b886107e7565b6103278461038c88610e1a565b905060006103c3826103be8561038c89610e1a565b610ff3565b905060ff8e16610404576103f66103f16103e189858a898b88611005565b61038c662386f26fc10000610496565b61104a565b975050505050505050610430565b60001960ff8f1601610424576103f66103f16103e1888789868d896110ce565b60009750505050505050505b9695505050505050565b60006102df8284612a21565b600080546001600160a01b038381166001600160a01b0319831681178455604051919092169283917f8be0079c531659141344cd1fd0a4f28419497f9722a3daafe3b4186f6b6457e09190a35050565b6000816000036104a857506000919050565b8160006104b48261112d565b905060708110156104cd578060700382901b91506104e0565b60708111156104e0576070810382901c91505b613fff0160701b6001600160701b03919091161760801b92915050565b6000617fff60f084811c8216919084901c8116908290036105425780617fff03610531575061ffff60ef1b91506102e29050565b505050600160ff1b811682186102e2565b80617fff03610585576dffffffffffffffffffffffffffff60801b841615610574575061ffff60ef1b91506102e29050565b505050808218600160ff1b166102e2565b600160801b600160ff1b0384166000036105d557600160801b600160ff1b0385166000036105bd575061ffff60ef1b91506102e29050565b505050808218600160ff1b16617fff60f01b176102e2565b6001600160701b03608085901c1660008290036105f557600191506105fc565b600160701b175b6001600160701b03608087901c16600084900361063f57801561063a5760006106248261112d565b6001955060e20393840160711901939190911b90505b610649565b600160701b1760721b5b81818161065857610658612a0b565b0490508060000361068857600160ff1b8787181661067757600061067d565b600160ff1b5b9450505050506102e2565b6001606c1b81101561069c5761069c612a43565b6000600160731b8210156106db57600160721b8210156106d057600160711b8210156106c95760706106d3565b60716106d3565b60725b60ff166106e4565b6106e48261112d565b90508361407101818601111561070257617fff945060009150610795565b83818601613ffc01101561071d576000945060009150610795565b83818601613f8c01101561076a578385613ffc011115610748578385613ffc010382901b9150610761565b8385613ffc01101561076157613ffc8585030382901c91505b60009450610795565b607081111561077d576070810382901c91505b6001600160701b038216915083818601613f8d010394505b81607086901b888a186001607f1b60801b1660801c6001600160801b0316171760801b955050505050506102e2565b60006102e26107d2836111cb565b6f3ffe62e42fefa39ef35793c7673007e560801b5b6000617fff60f084811c8216919084901c8116908290036108865780617fff03610862576001600160801b03198085169086160361083057505050600160ff1b811682186102e2565b6001600160801b031985851816600160ff1b03610852575050508181176102e2565b5061ffff60ef1b91506102e29050565b600160801b600160ff1b038416600003610531575061ffff60ef1b91506102e29050565b80617fff036108c457600160801b600160ff1b0385166000036108b3575061ffff60ef1b91506102e29050565b505050600160ff1b821681186102e2565b6001600160701b03608086901c1660008390036108e457600192506108eb565b600160701b175b6001600160701b03608086901c16600083900361090b5760019250610912565b600160701b175b80820291508160000361093357600160ff1b8787181661067757600061067d565b928201926000600160e11b83101561096657600160e01b83101561095f5761095a8361112d565b610969565b60e0610969565b60e15b90506140708186011015610984576000945060009250610a21565b6140e081860110156109c7576140708510156109a957846140700383901c92506109be565b6140708511156109be57614070850383901b92505b60009450610a21565b61c0dd81860111156109e157617fff945060009250610a21565b60708111156109f8576070810383901c9250610a0b565b6070811015610a0b578060700383901b92505b6001600160701b03831692506140df8186010394505b82607086901b888a186001607f1b60801b1660801c6001600160801b0316171760801b955050505050506102e2565b6000617fff60f084811c8216919084901c811690829003610a9c5780617fff03610a92576001600160801b0319808516908616036108525784925050506102e2565b84925050506102e2565b80617fff03610aaf5783925050506102e2565b6001607f1b608086901c90811015906001600160701b03166000849003610ad95760019350610ae0565b600160701b175b6001607f1b608087901c90811015906001600160701b03166000859003610b0a5760019450610b11565b600160701b175b82600003610b44576001600160801b03198816600160ff1b14610b345787610b37565b60005b96505050505050506102e2565b80600003610b67576001600160801b03198916600160ff1b14610b345788610b37565b84860382151585151503610c70576070811315610b8d57899750505050505050506102e2565b6000811315610b9f5790811c90610bce565b606f19811215610bb857889750505050505050506102e2565b6000811215610bce578060000384901c93508596505b92810192600160711b8410610be9576001968701969390931c925b86617fff03610c1a5784610c0257617fff60f01b610c0c565b6001600160f01b03195b9750505050505050506102e2565b600160701b841015610c2f5760009650610c3c565b6001600160701b03841693505b83607088901b86610c4e576000610c54565b6001607f1b5b6001600160801b0316171760801b9750505050505050506102e2565b6000811315610c8b57600184901b9350600187039650610ca2565b6000811215610ca257600182901b91506001860396505b6070811315610cb45760019150610d01565b6001811315610cd1576001810360018303901c6001019150610d01565b606f19811215610ce45760019350610d01565b600019811215610d01576001816000030360018503901c60010193505b818410610d12578184039350610d1b565b83820393508294505b83600003610d345750600096506102e295505050505050565b6000610d3f8561112d565b905080607103610d6457600185901c6001600160701b03169450600188019750610db3565b6070811015610da657607081900380891115610d93578086901b6001600160701b031695508089039850610da0565b600098600019019590951b945b50610db3565b6001600160701b03851694505b87617fff03610de55785610dcc57617fff60f01b610dd6565b6001600160f01b03195b985050505050505050506102e2565b84607089901b87610df7576000610dfd565b6001607f1b5b6001600160801b0316171760801b985050505050505050506102e2565b60006001607f1b608083901c1115610e38575061ffff60ef1b919050565b617fff60f083901c811690819003610e51575090919050565b6001600160701b03608084901c166000829003610e715760019150610e78565b600160701b175b80600003610e8a575060009392505050565b613fff8201600190811c9216158015610edc57600160701b8210610eb457607182901b9150610f17565b6000610ebf8361112d565b60e20360fe16606f19810160011c909403939290921b9150610f17565b600160701b8210610ef357607082901b9150610f17565b6000610efe8361112d565b60e10360fe16606f19810160011c909403939290921b91505b600160701b80830401600190811c90818481610f3557610f35612a0b565b048201901c90506001818481610f4d57610f4d612a0b565b048201901c90506001818481610f6557610f65612a0b565b048201901c90506001818481610f7d57610f7d612a0b565b048201901c90506001818481610f9557610f95612a0b565b048201901c90506001818481610fad57610fad612a0b565b048201901c90506000818481610fc557610fc5612a0b565b04905081811015610fd4578091505b816001600160701b0316607086901b1760801b95505050505050919050565b60006102df83600160ff1b8418610a50565b600061103f6110178861038c89611383565b6103be6110368861038c611031600160ff1b8b188a6107e7565b61141e565b61038c86611383565b979650505050505050565b6000617fff60f083901c16613fff8110156110685750600092915050565b6001607f1b608084901c1061107c57600080fd5b6140fe81111561108b57600080fd5b600160701b6001600160701b03608085901c161761406f8210156110b55761406f8290031c6110c7565b61406f8211156110c75761406e1982011b5b9392505050565b6000806110fa6110eb8961038c611031600160ff1b8c188b6107e7565b61038c600160ff1b8818611383565b905060006111118561038c600160ff1b8718611383565b9050600061111f8383610ff3565b9a9950505050505050505050565b600080821161113b57600080fd5b6000600160801b831061115057608092831c92015b600160401b831061116357604092831c92015b640100000000831061117757602092831c92015b62010000831061118957601092831c92015b610100831061119a57600892831c92015b601083106111aa57600492831c92015b600483106111ba57600292831c92015b600283106102e25760010192915050565b60006001607f1b608083901c11156111e9575061ffff60ef1b919050565b6001600160801b03198216613fff60f01b0361120757506000919050565b617fff60f083901c811690819003611220575090919050565b6001600160701b03608084901c1660008290036112405760019150611247565b600160701b175b8060000361126057506001600160f01b03199392505050565b600061406f81613fff85106112865750600f9290921b9160009150613ffe1984016112c5565b60019250600160701b84106112a85784613ffe039050600f84901b93506112c5565b60006112b38561112d565b607f8190039590951b9461406d039150505b836001607f1b036112fb5782156112da576001015b60006112e58261112d565b60700390508082901b9150808303925050611349565b60008361130957600061130c565b60015b60ff1690505b600160701b8210156113475793800260ff81901c607f81019190911c94600019939093019260019290921b9082180190611312565b505b806001600160701b0316607083901b8461136457600061136a565b6001607f1b5b6001600160801b0316171760801b979650505050505050565b60008061138f83611445565b12156113b1576102e26113a26001610496565b6103be600160ff1b8518611383565b60006113f36113c06001610496565b6103276113cd6001610496565b6103916103966113e366083ac553a55e00610496565b610327662386f26fc10000610496565b9050600061140182856114ec565b90506114166114106001610496565b82610ff3565b949350505050565b60006102e2611440836f1fffb8aa3b295c17f0bbbe87fed0691d60811b6107e7565b611503565b6000617fff60f083901c166140fe81111561145f57600080fd5b613fff8110156114725750600092915050565b600160701b6001600160701b03608085901c161761406f82101561149c5761406f8290031c6114ae565b61406f8211156114ae5761406e1982011b5b6001607f1b608085901c106114d857600160ff1b8111156114ce57600080fd5b6000039392505050565b6001600160ff1b038111156110c757600080fd5b60006102df6114fa83612858565b61038c856128a0565b60006001607f1b608083901c90811190617fff60f085901c8116916001600160701b0316908214801561153557508015155b15611549575061ffff60ef1b949350505050565b61400d82111561156e578261156357617fff60f01b6101cb565b600095945050505050565b613f7f8210156115875750613fff60f01b949350505050565b81600003611598576001915061159f565b600160701b175b613fef8211156115b557613fee1982011b6115c7565b613fef8210156115c757613fef8290031c5b8280156115d8575061203760811b81115b156115e857506000949350505050565b821580156116075750713fffffffffffffffffffffffffffffffffff81115b1561161b5750617fff60f01b949350505050565b6001600160801b0381169060801c83801561163557508115155b15611641579019906001015b6001607f1b828116156116655770016a09e667f3bcc908b2fb1366ea957d3e0260801c5b6001607e1b831615611688577001306fe0a31b7152de8d5a46305c85edec0260801c5b6001607d1b8316156116ab577001172b83c7d517adcdf7c8c50eb14a791f0260801c5b6001607c1b8316156116ce5770010b5586cf9890f6298b92b71842a983630260801c5b6001607b1b8316156116f1577001059b0d31585743ae7c548eb68ca417fd0260801c5b6001607a1b83161561171457700102c9a3e778060ee6f7caca4f7a29bde80260801c5b600160791b8316156117375770010163da9fb33356d84a66ae336dcdfa3f0260801c5b600160781b83161561175a57700100b1afa5abcbed6129ab13ec11dc95430260801c5b600160771b83161561177d5770010058c86da1c09ea1ff19d294cf2f679b0260801c5b600160761b8316156117a0577001002c605e2e8cec506d21bfc89a23a00f0260801c5b600160751b8316156117c357700100162f3904051fa128bca9c55c31e5df0260801c5b600160741b8316156117e6577001000b175effdc76ba38e31671ca9397250260801c5b600160731b83161561180957700100058ba01fb9f96d6cacd4b180917c3d0260801c5b600160721b83161561182c5770010002c5cc37da9491d0985c348c68e7b30260801c5b600160711b83161561184f577001000162e525ee054754457d59952920260260801c5b600160701b8316156118725770010000b17255775c040618bf4a4ade83fc0260801c5b6001606f1b831615611895577001000058b91b5bc9ae2eed81e9b7d4cfab0260801c5b6001606e1b8316156118b857700100002c5c89d5ec6ca4d7c8acc017b7c90260801c5b6001606d1b8316156118db5770010000162e43f4f831060e02d839a9d16d0260801c5b6001606c1b8316156118fe57700100000b1721bcfc99d9f890ea069117630260801c5b6001606b1b8316156119215770010000058b90cf1e6d97f9ca14dbcc16280260801c5b6001606a1b831615611944577001000002c5c863b73f016468f6bac5ca2b0260801c5b600160691b83161561196757700100000162e430e5a18f6119e3c02282a50260801c5b600160681b83161561198a577001000000b1721835514b86e6d96efd1bfe0260801c5b600160671b8316156119ad57700100000058b90c0b48c6be5df846c5b2ef0260801c5b600160661b8316156119d05770010000002c5c8601cc6b9e94213c72737a0260801c5b600160651b8316156119f3577001000000162e42fff037df38aa2b219f060260801c5b600160641b831615611a165770010000000b17217fba9c739aa5819f44f90260801c5b600160631b831615611a39577001000000058b90bfcdee5acd3c1cedc8230260801c5b600160621b831615611a5c57700100000002c5c85fe31f35a6a30da1be500260801c5b600160611b831615611a7f5770010000000162e42ff0999ce3541b9fffcf0260801c5b600160601b831615611aa257700100000000b17217f80f4ef5aadda455540260801c5b6001605f1b831615611ac55770010000000058b90bfbf8479bd5a81b51ad0260801c5b6001605e1b831615611ae8577001000000002c5c85fdf84bd62ae30a74cc0260801c5b6001605d1b831615611b0b57700100000000162e42fefb2fed257559bdaa0260801c5b6001605c1b831615611b2e577001000000000b17217f7d5a7716bba4a9ae0260801c5b6001605b1b831615611b5157700100000000058b90bfbe9ddbac5e109cce0260801c5b6001605a1b831615611b745770010000000002c5c85fdf4b15de6f17eb0d0260801c5b600160591b831615611b97577001000000000162e42fefa494f1478fde050260801c5b600160581b831615611bba5770010000000000b17217f7d20cf927c8e94c0260801c5b600160571b831615611bdd577001000000000058b90bfbe8f71cb4e4b33d0260801c5b600160561b831615611c0057700100000000002c5c85fdf477b662b269450260801c5b600160551b831615611c235770010000000000162e42fefa3ae53369388c0260801c5b600160541b831615611c4657700100000000000b17217f7d1d351a389d400260801c5b600160531b831615611c695770010000000000058b90bfbe8e8b2d3d4ede0260801c5b600160521b831615611c8c577001000000000002c5c85fdf4741bea6e77e0260801c5b600160511b831615611caf57700100000000000162e42fefa39fe95583c20260801c5b600160501b831615611cd2577001000000000000b17217f7d1cfb72b45e10260801c5b6980000000000000000000831615611cfb57700100000000000058b90bfbe8e7cc35c3f00260801c5b6940000000000000000000831615611d245770010000000000002c5c85fdf473e242ea380260801c5b6920000000000000000000831615611d4d577001000000000000162e42fefa39f02b772c0260801c5b6910000000000000000000831615611d765770010000000000000b17217f7d1cf7d83c1a0260801c5b6908000000000000000000831615611d9f577001000000000000058b90bfbe8e7bdcbe2e0260801c5b6904000000000000000000831615611dc857700100000000000002c5c85fdf473dea871f0260801c5b6902000000000000000000831615611df15770010000000000000162e42fefa39ef44d910260801c5b6901000000000000000000831615611e1a57700100000000000000b17217f7d1cf79e9490260801c5b68800000000000000000831615611e425770010000000000000058b90bfbe8e7bce5440260801c5b68400000000000000000831615611e6a577001000000000000002c5c85fdf473de6eca0260801c5b68200000000000000000831615611e9257700100000000000000162e42fefa39ef366f0260801c5b68100000000000000000831615611eba577001000000000000000b17217f7d1cf79afa0260801c5b68080000000000000000831615611ee257700100000000000000058b90bfbe8e7bcd6d0260801c5b68040000000000000000831615611f0a5770010000000000000002c5c85fdf473de6b20260801c5b68020000000000000000831615611f32577001000000000000000162e42fefa39ef3580260801c5b600160401b831615611f555770010000000000000000b17217f7d1cf79ab0260801c5b678000000000000000831615611f7c577001000000000000000058b90bfbe8e7bcd50260801c5b674000000000000000831615611fa357700100000000000000002c5c85fdf473de6a0260801c5b672000000000000000831615611fca5770010000000000000000162e42fefa39ef340260801c5b671000000000000000831615611ff157700100000000000000000b17217f7d1cf7990260801c5b6708000000000000008316156120185770010000000000000000058b90bfbe8e7bcc0260801c5b67040000000000000083161561203f577001000000000000000002c5c85fdf473de50260801c5b67020000000000000083161561206657700100000000000000000162e42fefa39ef20260801c5b67010000000000000083161561208d577001000000000000000000b17217f7d1cf780260801c5b66800000000000008316156120b357700100000000000000000058b90bfbe8e7bb0260801c5b66400000000000008316156120d95770010000000000000000002c5c85fdf473dd0260801c5b66200000000000008316156120ff577001000000000000000000162e42fefa39ee0260801c5b66100000000000008316156121255770010000000000000000000b17217f7d1cf60260801c5b660800000000000083161561214b577001000000000000000000058b90bfbe8e7a0260801c5b660400000000000083161561217157700100000000000000000002c5c85fdf473c0260801c5b66020000000000008316156121975770010000000000000000000162e42fefa39d0260801c5b66010000000000008316156121bd57700100000000000000000000b17217f7d1ce0260801c5b658000000000008316156121e25770010000000000000000000058b90bfbe8e60260801c5b65400000000000831615612207577001000000000000000000002c5c85fdf4720260801c5b6520000000000083161561222c57700100000000000000000000162e42fefa380260801c5b65100000000000831615612251577001000000000000000000000b17217f7d1b0260801c5b6508000000000083161561227657700100000000000000000000058b90bfbe8d0260801c5b6504000000000083161561229b5770010000000000000000000002c5c85fdf460260801c5b650200000000008316156122c0577001000000000000000000000162e42fefa20260801c5b650100000000008316156122e55770010000000000000000000000b17217f7d00260801c5b648000000000831615612309577001000000000000000000000058b90bfbe70260801c5b64400000000083161561232d57700100000000000000000000002c5c85fdf30260801c5b6420000000008316156123515770010000000000000000000000162e42fef90260801c5b64100000000083161561237557700100000000000000000000000b17217f7c0260801c5b6408000000008316156123995770010000000000000000000000058b90bfbd0260801c5b6404000000008316156123bd577001000000000000000000000002c5c85fde0260801c5b6402000000008316156123e157700100000000000000000000000162e42fee0260801c5b640100000000831615612405577001000000000000000000000000b17217f60260801c5b638000000083161561242857700100000000000000000000000058b90bfa0260801c5b634000000083161561244b5770010000000000000000000000002c5c85fc0260801c5b632000000083161561246e577001000000000000000000000000162e42fd0260801c5b63100000008316156124915770010000000000000000000000000b17217e0260801c5b63080000008316156124b4577001000000000000000000000000058b90be0260801c5b63040000008316156124d757700100000000000000000000000002c5c85e0260801c5b63020000008316156124fa5770010000000000000000000000000162e42e0260801c5b630100000083161561251d57700100000000000000000000000000b172160260801c5b6280000083161561253f5770010000000000000000000000000058b90a0260801c5b62400000831615612561577001000000000000000000000000002c5c840260801c5b6220000083161561258357700100000000000000000000000000162e410260801c5b621000008316156125a5577001000000000000000000000000000b17200260801c5b620800008316156125c757700100000000000000000000000000058b8f0260801c5b620400008316156125e95770010000000000000000000000000002c5c70260801c5b6202000083161561260b577001000000000000000000000000000162e30260801c5b6201000083161561262d5770010000000000000000000000000000b1710260801c5b61800083161561264e577001000000000000000000000000000058b80260801c5b61400083161561266f57700100000000000000000000000000002c5b0260801c5b6120008316156126905770010000000000000000000000000000162d0260801c5b6110008316156126b157700100000000000000000000000000000b160260801c5b6108008316156126d25770010000000000000000000000000000058a0260801c5b6104008316156126f3577001000000000000000000000000000002c40260801c5b610200831615612714577001000000000000000000000000000001610260801c5b610100831615612735577001000000000000000000000000000000b00260801c5b6080831615612755577001000000000000000000000000000000570260801c5b60408316156127755770010000000000000000000000000000002b0260801c5b6020831615612795577001000000000000000000000000000000150260801c5b60108316156127b55770010000000000000000000000000000000a0260801c5b60088316156127d5577001000000000000000000000000000000040260801c5b60048316156127f5577001000000000000000000000000000000010260801c5b8461281657600f81901c6001600160701b03169050613fff82019150612845565b613ffe821161283b57600f81901c6001600160701b0316905081613fff039150612845565b600091613fee19011c5b60709190911b1760801b95945050505050565b60006102e2612878611031600160ff1b851861038c866103276002610496565b61032761289b6128886002610496565b61038c6113e3666f9c9e651c4480610496565b610e1a565b60006102e26129046128bb6113e3660b58c2126f4900610496565b6103918561038c6128e16128d86113e3660caaedbfa8a700610496565b600160ff1b1890565b6103918961038c6128fb6113e3663f4a728c19ce80610496565b6103918d61290a565b836107e7565b60006102e28261038c6129296128d86113e36640b43a04233100610496565b6103918661038c6113e3662f42c683f17c80610496565b60006020828403121561295257600080fd5b5035919050565b600080600080600060a0868803121561297157600080fd5b8535801515811461298157600080fd5b97602087013597506040870135966060810135965060800135945092505050565b6000602082840312156129b457600080fd5b81356001600160a01b03811681146110c757600080fd5b634e487b7160e01b600052601160045260246000fd5b818103818111156102e2576102e26129cb565b80820281158282048414176102e2576102e26129cb565b634e487b7160e01b600052601260045260246000fd5b600082612a3e57634e487b7160e01b600052601260045260246000fd5b500490565b634e487b7160e01b600052600160045260246000fdfea26469706673582212202f4b517d86ed4855d9fcb3b65f162675580e09a7d215fd8a0d933ae2557192a664736f6c63430008110033",
  "devdoc": {
    "kind": "dev",
    "methods": {
      "getOptionPrice(bool,uint256,uint256,uint256,uint256)": {
        "params": {
          "expiry": "expiry timestamp",
          "isPut": "is put option",
          "lastPrice": "current price",
          "strike": "strike price",
          "volatility": "volatility"
        }
      },
      "owner()": {
        "details": "Returns the address of the current owner."
      },
      "renounceOwnership()": {
        "details": "Leaves the contract without owner. It will not be possible to call `onlyOwner` functions anymore. Can only be called by the current owner. NOTE: Renouncing ownership will leave the contract without an owner, thereby removing any functionality that is only available to the owner."
      },
      "transferOwnership(address)": {
        "details": "Transfers ownership of the contract to a new account (`newOwner`). Can only be called by the current owner."
      },
      "updateMinOptionPricePercentage(uint256)": {
        "params": {
          "_minOptionPricePercentage": "the new %"
        },
        "returns": {
          "_0": "whether % was updated"
        }
      },
      "updateVolatilityCap(uint256)": {
        "params": {
          "_volatilityCap": "the new volatility cap"
        },
        "returns": {
          "_0": "whether volatility cap was updated"
        }
      }
    },
    "version": 1
  },
  "userdoc": {
    "kind": "user",
    "methods": {
      "getOptionPrice(bool,uint256,uint256,uint256,uint256)": {
        "notice": "computes the option price (with liquidity multiplier)"
      },
      "updateMinOptionPricePercentage(uint256)": {
        "notice": "updates % of the price of asset which is the minimum option price possible"
      },
      "updateVolatilityCap(uint256)": {
        "notice": "updates volatility cap for an option pool"
      }
    },
    "version": 1
  },
  "storageLayout": {
    "storage": [
      {
        "astId": 53,
        "contract": "contracts/OptionPricing.sol:OptionPricing",
        "label": "_owner",
        "offset": 0,
        "slot": "0",
        "type": "t_address"
      },
      {
        "astId": 3275,
        "contract": "contracts/OptionPricing.sol:OptionPricing",
        "label": "volatilityCap",
        "offset": 0,
        "slot": "1",
        "type": "t_uint256"
      },
      {
        "astId": 3277,
        "contract": "contracts/OptionPricing.sol:OptionPricing",
        "label": "minOptionPricePercentage",
        "offset": 0,
        "slot": "2",
        "type": "t_uint256"
      }
    ],
    "types": {
      "t_address": {
        "encoding": "inplace",
        "label": "address",
        "numberOfBytes": "20"
      },
      "t_uint256": {
        "encoding": "inplace",
        "label": "uint256",
        "numberOfBytes": "32"
      }
    }
  }
}