{
  "address": "0xc2a33a404e1fd76eddbF841A9327CD0e1BB4353e",
  "abi": [
    {
      "inputs": [
        {
          "internalType": "uint256",
          "name": "_volatilityCap",
          "type": "uint256"
        },
        {
          "internalType": "uint256",
          "name": "_minOptionPricePercentage",
          "type": "uint256"
        }
      ],
      "stateMutability": "nonpayable",
      "type": "constructor"
    },
    {
      "anonymous": false,
      "inputs": [
        {
          "indexed": true,
          "internalType": "address",
          "name": "previousOwner",
          "type": "address"
        },
        {
          "indexed": true,
          "internalType": "address",
          "name": "newOwner",
          "type": "address"
        }
      ],
      "name": "OwnershipTransferred",
      "type": "event"
    },
    {
      "inputs": [
        {
          "internalType": "bool",
          "name": "isPut",
          "type": "bool"
        },
        {
          "internalType": "uint256",
          "name": "expiry",
          "type": "uint256"
        },
        {
          "internalType": "uint256",
          "name": "strike",
          "type": "uint256"
        },
        {
          "internalType": "uint256",
          "name": "lastPrice",
          "type": "uint256"
        },
        {
          "internalType": "uint256",
          "name": "volatility",
          "type": "uint256"
        }
      ],
      "name": "getOptionPrice",
      "outputs": [
        {
          "internalType": "uint256",
          "name": "",
          "type": "uint256"
        }
      ],
      "stateMutability": "view",
      "type": "function"
    },
    {
      "inputs": [],
      "name": "minOptionPricePercentage",
      "outputs": [
        {
          "internalType": "uint256",
          "name": "",
          "type": "uint256"
        }
      ],
      "stateMutability": "view",
      "type": "function"
    },
    {
      "inputs": [],
      "name": "owner",
      "outputs": [
        {
          "internalType": "address",
          "name": "",
          "type": "address"
        }
      ],
      "stateMutability": "view",
      "type": "function"
    },
    {
      "inputs": [],
      "name": "renounceOwnership",
      "outputs": [],
      "stateMutability": "nonpayable",
      "type": "function"
    },
    {
      "inputs": [
        {
          "internalType": "address",
          "name": "newOwner",
          "type": "address"
        }
      ],
      "name": "transferOwnership",
      "outputs": [],
      "stateMutability": "nonpayable",
      "type": "function"
    },
    {
      "inputs": [
        {
          "internalType": "uint256",
          "name": "_minOptionPricePercentage",
          "type": "uint256"
        }
      ],
      "name": "updateMinOptionPricePercentage",
      "outputs": [
        {
          "internalType": "bool",
          "name": "",
          "type": "bool"
        }
      ],
      "stateMutability": "nonpayable",
      "type": "function"
    },
    {
      "inputs": [
        {
          "internalType": "uint256",
          "name": "_volatilityCap",
          "type": "uint256"
        }
      ],
      "name": "updateVolatilityCap",
      "outputs": [
        {
          "internalType": "bool",
          "name": "",
          "type": "bool"
        }
      ],
      "stateMutability": "nonpayable",
      "type": "function"
    },
    {
      "inputs": [],
      "name": "volatilityCap",
      "outputs": [
        {
          "internalType": "uint256",
          "name": "",
          "type": "uint256"
        }
      ],
      "stateMutability": "view",
      "type": "function"
    }
  ],
  "transactionHash": "0xd999ca41202cbb2b58d4dbe32c92b848e0496952f98b97b09466cbb3d95042f9",
  "args": [
    1000,
    1
  ],
  "numDeployments": 1,
  "solcInputHash": "1f16e7aca2f18cde589b96b70fa1d28c",
  "bytecode": "0x60806040523480156200001157600080fd5b5060405162002b6838038062002b6883398101604081905262000034916200009e565b6200003f336200004e565b600191909155600255620000c3565b600080546001600160a01b038381166001600160a01b0319831681178455604051919092169283917f8be0079c531659141344cd1fd0a4f28419497f9722a3daafe3b4186f6b6457e09190a35050565b60008060408385031215620000b257600080fd5b505080516020909101519092909150565b612a9580620000d36000396000f3fe608060405234801561001057600080fd5b50600436106100885760003560e01c8063715018a61161005b578063715018a6146100e85780638da5cb5b146100f2578063ad1ad5dc1461010d578063f2fde38b1461012057600080fd5b806305e927df1461008d57806325b2a93b146100a9578063326611f8146100b25780635b7b6d88146100d5575b600080fd5b61009660015481565b6040519081526020015b60405180910390f35b61009660025481565b6100c56100c0366004612946565b610133565b60405190151581526020016100a0565b6100966100e336600461295f565b610146565b6100f06101cf565b005b6000546040516001600160a01b0390911681526020016100a0565b6100c561011b366004612946565b6101e3565b6100f061012e3660046129a8565b6101f6565b600061013d610274565b50600255600190565b60008061015f61036061015988426102ce565b906102e3565b9050600061018b662386f26fc100006101598a61017d576000610180565b60015b888a8760008b6102ef565b905060006101ad6402540be4006101596002548961044090919063ffffffff16565b9050818111156101c15792506101c6915050565b509150505b95945050505050565b6101d7610274565b6101e1600061044c565b565b60006101ed610274565b50600190815590565b6101fe610274565b6001600160a01b0381166102685760405162461bcd60e51b815260206004820152602660248201527f4f776e61626c653a206e6577206f776e657220697320746865207a65726f206160448201526564647265737360d01b60648201526084015b60405180910390fd5b6102718161044c565b50565b6000546001600160a01b031633146101e15760405162461bcd60e51b815260206004820181905260248201527f4f776e61626c653a2063616c6c6572206973206e6f7420746865206f776e6572604482015260640161025f565b60006102da82846129e7565b90505b92915050565b60006102da8284612a10565b6000806102fb8761049c565b905060006103088761049c565b905060006103286103188861049c565b610323618e9461049c565b610503565b905060006103436103388861049c565b61032361271061049c565b9050600061035d6103538861049c565b610323606461049c565b905060006103af6103a26103796103748989610503565b6107ca565b61039761039c87610397886103928a610323600261049c565b6107ed565b610a56565b886107ed565b6103238461039288610e20565b905060006103c9826103c48561039289610e20565b610ff9565b905060ff8e1661040a576103fc6103f76103e789858a898b8861100b565b610392662386f26fc1000061049c565b611050565b975050505050505050610436565b60001960ff8f160161042a576103fc6103f76103e7888789868d896110d4565b60009750505050505050505b9695505050505050565b60006102da8284612a32565b600080546001600160a01b038381166001600160a01b0319831681178455604051919092169283917f8be0079c531659141344cd1fd0a4f28419497f9722a3daafe3b4186f6b6457e09190a35050565b6000816000036104ae57506000919050565b8160006104ba82611133565b905060708110156104d3578060700382901b91506104e6565b60708111156104e6576070810382901c91505b613fff0160701b6001600160701b03919091161760801b92915050565b6000617fff60f084811c8216919084901c8116908290036105485780617fff03610537575061ffff60ef1b91506102dd9050565b505050600160ff1b811682186102dd565b80617fff0361058b576dffffffffffffffffffffffffffff60801b84161561057a575061ffff60ef1b91506102dd9050565b505050808218600160ff1b166102dd565b600160801b600160ff1b0384166000036105db57600160801b600160ff1b0385166000036105c3575061ffff60ef1b91506102dd9050565b505050808218600160ff1b16617fff60f01b176102dd565b6001600160701b03608085901c1660008290036105fb5760019150610602565b600160701b175b6001600160701b03608087901c16600084900361064557801561064057600061062a82611133565b6001955060e20393840160711901939190911b90505b61064f565b600160701b1760721b5b81818161065e5761065e6129fa565b0490508060000361068e57600160ff1b8787181661067d576000610683565b600160ff1b5b9450505050506102dd565b6001606c1b8110156106a2576106a2612a49565b6000600160731b8210156106e157600160721b8210156106d657600160711b8210156106cf5760706106d9565b60716106d9565b60725b60ff166106ea565b6106ea82611133565b90508361407101818601111561070857617fff94506000915061079b565b83818601613ffc01101561072357600094506000915061079b565b83818601613f8c011015610770578385613ffc01111561074e578385613ffc010382901b9150610767565b8385613ffc01101561076757613ffc8585030382901c91505b6000945061079b565b6070811115610783576070810382901c91505b6001600160701b038216915083818601613f8d010394505b81607086901b888a186001607f1b60801b1660801c6001600160801b0316171760801b955050505050506102dd565b60006102dd6107d8836111d1565b6f3ffe62e42fefa39ef35793c7673007e560801b5b6000617fff60f084811c8216919084901c81169082900361088c5780617fff03610868576001600160801b03198085169086160361083657505050600160ff1b811682186102dd565b6001600160801b031985851816600160ff1b03610858575050508181176102dd565b5061ffff60ef1b91506102dd9050565b600160801b600160ff1b038416600003610537575061ffff60ef1b91506102dd9050565b80617fff036108ca57600160801b600160ff1b0385166000036108b9575061ffff60ef1b91506102dd9050565b505050600160ff1b821681186102dd565b6001600160701b03608086901c1660008390036108ea57600192506108f1565b600160701b175b6001600160701b03608086901c1660008390036109115760019250610918565b600160701b175b80820291508160000361093957600160ff1b8787181661067d576000610683565b928201926000600160e11b83101561096c57600160e01b8310156109655761096083611133565b61096f565b60e061096f565b60e15b9050614070818601101561098a576000945060009250610a27565b6140e081860110156109cd576140708510156109af57846140700383901c92506109c4565b6140708511156109c457614070850383901b92505b60009450610a27565b61c0dd81860111156109e757617fff945060009250610a27565b60708111156109fe576070810383901c9250610a11565b6070811015610a11578060700383901b92505b6001600160701b03831692506140df8186010394505b82607086901b888a186001607f1b60801b1660801c6001600160801b0316171760801b955050505050506102dd565b6000617fff60f084811c8216919084901c811690829003610aa25780617fff03610a98576001600160801b0319808516908616036108585784925050506102dd565b84925050506102dd565b80617fff03610ab55783925050506102dd565b6001607f1b608086901c90811015906001600160701b03166000849003610adf5760019350610ae6565b600160701b175b6001607f1b608087901c90811015906001600160701b03166000859003610b105760019450610b17565b600160701b175b82600003610b4a576001600160801b03198816600160ff1b14610b3a5787610b3d565b60005b96505050505050506102dd565b80600003610b6d576001600160801b03198916600160ff1b14610b3a5788610b3d565b84860382151585151503610c76576070811315610b9357899750505050505050506102dd565b6000811315610ba55790811c90610bd4565b606f19811215610bbe57889750505050505050506102dd565b6000811215610bd4578060000384901c93508596505b92810192600160711b8410610bef576001968701969390931c925b86617fff03610c205784610c0857617fff60f01b610c12565b6001600160f01b03195b9750505050505050506102dd565b600160701b841015610c355760009650610c42565b6001600160701b03841693505b83607088901b86610c54576000610c5a565b6001607f1b5b6001600160801b0316171760801b9750505050505050506102dd565b6000811315610c9157600184901b9350600187039650610ca8565b6000811215610ca857600182901b91506001860396505b6070811315610cba5760019150610d07565b6001811315610cd7576001810360018303901c6001019150610d07565b606f19811215610cea5760019350610d07565b600019811215610d07576001816000030360018503901c60010193505b818410610d18578184039350610d21565b83820393508294505b83600003610d3a5750600096506102dd95505050505050565b6000610d4585611133565b905080607103610d6a57600185901c6001600160701b03169450600188019750610db9565b6070811015610dac57607081900380891115610d99578086901b6001600160701b031695508089039850610da6565b600098600019019590951b945b50610db9565b6001600160701b03851694505b87617fff03610deb5785610dd257617fff60f01b610ddc565b6001600160f01b03195b985050505050505050506102dd565b84607089901b87610dfd576000610e03565b6001607f1b5b6001600160801b0316171760801b985050505050505050506102dd565b60006001607f1b608083901c1115610e3e575061ffff60ef1b919050565b617fff60f083901c811690819003610e57575090919050565b6001600160701b03608084901c166000829003610e775760019150610e7e565b600160701b175b80600003610e90575060009392505050565b613fff8201600190811c9216158015610ee257600160701b8210610eba57607182901b9150610f1d565b6000610ec583611133565b60e20360fe16606f19810160011c909403939290921b9150610f1d565b600160701b8210610ef957607082901b9150610f1d565b6000610f0483611133565b60e10360fe16606f19810160011c909403939290921b91505b600160701b80830401600190811c90818481610f3b57610f3b6129fa565b048201901c90506001818481610f5357610f536129fa565b048201901c90506001818481610f6b57610f6b6129fa565b048201901c90506001818481610f8357610f836129fa565b048201901c90506001818481610f9b57610f9b6129fa565b048201901c90506001818481610fb357610fb36129fa565b048201901c90506000818481610fcb57610fcb6129fa565b04905081811015610fda578091505b816001600160701b0316607086901b1760801b95505050505050919050565b60006102da83600160ff1b8418610a56565b600061104561101d8861039289611389565b6103c461103c88610392611037600160ff1b8b188a6107ed565b611424565b61039286611389565b979650505050505050565b6000617fff60f083901c16613fff81101561106e5750600092915050565b6001607f1b608084901c1061108257600080fd5b6140fe81111561109157600080fd5b600160701b6001600160701b03608085901c161761406f8210156110bb5761406f8290031c6110cd565b61406f8211156110cd5761406e1982011b5b9392505050565b6000806111006110f189610392611037600160ff1b8c188b6107ed565b610392600160ff1b8818611389565b9050600061111785610392600160ff1b8718611389565b905060006111258383610ff9565b9a9950505050505050505050565b600080821161114157600080fd5b6000600160801b831061115657608092831c92015b600160401b831061116957604092831c92015b640100000000831061117d57602092831c92015b62010000831061118f57601092831c92015b61010083106111a057600892831c92015b601083106111b057600492831c92015b600483106111c057600292831c92015b600283106102dd5760010192915050565b60006001607f1b608083901c11156111ef575061ffff60ef1b919050565b6001600160801b03198216613fff60f01b0361120d57506000919050565b617fff60f083901c811690819003611226575090919050565b6001600160701b03608084901c166000829003611246576001915061124d565b600160701b175b8060000361126657506001600160f01b03199392505050565b600061406f81613fff851061128c5750600f9290921b9160009150613ffe1984016112cb565b60019250600160701b84106112ae5784613ffe039050600f84901b93506112cb565b60006112b985611133565b607f8190039590951b9461406d039150505b836001607f1b036113015782156112e0576001015b60006112eb82611133565b60700390508082901b915080830392505061134f565b60008361130f576000611312565b60015b60ff1690505b600160701b82101561134d5793800260ff81901c607f81019190911c94600019939093019260019290921b9082180190611318565b505b806001600160701b0316607083901b8461136a576000611370565b6001607f1b5b6001600160801b0316171760801b979650505050505050565b6000806113958361144b565b12156113b7576102dd6113a8600161049c565b6103c4600160ff1b8518611389565b60006113f96113c6600161049c565b6103236113d3600161049c565b61039761039c6113e966083ac553a55e0061049c565b610323662386f26fc1000061049c565b9050600061140782856114f2565b905061141c611416600161049c565b82610ff9565b949350505050565b60006102dd611446836f1fffb8aa3b295c17f0bbbe87fed0691d60811b6107ed565b611509565b6000617fff60f083901c166140fe81111561146557600080fd5b613fff8110156114785750600092915050565b600160701b6001600160701b03608085901c161761406f8210156114a25761406f8290031c6114b4565b61406f8211156114b45761406e1982011b5b6001607f1b608085901c106114de57600160ff1b8111156114d457600080fd5b6000039392505050565b6001600160ff1b038111156110cd57600080fd5b60006102da6115008361285e565b610392856128a6565b60006001607f1b608083901c90811190617fff60f085901c8116916001600160701b0316908214801561153b57508015155b1561154f575061ffff60ef1b949350505050565b61400d821115611574578261156957617fff60f01b6101c6565b600095945050505050565b613f7f82101561158d5750613fff60f01b949350505050565b8160000361159e57600191506115a5565b600160701b175b613fef8211156115bb57613fee1982011b6115cd565b613fef8210156115cd57613fef8290031c5b8280156115de575061203760811b81115b156115ee57506000949350505050565b8215801561160d5750713fffffffffffffffffffffffffffffffffff81115b156116215750617fff60f01b949350505050565b6001600160801b0381169060801c83801561163b57508115155b15611647579019906001015b6001607f1b8281161561166b5770016a09e667f3bcc908b2fb1366ea957d3e0260801c5b6001607e1b83161561168e577001306fe0a31b7152de8d5a46305c85edec0260801c5b6001607d1b8316156116b1577001172b83c7d517adcdf7c8c50eb14a791f0260801c5b6001607c1b8316156116d45770010b5586cf9890f6298b92b71842a983630260801c5b6001607b1b8316156116f7577001059b0d31585743ae7c548eb68ca417fd0260801c5b6001607a1b83161561171a57700102c9a3e778060ee6f7caca4f7a29bde80260801c5b600160791b83161561173d5770010163da9fb33356d84a66ae336dcdfa3f0260801c5b600160781b83161561176057700100b1afa5abcbed6129ab13ec11dc95430260801c5b600160771b8316156117835770010058c86da1c09ea1ff19d294cf2f679b0260801c5b600160761b8316156117a6577001002c605e2e8cec506d21bfc89a23a00f0260801c5b600160751b8316156117c957700100162f3904051fa128bca9c55c31e5df0260801c5b600160741b8316156117ec577001000b175effdc76ba38e31671ca9397250260801c5b600160731b83161561180f57700100058ba01fb9f96d6cacd4b180917c3d0260801c5b600160721b8316156118325770010002c5cc37da9491d0985c348c68e7b30260801c5b600160711b831615611855577001000162e525ee054754457d59952920260260801c5b600160701b8316156118785770010000b17255775c040618bf4a4ade83fc0260801c5b6001606f1b83161561189b577001000058b91b5bc9ae2eed81e9b7d4cfab0260801c5b6001606e1b8316156118be57700100002c5c89d5ec6ca4d7c8acc017b7c90260801c5b6001606d1b8316156118e15770010000162e43f4f831060e02d839a9d16d0260801c5b6001606c1b83161561190457700100000b1721bcfc99d9f890ea069117630260801c5b6001606b1b8316156119275770010000058b90cf1e6d97f9ca14dbcc16280260801c5b6001606a1b83161561194a577001000002c5c863b73f016468f6bac5ca2b0260801c5b600160691b83161561196d57700100000162e430e5a18f6119e3c02282a50260801c5b600160681b831615611990577001000000b1721835514b86e6d96efd1bfe0260801c5b600160671b8316156119b357700100000058b90c0b48c6be5df846c5b2ef0260801c5b600160661b8316156119d65770010000002c5c8601cc6b9e94213c72737a0260801c5b600160651b8316156119f9577001000000162e42fff037df38aa2b219f060260801c5b600160641b831615611a1c5770010000000b17217fba9c739aa5819f44f90260801c5b600160631b831615611a3f577001000000058b90bfcdee5acd3c1cedc8230260801c5b600160621b831615611a6257700100000002c5c85fe31f35a6a30da1be500260801c5b600160611b831615611a855770010000000162e42ff0999ce3541b9fffcf0260801c5b600160601b831615611aa857700100000000b17217f80f4ef5aadda455540260801c5b6001605f1b831615611acb5770010000000058b90bfbf8479bd5a81b51ad0260801c5b6001605e1b831615611aee577001000000002c5c85fdf84bd62ae30a74cc0260801c5b6001605d1b831615611b1157700100000000162e42fefb2fed257559bdaa0260801c5b6001605c1b831615611b34577001000000000b17217f7d5a7716bba4a9ae0260801c5b6001605b1b831615611b5757700100000000058b90bfbe9ddbac5e109cce0260801c5b6001605a1b831615611b7a5770010000000002c5c85fdf4b15de6f17eb0d0260801c5b600160591b831615611b9d577001000000000162e42fefa494f1478fde050260801c5b600160581b831615611bc05770010000000000b17217f7d20cf927c8e94c0260801c5b600160571b831615611be3577001000000000058b90bfbe8f71cb4e4b33d0260801c5b600160561b831615611c0657700100000000002c5c85fdf477b662b269450260801c5b600160551b831615611c295770010000000000162e42fefa3ae53369388c0260801c5b600160541b831615611c4c57700100000000000b17217f7d1d351a389d400260801c5b600160531b831615611c6f5770010000000000058b90bfbe8e8b2d3d4ede0260801c5b600160521b831615611c92577001000000000002c5c85fdf4741bea6e77e0260801c5b600160511b831615611cb557700100000000000162e42fefa39fe95583c20260801c5b600160501b831615611cd8577001000000000000b17217f7d1cfb72b45e10260801c5b6980000000000000000000831615611d0157700100000000000058b90bfbe8e7cc35c3f00260801c5b6940000000000000000000831615611d2a5770010000000000002c5c85fdf473e242ea380260801c5b6920000000000000000000831615611d53577001000000000000162e42fefa39f02b772c0260801c5b6910000000000000000000831615611d7c5770010000000000000b17217f7d1cf7d83c1a0260801c5b6908000000000000000000831615611da5577001000000000000058b90bfbe8e7bdcbe2e0260801c5b6904000000000000000000831615611dce57700100000000000002c5c85fdf473dea871f0260801c5b6902000000000000000000831615611df75770010000000000000162e42fefa39ef44d910260801c5b6901000000000000000000831615611e2057700100000000000000b17217f7d1cf79e9490260801c5b68800000000000000000831615611e485770010000000000000058b90bfbe8e7bce5440260801c5b68400000000000000000831615611e70577001000000000000002c5c85fdf473de6eca0260801c5b68200000000000000000831615611e9857700100000000000000162e42fefa39ef366f0260801c5b68100000000000000000831615611ec0577001000000000000000b17217f7d1cf79afa0260801c5b68080000000000000000831615611ee857700100000000000000058b90bfbe8e7bcd6d0260801c5b68040000000000000000831615611f105770010000000000000002c5c85fdf473de6b20260801c5b68020000000000000000831615611f38577001000000000000000162e42fefa39ef3580260801c5b600160401b831615611f5b5770010000000000000000b17217f7d1cf79ab0260801c5b678000000000000000831615611f82577001000000000000000058b90bfbe8e7bcd50260801c5b674000000000000000831615611fa957700100000000000000002c5c85fdf473de6a0260801c5b672000000000000000831615611fd05770010000000000000000162e42fefa39ef340260801c5b671000000000000000831615611ff757700100000000000000000b17217f7d1cf7990260801c5b67080000000000000083161561201e5770010000000000000000058b90bfbe8e7bcc0260801c5b670400000000000000831615612045577001000000000000000002c5c85fdf473de50260801c5b67020000000000000083161561206c57700100000000000000000162e42fefa39ef20260801c5b670100000000000000831615612093577001000000000000000000b17217f7d1cf780260801c5b66800000000000008316156120b957700100000000000000000058b90bfbe8e7bb0260801c5b66400000000000008316156120df5770010000000000000000002c5c85fdf473dd0260801c5b6620000000000000831615612105577001000000000000000000162e42fefa39ee0260801c5b661000000000000083161561212b5770010000000000000000000b17217f7d1cf60260801c5b6608000000000000831615612151577001000000000000000000058b90bfbe8e7a0260801c5b660400000000000083161561217757700100000000000000000002c5c85fdf473c0260801c5b660200000000000083161561219d5770010000000000000000000162e42fefa39d0260801c5b66010000000000008316156121c357700100000000000000000000b17217f7d1ce0260801c5b658000000000008316156121e85770010000000000000000000058b90bfbe8e60260801c5b6540000000000083161561220d577001000000000000000000002c5c85fdf4720260801c5b6520000000000083161561223257700100000000000000000000162e42fefa380260801c5b65100000000000831615612257577001000000000000000000000b17217f7d1b0260801c5b6508000000000083161561227c57700100000000000000000000058b90bfbe8d0260801c5b650400000000008316156122a15770010000000000000000000002c5c85fdf460260801c5b650200000000008316156122c6577001000000000000000000000162e42fefa20260801c5b650100000000008316156122eb5770010000000000000000000000b17217f7d00260801c5b64800000000083161561230f577001000000000000000000000058b90bfbe70260801c5b64400000000083161561233357700100000000000000000000002c5c85fdf30260801c5b6420000000008316156123575770010000000000000000000000162e42fef90260801c5b64100000000083161561237b57700100000000000000000000000b17217f7c0260801c5b64080000000083161561239f5770010000000000000000000000058b90bfbd0260801c5b6404000000008316156123c3577001000000000000000000000002c5c85fde0260801c5b6402000000008316156123e757700100000000000000000000000162e42fee0260801c5b64010000000083161561240b577001000000000000000000000000b17217f60260801c5b638000000083161561242e57700100000000000000000000000058b90bfa0260801c5b63400000008316156124515770010000000000000000000000002c5c85fc0260801c5b6320000000831615612474577001000000000000000000000000162e42fd0260801c5b63100000008316156124975770010000000000000000000000000b17217e0260801c5b63080000008316156124ba577001000000000000000000000000058b90be0260801c5b63040000008316156124dd57700100000000000000000000000002c5c85e0260801c5b63020000008316156125005770010000000000000000000000000162e42e0260801c5b630100000083161561252357700100000000000000000000000000b172160260801c5b628000008316156125455770010000000000000000000000000058b90a0260801c5b62400000831615612567577001000000000000000000000000002c5c840260801c5b6220000083161561258957700100000000000000000000000000162e410260801c5b621000008316156125ab577001000000000000000000000000000b17200260801c5b620800008316156125cd57700100000000000000000000000000058b8f0260801c5b620400008316156125ef5770010000000000000000000000000002c5c70260801c5b62020000831615612611577001000000000000000000000000000162e30260801c5b620100008316156126335770010000000000000000000000000000b1710260801c5b618000831615612654577001000000000000000000000000000058b80260801c5b61400083161561267557700100000000000000000000000000002c5b0260801c5b6120008316156126965770010000000000000000000000000000162d0260801c5b6110008316156126b757700100000000000000000000000000000b160260801c5b6108008316156126d85770010000000000000000000000000000058a0260801c5b6104008316156126f9577001000000000000000000000000000002c40260801c5b61020083161561271a577001000000000000000000000000000001610260801c5b61010083161561273b577001000000000000000000000000000000b00260801c5b608083161561275b577001000000000000000000000000000000570260801c5b604083161561277b5770010000000000000000000000000000002b0260801c5b602083161561279b577001000000000000000000000000000000150260801c5b60108316156127bb5770010000000000000000000000000000000a0260801c5b60088316156127db577001000000000000000000000000000000040260801c5b60048316156127fb577001000000000000000000000000000000010260801c5b8461281c57600f81901c6001600160701b03169050613fff8201915061284b565b613ffe821161284157600f81901c6001600160701b0316905081613fff03915061284b565b600091613fee19011c5b60709190911b1760801b95945050505050565b60006102dd61287e611037600160ff1b851861039286610323600261049c565b6103236128a161288e600261049c565b6103926113e9666f9c9e651c448061049c565b610e20565b60006102dd61290a6128c16113e9660b58c2126f490061049c565b610397856103926128e76128de6113e9660caaedbfa8a70061049c565b600160ff1b1890565b610397896103926129016113e9663f4a728c19ce8061049c565b6103978d612910565b836107ed565b60006102dd8261039261292f6128de6113e96640b43a0423310061049c565b610397866103926113e9662f42c683f17c8061049c565b60006020828403121561295857600080fd5b5035919050565b600080600080600060a0868803121561297757600080fd5b8535801515811461298757600080fd5b97602087013597506040870135966060810135965060800135945092505050565b6000602082840312156129ba57600080fd5b81356001600160a01b03811681146110cd57600080fd5b634e487b7160e01b600052601160045260246000fd5b818103818111156102dd576102dd6129d1565b634e487b7160e01b600052601260045260246000fd5b600082612a2d57634e487b7160e01b600052601260045260246000fd5b500490565b80820281158282048414176102dd576102dd6129d1565b634e487b7160e01b600052600160045260246000fdfea2646970667358221220f81f5981703b008da9498096fda12e789ced5609eafc9b644ccb0b04e306497c64736f6c63430008110033",
  "devdoc": {
    "kind": "dev",
    "methods": {
      "getOptionPrice(bool,uint256,uint256,uint256,uint256)": {
        "params": {
          "expiry": "expiry timestamp",
          "isPut": "is put option",
          "lastPrice": "current price",
          "strike": "strike price",
          "volatility": "volatility"
        }
      },
      "owner()": {
        "details": "Returns the address of the current owner."
      },
      "renounceOwnership()": {
        "details": "Leaves the contract without owner. It will not be possible to call `onlyOwner` functions anymore. Can only be called by the current owner. NOTE: Renouncing ownership will leave the contract without an owner, thereby removing any functionality that is only available to the owner."
      },
      "transferOwnership(address)": {
        "details": "Transfers ownership of the contract to a new account (`newOwner`). Can only be called by the current owner."
      },
      "updateMinOptionPricePercentage(uint256)": {
        "params": {
          "_minOptionPricePercentage": "the new %"
        },
        "returns": {
          "_0": "whether % was updated"
        }
      },
      "updateVolatilityCap(uint256)": {
        "params": {
          "_volatilityCap": "the new volatility cap"
        },
        "returns": {
          "_0": "whether volatility cap was updated"
        }
      }
    },
    "version": 1
  },
  "userdoc": {
    "kind": "user",
    "methods": {
      "getOptionPrice(bool,uint256,uint256,uint256,uint256)": {
        "notice": "computes the option price (with liquidity multiplier)"
      },
      "updateMinOptionPricePercentage(uint256)": {
        "notice": "updates % of the price of asset which is the minimum option price possible"
      },
      "updateVolatilityCap(uint256)": {
        "notice": "updates volatility cap for an option pool"
      }
    },
    "version": 1
  },
  "storageLayout": {
    "storage": [
      {
        "astId": 7,
        "contract": "contracts/OptionPricing.sol:OptionPricing",
        "label": "_owner",
        "offset": 0,
        "slot": "0",
        "type": "t_address"
      },
      {
        "astId": 468,
        "contract": "contracts/OptionPricing.sol:OptionPricing",
        "label": "volatilityCap",
        "offset": 0,
        "slot": "1",
        "type": "t_uint256"
      },
      {
        "astId": 470,
        "contract": "contracts/OptionPricing.sol:OptionPricing",
        "label": "minOptionPricePercentage",
        "offset": 0,
        "slot": "2",
        "type": "t_uint256"
      }
    ],
    "types": {
      "t_address": {
        "encoding": "inplace",
        "label": "address",
        "numberOfBytes": "20"
      },
      "t_uint256": {
        "encoding": "inplace",
        "label": "uint256",
        "numberOfBytes": "32"
      }
    }
  }
}