{
  "address": "0x4aB59d8D18298261560aFcAf780E17Dc69B877d0",
  "abi": [
    {
      "inputs": [],
      "stateMutability": "nonpayable",
      "type": "constructor"
    },
    {
      "anonymous": false,
      "inputs": [
        {
          "indexed": true,
          "internalType": "address",
          "name": "_collectionAddress",
          "type": "address"
        },
        {
          "indexed": true,
          "internalType": "address",
          "name": "_nftTokenAddress",
          "type": "address"
        },
        {
          "indexed": false,
          "internalType": "uint256",
          "name": "_tokenId",
          "type": "uint256"
        },
        {
          "indexed": false,
          "internalType": "address",
          "name": "_to",
          "type": "address"
        }
      ],
      "name": "Fractionalised",
      "type": "event"
    },
    {
      "anonymous": false,
      "inputs": [
        {
          "indexed": true,
          "internalType": "address",
          "name": "previousOwner",
          "type": "address"
        },
        {
          "indexed": true,
          "internalType": "address",
          "name": "newOwner",
          "type": "address"
        }
      ],
      "name": "OwnershipTransferred",
      "type": "event"
    },
    {
      "anonymous": false,
      "inputs": [
        {
          "indexed": true,
          "internalType": "address",
          "name": "_collectionAddress",
          "type": "address"
        },
        {
          "indexed": false,
          "internalType": "uint256",
          "name": "_tokenId",
          "type": "uint256"
        },
        {
          "indexed": false,
          "internalType": "address",
          "name": "_to",
          "type": "address"
        }
      ],
      "name": "Redeemed",
      "type": "event"
    },
    {
      "inputs": [],
      "name": "FRACTIONALISED_AMOUNT",
      "outputs": [
        {
          "internalType": "uint256",
          "name": "",
          "type": "uint256"
        }
      ],
      "stateMutability": "view",
      "type": "function"
    },
    {
      "inputs": [
        {
          "internalType": "address",
          "name": "_collectionAddress",
          "type": "address"
        },
        {
          "internalType": "uint256",
          "name": "_tokenId",
          "type": "uint256"
        }
      ],
      "name": "fractionalizeNFT",
      "outputs": [],
      "stateMutability": "nonpayable",
      "type": "function"
    },
    {
      "inputs": [
        {
          "internalType": "address",
          "name": "_collectionAddress",
          "type": "address"
        }
      ],
      "name": "getIds",
      "outputs": [
        {
          "internalType": "uint256[]",
          "name": "",
          "type": "uint256[]"
        }
      ],
      "stateMutability": "view",
      "type": "function"
    },
    {
      "inputs": [
        {
          "internalType": "address",
          "name": "_collectionAddress",
          "type": "address"
        }
      ],
      "name": "getTokenFromCollection",
      "outputs": [
        {
          "internalType": "contract IBB20",
          "name": "",
          "type": "address"
        }
      ],
      "stateMutability": "view",
      "type": "function"
    },
    {
      "inputs": [
        {
          "internalType": "address",
          "name": "",
          "type": "address"
        }
      ],
      "name": "nftAddressToTokenAddress",
      "outputs": [
        {
          "internalType": "contract BB20",
          "name": "",
          "type": "address"
        }
      ],
      "stateMutability": "view",
      "type": "function"
    },
    {
      "inputs": [],
      "name": "owner",
      "outputs": [
        {
          "internalType": "address",
          "name": "",
          "type": "address"
        }
      ],
      "stateMutability": "view",
      "type": "function"
    },
    {
      "inputs": [
        {
          "internalType": "address",
          "name": "_collectionAddress",
          "type": "address"
        },
        {
          "internalType": "uint256",
          "name": "_tokenId",
          "type": "uint256"
        }
      ],
      "name": "reconstructNFT",
      "outputs": [],
      "stateMutability": "nonpayable",
      "type": "function"
    },
    {
      "inputs": [],
      "name": "renounceOwnership",
      "outputs": [],
      "stateMutability": "nonpayable",
      "type": "function"
    },
    {
      "inputs": [
        {
          "internalType": "address",
          "name": "newOwner",
          "type": "address"
        }
      ],
      "name": "transferOwnership",
      "outputs": [],
      "stateMutability": "nonpayable",
      "type": "function"
    },
    {
      "inputs": [
        {
          "internalType": "address",
          "name": "_collectionAddress",
          "type": "address"
        }
      ],
      "name": "whitelistNFT",
      "outputs": [],
      "stateMutability": "nonpayable",
      "type": "function"
    },
    {
      "inputs": [
        {
          "internalType": "address",
          "name": "",
          "type": "address"
        }
      ],
      "name": "whitelisted",
      "outputs": [
        {
          "internalType": "bool",
          "name": "",
          "type": "bool"
        }
      ],
      "stateMutability": "view",
      "type": "function"
    }
  ],
  "transactionHash": "0xb3a52139041a9e2d93b86f5fd20b5b992fa238d49bbc8bc882bb70707e9b7ffe",
  "args": [],
  "numDeployments": 1,
  "solcInputHash": "bb9fe4e66b0d4e4d84c249d167520feb",
  "bytecode": "0x608060405234801561001057600080fd5b5061001a3361001f565b61006f565b600080546001600160a01b038381166001600160a01b0319831681178455604051919092169283917f8be0079c531659141344cd1fd0a4f28419497f9722a3daafe3b4186f6b6457e09190a35050565b611d898061007e6000396000f3fe60806040523480156200001157600080fd5b5060043610620000b75760003560e01c80638da5cb5b116200007a5780638da5cb5b1462000177578063b14dcafa1462000189578063bcdbfe6814620001b5578063d936547e14620001cc578063eb617ea01462000203578063f2fde38b146200021a57600080fd5b80632671b0d814620000bc5780633200bddf14620000eb5780633d4705b21462000133578063715018a6146200014c5780637613e63a1462000156575b600080fd5b620000d3620000cd36600462000c5e565b62000231565b604051620000e2919062000c7c565b60405180910390f35b6200011a620000fc36600462000c5e565b6001600160a01b039081166000908152600260205260409020541690565b6040516001600160a01b039091168152602001620000e2565b6200014a6200014436600462000cc2565b6200025d565b005b6200014a62000620565b6200016869d3c21bcecceda100000081565b604051908152602001620000e2565b6000546001600160a01b03166200011a565b6200011a6200019a36600462000c5e565b6002602052600090815260409020546001600160a01b031681565b6200014a620001c636600462000c5e565b62000638565b620001f2620001dd36600462000c5e565b60036020526000908152604090205460ff1681565b6040519015158152602001620000e2565b6200014a6200021436600462000cc2565b62000666565b6200014a6200022b36600462000c5e565b62000965565b6001600160a01b03811660009081526001602052604090206060906200025790620009e4565b92915050565b6001600160a01b038216620002b95760405162461bcd60e51b815260206004820152601a60248201527f496e76616c696420636f6c6c656374696f6e206164647265737300000000000060448201526064015b60405180910390fd5b6001600160a01b03821660009081526003602052604090205460ff16620003235760405162461bcd60e51b815260206004820152601a60248201527f436f6c6c656374696f6e206e6f742077686974656c69737465640000000000006044820152606401620002b0565b6040516323b872dd60e01b8152336004820152306024820152604481018290526001600160a01b038316906323b872dd90606401600060405180830381600087803b1580156200037257600080fd5b505af115801562000387573d6000803e3d6000fd5b5050506001600160a01b0383166000908152600160205260409020620003af91508262000a93565b506001600160a01b038281166000908152600260205260408120549091166200054c57600062000472604051806040016040528060128152602001710212110233930b1ba34b7b730b634bd32b2160751b815250856001600160a01b03166306fdde036040518163ffffffff1660e01b8152600401600060405180830381865afa15801562000442573d6000803e3d6000fd5b505050506040513d6000823e601f3d908101601f191682016040526200046c919081019062000d38565b62000aa8565b90506000620004d460405180604001604052806002815260200161313160f11b815250866001600160a01b03166395d89b416040518163ffffffff1660e01b8152600401600060405180830381865afa15801562000442573d6000803e3d6000fd5b9050818130604051620004e79062000c33565b620004f59392919062000e1f565b604051809103906000f08015801562000512573d6000803e3d6000fd5b506001600160a01b03868116600090815260026020526040902080546001600160a01b031916918316919091179055925062000569915050565b506001600160a01b03808316600090815260026020526040902054165b6040516340c10f1960e01b815233600482015269d3c21bcecceda100000060248201526001600160a01b038216906340c10f1990604401600060405180830381600087803b158015620005bb57600080fd5b505af1158015620005d0573d6000803e3d6000fd5b5050604080518581523360208201526001600160a01b038086169450871692507f2690901cb58205ffdd1f99ca905241dce4edf085af5b52d2c064bf1b673a1130910160405180910390a3505050565b6200062a62000ad6565b62000636600062000b32565b565b6200064262000ad6565b6001600160a01b03166000908152600360205260409020805460ff19166001179055565b6001600160a01b038216620006be5760405162461bcd60e51b815260206004820152601a60248201527f496e76616c696420636f6c6c656374696f6e20616464726573730000000000006044820152606401620002b0565b6001600160a01b0382166000908152600160205260409020620006e2908262000b82565b620007305760405162461bcd60e51b815260206004820152601760248201527f546f6b656e20696420646f6573206e6f742065786973740000000000000000006044820152606401620002b0565b6001600160a01b03828116600090815260026020526040908190205490516323b872dd60e01b815233600482015230602482015269d3c21bcecceda100000060448201529116906323b872dd906064016020604051808303816000875af1158015620007a0573d6000803e3d6000fd5b505050506040513d601f19601f82011682018060405250810190620007c6919062000e61565b620008065760405162461bcd60e51b815260206004820152600f60248201526e151c985b9cd9995c8819985a5b1959608a1b6044820152606401620002b0565b6001600160a01b0382811660009081526002602052604090819020549051630852cd8d60e31b815269d3c21bcecceda100000060048201529116906342966c68906024016020604051808303816000875af11580156200086a573d6000803e3d6000fd5b505050506040513d601f19601f8201168201806040525081019062000890919062000e61565b506001600160a01b0382166000908152600160205260409020620008b5908262000b82565b506040516323b872dd60e01b8152306004820152336024820152604481018290526001600160a01b038316906323b872dd90606401600060405180830381600087803b1580156200090557600080fd5b505af11580156200091a573d6000803e3d6000fd5b5050604080518481523360208201526001600160a01b03861693507f753fa485a7db01b79a5bf240795c914378b8fb5fcb2a848f2acd51aa6804adbf92500160405180910390a25050565b6200096f62000ad6565b6001600160a01b038116620009d65760405162461bcd60e51b815260206004820152602660248201527f4f776e61626c653a206e6577206f776e657220697320746865207a65726f206160448201526564647265737360d01b6064820152608401620002b0565b620009e18162000b32565b50565b60606000620009f38362000b9b565b905060008167ffffffffffffffff81111562000a135762000a1362000cef565b60405190808252806020026020018201604052801562000a3d578160200160208202803683370190505b50905060005b8281101562000a8b5762000a58858262000ba6565b82828151811062000a6d5762000a6d62000e85565b602090810291909101015262000a838162000e9b565b905062000a43565b509392505050565b600062000aa1838362000bb4565b9392505050565b6060828260405160200162000abf92919062000ec5565b604051602081830303815290604052905092915050565b6000546001600160a01b03163314620006365760405162461bcd60e51b815260206004820181905260248201527f4f776e61626c653a2063616c6c6572206973206e6f7420746865206f776e65726044820152606401620002b0565b600080546001600160a01b038381166001600160a01b0319831681178455604051919092169283917f8be0079c531659141344cd1fd0a4f28419497f9722a3daafe3b4186f6b6457e09190a35050565b6000818152600183016020526040812054151562000aa1565b600062000257825490565b600062000aa1838362000c06565b600081815260018301602052604081205462000bfd5750815460018181018455600084815260208082209093018490558454848252828601909352604090209190915562000257565b50600062000257565b600082600001828154811062000c205762000c2062000e85565b9060005260206000200154905092915050565b610e5b8062000ef983390190565b80356001600160a01b038116811462000c5957600080fd5b919050565b60006020828403121562000c7157600080fd5b62000aa18262000c41565b6020808252825182820181905260009190848201906040850190845b8181101562000cb65783518352928401929184019160010162000c98565b50909695505050505050565b6000806040838503121562000cd657600080fd5b62000ce18362000c41565b946020939093013593505050565b634e487b7160e01b600052604160045260246000fd5b60005b8381101562000d2257818101518382015260200162000d08565b8381111562000d32576000848401525b50505050565b60006020828403121562000d4b57600080fd5b815167ffffffffffffffff8082111562000d6457600080fd5b818401915084601f83011262000d7957600080fd5b81518181111562000d8e5762000d8e62000cef565b604051601f8201601f19908116603f0116810190838211818310171562000db95762000db962000cef565b8160405282815287602084870101111562000dd357600080fd5b62000de683602083016020880162000d05565b979650505050505050565b6000815180845262000e0b81602086016020860162000d05565b601f01601f19169290920160200192915050565b60608152600062000e34606083018662000df1565b828103602084015262000e48818662000df1565b91505060018060a01b0383166040830152949350505050565b60006020828403121562000e7457600080fd5b8151801515811462000aa157600080fd5b634e487b7160e01b600052603260045260246000fd5b600060001982141562000ebe57634e487b7160e01b600052601160045260246000fd5b5060010190565b6000835162000ed981846020880162000d05565b83519083019062000eef81836020880162000d05565b0194935050505056fe60806040523480156200001157600080fd5b5060405162000e5b38038062000e5b833981016040819052620000349162000203565b8251839083906200004d90600390602085019062000090565b5080516200006390600490602084019062000090565b5050600580546001600160a01b0319166001600160a01b03939093169290921790915550620002cd915050565b8280546200009e9062000290565b90600052602060002090601f016020900481019282620000c257600085556200010d565b82601f10620000dd57805160ff19168380011785556200010d565b828001600101855582156200010d579182015b828111156200010d578251825591602001919060010190620000f0565b506200011b9291506200011f565b5090565b5b808211156200011b576000815560010162000120565b634e487b7160e01b600052604160045260246000fd5b600082601f8301126200015e57600080fd5b81516001600160401b03808211156200017b576200017b62000136565b604051601f8301601f19908116603f01168101908282118183101715620001a657620001a662000136565b81604052838152602092508683858801011115620001c357600080fd5b600091505b83821015620001e75785820183015181830184015290820190620001c8565b83821115620001f95760008385830101525b9695505050505050565b6000806000606084860312156200021957600080fd5b83516001600160401b03808211156200023157600080fd5b6200023f878388016200014c565b945060208601519150808211156200025657600080fd5b5062000265868287016200014c565b604086015190935090506001600160a01b03811681146200028557600080fd5b809150509250925092565b600181811c90821680620002a557607f821691505b60208210811415620002c757634e487b7160e01b600052602260045260246000fd5b50919050565b610b7e80620002dd6000396000f3fe608060405234801561001057600080fd5b50600436106100ea5760003560e01c806342966c681161008c578063a457c2d711610066578063a457c2d7146101d0578063a9059cbb146101e3578063dd62ed3e146101f6578063e29e49fb1461020957600080fd5b806342966c681461018c57806370a082311461019f57806395d89b41146101c857600080fd5b806323b872dd116100c857806323b872dd14610142578063313ce56714610155578063395093511461016457806340c10f191461017757600080fd5b806306fdde03146100ef578063095ea7b31461010d57806318160ddd14610130575b600080fd5b6100f7610234565b60405161010491906109a7565b60405180910390f35b61012061011b366004610a13565b6102c6565b6040519015158152602001610104565b6002545b604051908152602001610104565b610120610150366004610a3d565b6102de565b60405160128152602001610104565b610120610172366004610a13565b610302565b61018a610185366004610a13565b610324565b005b61012061019a366004610a79565b61033a565b6101346101ad366004610a92565b6001600160a01b031660009081526020819052604090205490565b6100f7610357565b6101206101de366004610a13565b610366565b6101206101f1366004610a13565b6103e6565b610134610204366004610ab4565b6103f4565b60055461021c906001600160a01b031681565b6040516001600160a01b039091168152602001610104565b60606003805461024390610ae7565b80601f016020809104026020016040519081016040528092919081815260200182805461026f90610ae7565b80156102bc5780601f10610291576101008083540402835291602001916102bc565b820191906000526020600020905b81548152906001019060200180831161029f57829003601f168201915b5050505050905090565b6000336102d481858561041f565b5060019392505050565b6000336102ec858285610544565b6102f78585856105be565b506001949350505050565b6000336102d481858561031583836103f4565b61031f9190610b22565b61041f565b61032c610762565b61033682826107be565b5050565b6000610344610762565b61034e338361087d565b5060015b919050565b60606004805461024390610ae7565b6000338161037482866103f4565b9050838110156103d95760405162461bcd60e51b815260206004820152602560248201527f45524332303a2064656372656173656420616c6c6f77616e63652062656c6f77604482015264207a65726f60d81b60648201526084015b60405180910390fd5b6102f7828686840361041f565b6000336102d48185856105be565b6001600160a01b03918216600090815260016020908152604080832093909416825291909152205490565b6001600160a01b0383166104815760405162461bcd60e51b8152602060048201526024808201527f45524332303a20617070726f76652066726f6d20746865207a65726f206164646044820152637265737360e01b60648201526084016103d0565b6001600160a01b0382166104e25760405162461bcd60e51b815260206004820152602260248201527f45524332303a20617070726f766520746f20746865207a65726f206164647265604482015261737360f01b60648201526084016103d0565b6001600160a01b0383811660008181526001602090815260408083209487168084529482529182902085905590518481527f8c5be1e5ebec7d5bd14f71427d1e84f3dd0314c0f7b2291e5b200ac8c7c3b92591015b60405180910390a3505050565b600061055084846103f4565b905060001981146105b857818110156105ab5760405162461bcd60e51b815260206004820152601d60248201527f45524332303a20696e73756666696369656e7420616c6c6f77616e636500000060448201526064016103d0565b6105b8848484840361041f565b50505050565b6001600160a01b0383166106225760405162461bcd60e51b815260206004820152602560248201527f45524332303a207472616e736665722066726f6d20746865207a65726f206164604482015264647265737360d81b60648201526084016103d0565b6001600160a01b0382166106845760405162461bcd60e51b815260206004820152602360248201527f45524332303a207472616e7366657220746f20746865207a65726f206164647260448201526265737360e81b60648201526084016103d0565b6001600160a01b038316600090815260208190526040902054818110156106fc5760405162461bcd60e51b815260206004820152602660248201527f45524332303a207472616e7366657220616d6f756e7420657863656564732062604482015265616c616e636560d01b60648201526084016103d0565b6001600160a01b03848116600081815260208181526040808320878703905593871680835291849020805487019055925185815290927fddf252ad1be2c89b69c2b068fc378daa952ba7f163c4a11628f55a4df523b3ef910160405180910390a36105b8565b6005546001600160a01b031633146107bc5760405162461bcd60e51b815260206004820152601a60248201527f424232303a204f6e6c79206772696e64657220616c6c6f77656400000000000060448201526064016103d0565b565b6001600160a01b0382166108145760405162461bcd60e51b815260206004820152601f60248201527f45524332303a206d696e7420746f20746865207a65726f20616464726573730060448201526064016103d0565b80600260008282546108269190610b22565b90915550506001600160a01b038216600081815260208181526040808320805486019055518481527fddf252ad1be2c89b69c2b068fc378daa952ba7f163c4a11628f55a4df523b3ef910160405180910390a35050565b6001600160a01b0382166108dd5760405162461bcd60e51b815260206004820152602160248201527f45524332303a206275726e2066726f6d20746865207a65726f206164647265736044820152607360f81b60648201526084016103d0565b6001600160a01b038216600090815260208190526040902054818110156109515760405162461bcd60e51b815260206004820152602260248201527f45524332303a206275726e20616d6f756e7420657863656564732062616c616e604482015261636560f01b60648201526084016103d0565b6001600160a01b0383166000818152602081815260408083208686039055600280548790039055518581529192917fddf252ad1be2c89b69c2b068fc378daa952ba7f163c4a11628f55a4df523b3ef9101610537565b600060208083528351808285015260005b818110156109d4578581018301518582016040015282016109b8565b818111156109e6576000604083870101525b50601f01601f1916929092016040019392505050565b80356001600160a01b038116811461035257600080fd5b60008060408385031215610a2657600080fd5b610a2f836109fc565b946020939093013593505050565b600080600060608486031215610a5257600080fd5b610a5b846109fc565b9250610a69602085016109fc565b9150604084013590509250925092565b600060208284031215610a8b57600080fd5b5035919050565b600060208284031215610aa457600080fd5b610aad826109fc565b9392505050565b60008060408385031215610ac757600080fd5b610ad0836109fc565b9150610ade602084016109fc565b90509250929050565b600181811c90821680610afb57607f821691505b60208210811415610b1c57634e487b7160e01b600052602260045260246000fd5b50919050565b60008219821115610b4357634e487b7160e01b600052601160045260246000fd5b50019056fea2646970667358221220f3a9feb8cb65bd08b82ed48a27e96c918b872df180318746a183aec9f1b99f2d64736f6c634300080b0033a2646970667358221220b2312808ed7688ecb283e23d9ba1f9ec5d269543755bd93d40e1c7b1e421ac3f64736f6c634300080b0033",
  "devdoc": {
    "kind": "dev",
    "methods": {
      "fractionalizeNFT(address,uint256)": {
        "params": {
          "_collectionAddress": "Address of NFT collection",
          "_tokenId": "Token Id of NFT to fractionalize"
        }
      },
      "getIds(address)": {
        "params": {
          "_collectionAddress": "Address of NFT collection"
        }
      },
      "getTokenFromCollection(address)": {
        "params": {
          "_collectionAddress": "Address of NFT collection"
        }
      },
      "owner()": {
        "details": "Returns the address of the current owner."
      },
      "reconstructNFT(address,uint256)": {
        "params": {
          "_collectionAddress": "Address of NFT collection",
          "_tokenId": "Token Id of NFT to reconstruct"
        }
      },
      "renounceOwnership()": {
        "details": "Leaves the contract without owner. It will not be possible to call `onlyOwner` functions anymore. Can only be called by the current owner. NOTE: Renouncing ownership will leave the contract without an owner, thereby removing any functionality that is only available to the owner."
      },
      "transferOwnership(address)": {
        "details": "Transfers ownership of the contract to a new account (`newOwner`). Can only be called by the current owner."
      },
      "whitelistNFT(address)": {
        "params": {
          "_collectionAddress": "Address of NFT collection"
        }
      }
    },
    "stateVariables": {
      "FRACTIONALISED_AMOUNT": {
        "details": "1 NFT = 1 million BB20 tokens"
      }
    },
    "title": "BluebirdGrinder - Contract to fractionalize NFTs into BB20 tokens",
    "version": 1
  },
  "userdoc": {
    "kind": "user",
    "methods": {
      "FRACTIONALISED_AMOUNT()": {
        "notice": "Amount of BB20 tokens to mint per NFT"
      },
      "fractionalizeNFT(address,uint256)": {
        "notice": "Function to fractionalize NFTs into BB20 tokens"
      },
      "getIds(address)": {
        "notice": "Function to get all token ids from collection address that are in the contract"
      },
      "getTokenFromCollection(address)": {
        "notice": "Function to get token address from collection address"
      },
      "nftAddressToTokenAddress(address)": {
        "notice": "Mapping of NFT collection address to BB20 token address"
      },
      "reconstructNFT(address,uint256)": {
        "notice": "Function to reconstruct NFTs from BB20 tokens"
      },
      "whitelistNFT(address)": {
        "notice": "Function to whitelist NFT collection"
      },
      "whitelisted(address)": {
        "notice": "Mapping of collection address to boolean to check if collection is whitelisted"
      }
    },
    "version": 1
  },
  "storageLayout": {
    "storage": [
      {
        "astId": 148,
        "contract": "contracts/BluebirdGrinder.sol:BluebirdGrinder",
        "label": "_owner",
        "offset": 0,
        "slot": "0",
        "type": "t_address"
      },
      {
        "astId": 1909,
        "contract": "contracts/BluebirdGrinder.sol:BluebirdGrinder",
        "label": "collectionToTokenIds",
        "offset": 0,
        "slot": "1",
        "type": "t_mapping(t_address,t_struct(UintSet)1657_storage)"
      },
      {
        "astId": 1915,
        "contract": "contracts/BluebirdGrinder.sol:BluebirdGrinder",
        "label": "nftAddressToTokenAddress",
        "offset": 0,
        "slot": "2",
        "type": "t_mapping(t_address,t_contract(BB20)1876)"
      },
      {
        "astId": 1920,
        "contract": "contracts/BluebirdGrinder.sol:BluebirdGrinder",
        "label": "whitelisted",
        "offset": 0,
        "slot": "3",
        "type": "t_mapping(t_address,t_bool)"
      }
    ],
    "types": {
      "t_address": {
        "encoding": "inplace",
        "label": "address",
        "numberOfBytes": "20"
      },
      "t_array(t_bytes32)dyn_storage": {
        "base": "t_bytes32",
        "encoding": "dynamic_array",
        "label": "bytes32[]",
        "numberOfBytes": "32"
      },
      "t_bool": {
        "encoding": "inplace",
        "label": "bool",
        "numberOfBytes": "1"
      },
      "t_bytes32": {
        "encoding": "inplace",
        "label": "bytes32",
        "numberOfBytes": "32"
      },
      "t_contract(BB20)1876": {
        "encoding": "inplace",
        "label": "contract BB20",
        "numberOfBytes": "20"
      },
      "t_mapping(t_address,t_bool)": {
        "encoding": "mapping",
        "key": "t_address",
        "label": "mapping(address => bool)",
        "numberOfBytes": "32",
        "value": "t_bool"
      },
      "t_mapping(t_address,t_contract(BB20)1876)": {
        "encoding": "mapping",
        "key": "t_address",
        "label": "mapping(address => contract BB20)",
        "numberOfBytes": "32",
        "value": "t_contract(BB20)1876"
      },
      "t_mapping(t_address,t_struct(UintSet)1657_storage)": {
        "encoding": "mapping",
        "key": "t_address",
        "label": "mapping(address => struct EnumerableSet.UintSet)",
        "numberOfBytes": "32",
        "value": "t_struct(UintSet)1657_storage"
      },
      "t_mapping(t_bytes32,t_uint256)": {
        "encoding": "mapping",
        "key": "t_bytes32",
        "label": "mapping(bytes32 => uint256)",
        "numberOfBytes": "32",
        "value": "t_uint256"
      },
      "t_struct(Set)1185_storage": {
        "encoding": "inplace",
        "label": "struct EnumerableSet.Set",
        "members": [
          {
            "astId": 1180,
            "contract": "contracts/BluebirdGrinder.sol:BluebirdGrinder",
            "label": "_values",
            "offset": 0,
            "slot": "0",
            "type": "t_array(t_bytes32)dyn_storage"
          },
          {
            "astId": 1184,
            "contract": "contracts/BluebirdGrinder.sol:BluebirdGrinder",
            "label": "_indexes",
            "offset": 0,
            "slot": "1",
            "type": "t_mapping(t_bytes32,t_uint256)"
          }
        ],
        "numberOfBytes": "64"
      },
      "t_struct(UintSet)1657_storage": {
        "encoding": "inplace",
        "label": "struct EnumerableSet.UintSet",
        "members": [
          {
            "astId": 1656,
            "contract": "contracts/BluebirdGrinder.sol:BluebirdGrinder",
            "label": "_inner",
            "offset": 0,
            "slot": "0",
            "type": "t_struct(Set)1185_storage"
          }
        ],
        "numberOfBytes": "64"
      },
      "t_uint256": {
        "encoding": "inplace",
        "label": "uint256",
        "numberOfBytes": "32"
      }
    }
  }
}