{
  "address": "0x71231BBda865651A86699D53FEF1A39B60bF0bf8",
  "abi": [
    {
      "inputs": [
        {
          "internalType": "contract AggregatorV3Interface",
          "name": "_nftFeed",
          "type": "address"
        },
        {
          "internalType": "contract IBB20",
          "name": "_nftToken",
          "type": "address"
        },
        {
          "internalType": "address",
          "name": "_bluebirdManager",
          "type": "address"
        },
        {
          "internalType": "contract IOptionPricing",
          "name": "_optionsPricing",
          "type": "address"
        },
        {
          "internalType": "address",
          "name": "_owner",
          "type": "address"
        }
      ],
      "stateMutability": "nonpayable",
      "type": "constructor"
    },
    {
      "anonymous": false,
      "inputs": [
        {
          "indexed": true,
          "internalType": "address",
          "name": "previousOwner",
          "type": "address"
        },
        {
          "indexed": true,
          "internalType": "address",
          "name": "newOwner",
          "type": "address"
        }
      ],
      "name": "OwnershipTransferred",
      "type": "event"
    },
    {
      "inputs": [],
      "name": "EXPIRY",
      "outputs": [
        {
          "internalType": "uint256",
          "name": "",
          "type": "uint256"
        }
      ],
      "stateMutability": "view",
      "type": "function"
    },
    {
      "inputs": [],
      "name": "bluebirdManager",
      "outputs": [
        {
          "internalType": "contract IBluebirdManager",
          "name": "",
          "type": "address"
        }
      ],
      "stateMutability": "view",
      "type": "function"
    },
    {
      "inputs": [
        {
          "internalType": "uint256",
          "name": "_id",
          "type": "uint256"
        },
        {
          "internalType": "uint256",
          "name": "_amount",
          "type": "uint256"
        }
      ],
      "name": "buy",
      "outputs": [],
      "stateMutability": "payable",
      "type": "function"
    },
    {
      "inputs": [
        {
          "internalType": "uint256",
          "name": "_id",
          "type": "uint256"
        }
      ],
      "name": "calculateAmountETH",
      "outputs": [
        {
          "internalType": "uint256",
          "name": "",
          "type": "uint256"
        }
      ],
      "stateMutability": "view",
      "type": "function"
    },
    {
      "inputs": [],
      "name": "currentId",
      "outputs": [
        {
          "internalType": "uint256",
          "name": "",
          "type": "uint256"
        }
      ],
      "stateMutability": "view",
      "type": "function"
    },
    {
      "inputs": [],
      "name": "depositETH",
      "outputs": [],
      "stateMutability": "payable",
      "type": "function"
    },
    {
      "inputs": [
        {
          "internalType": "uint256",
          "name": "amount",
          "type": "uint256"
        }
      ],
      "name": "depositNftToken",
      "outputs": [],
      "stateMutability": "nonpayable",
      "type": "function"
    },
    {
      "inputs": [],
      "name": "epoch",
      "outputs": [
        {
          "internalType": "uint256",
          "name": "",
          "type": "uint256"
        }
      ],
      "stateMutability": "view",
      "type": "function"
    },
    {
      "inputs": [
        {
          "internalType": "uint256",
          "name": "",
          "type": "uint256"
        },
        {
          "internalType": "bool",
          "name": "",
          "type": "bool"
        },
        {
          "internalType": "uint256",
          "name": "",
          "type": "uint256"
        }
      ],
      "name": "epochToStrikePrices",
      "outputs": [
        {
          "internalType": "uint256",
          "name": "",
          "type": "uint256"
        }
      ],
      "stateMutability": "view",
      "type": "function"
    },
    {
      "inputs": [
        {
          "internalType": "uint256",
          "name": "_id",
          "type": "uint256"
        }
      ],
      "name": "exercise",
      "outputs": [],
      "stateMutability": "payable",
      "type": "function"
    },
    {
      "inputs": [
        {
          "internalType": "address",
          "name": "",
          "type": "address"
        },
        {
          "internalType": "uint256",
          "name": "",
          "type": "uint256"
        }
      ],
      "name": "exercised",
      "outputs": [
        {
          "internalType": "bool",
          "name": "",
          "type": "bool"
        }
      ],
      "stateMutability": "view",
      "type": "function"
    },
    {
      "inputs": [],
      "name": "getHistoricalPrices",
      "outputs": [
        {
          "internalType": "uint256[]",
          "name": "",
          "type": "uint256[]"
        }
      ],
      "stateMutability": "view",
      "type": "function"
    },
    {
      "inputs": [],
      "name": "getNftPrice",
      "outputs": [
        {
          "internalType": "uint256",
          "name": "",
          "type": "uint256"
        }
      ],
      "stateMutability": "view",
      "type": "function"
    },
    {
      "inputs": [
        {
          "internalType": "uint256",
          "name": "_id",
          "type": "uint256"
        }
      ],
      "name": "getPremium",
      "outputs": [
        {
          "internalType": "uint256",
          "name": "",
          "type": "uint256"
        }
      ],
      "stateMutability": "view",
      "type": "function"
    },
    {
      "inputs": [
        {
          "internalType": "uint256",
          "name": "_epoch",
          "type": "uint256"
        },
        {
          "internalType": "bool",
          "name": "_isPut",
          "type": "bool"
        }
      ],
      "name": "getStrikes",
      "outputs": [
        {
          "internalType": "uint256[]",
          "name": "",
          "type": "uint256[]"
        }
      ],
      "stateMutability": "view",
      "type": "function"
    },
    {
      "inputs": [],
      "name": "liquidityProvidingTime",
      "outputs": [
        {
          "internalType": "uint256",
          "name": "",
          "type": "uint256"
        }
      ],
      "stateMutability": "view",
      "type": "function"
    },
    {
      "inputs": [],
      "name": "maxBuyCall",
      "outputs": [
        {
          "internalType": "uint256",
          "name": "",
          "type": "uint256"
        }
      ],
      "stateMutability": "view",
      "type": "function"
    },
    {
      "inputs": [],
      "name": "maxBuyPut",
      "outputs": [
        {
          "internalType": "uint256",
          "name": "",
          "type": "uint256"
        }
      ],
      "stateMutability": "view",
      "type": "function"
    },
    {
      "inputs": [
        {
          "internalType": "uint256",
          "name": "",
          "type": "uint256"
        }
      ],
      "name": "nftOpts",
      "outputs": [
        {
          "internalType": "uint256",
          "name": "strike",
          "type": "uint256"
        },
        {
          "internalType": "uint256",
          "name": "expiry",
          "type": "uint256"
        },
        {
          "internalType": "uint256",
          "name": "amount",
          "type": "uint256"
        },
        {
          "internalType": "bool",
          "name": "isPut",
          "type": "bool"
        }
      ],
      "stateMutability": "view",
      "type": "function"
    },
    {
      "inputs": [],
      "name": "nftToken",
      "outputs": [
        {
          "internalType": "contract IERC20",
          "name": "",
          "type": "address"
        }
      ],
      "stateMutability": "view",
      "type": "function"
    },
    {
      "inputs": [],
      "name": "optionPricing",
      "outputs": [
        {
          "internalType": "contract IOptionPricing",
          "name": "",
          "type": "address"
        }
      ],
      "stateMutability": "view",
      "type": "function"
    },
    {
      "inputs": [],
      "name": "owner",
      "outputs": [
        {
          "internalType": "address",
          "name": "",
          "type": "address"
        }
      ],
      "stateMutability": "view",
      "type": "function"
    },
    {
      "inputs": [],
      "name": "renounceOwnership",
      "outputs": [],
      "stateMutability": "nonpayable",
      "type": "function"
    },
    {
      "inputs": [
        {
          "internalType": "uint256",
          "name": "_expiry",
          "type": "uint256"
        }
      ],
      "name": "setExpiry",
      "outputs": [],
      "stateMutability": "nonpayable",
      "type": "function"
    },
    {
      "inputs": [
        {
          "internalType": "uint256",
          "name": "_liquidityProvidingTime",
          "type": "uint256"
        }
      ],
      "name": "setLiquidityProvidingTime",
      "outputs": [],
      "stateMutability": "nonpayable",
      "type": "function"
    },
    {
      "inputs": [],
      "name": "startTimeBuy",
      "outputs": [
        {
          "internalType": "uint256",
          "name": "",
          "type": "uint256"
        }
      ],
      "stateMutability": "view",
      "type": "function"
    },
    {
      "inputs": [],
      "name": "startTimeEpoch",
      "outputs": [
        {
          "internalType": "uint256",
          "name": "",
          "type": "uint256"
        }
      ],
      "stateMutability": "view",
      "type": "function"
    },
    {
      "inputs": [
        {
          "internalType": "address",
          "name": "newOwner",
          "type": "address"
        }
      ],
      "name": "transferOwnership",
      "outputs": [],
      "stateMutability": "nonpayable",
      "type": "function"
    },
    {
      "inputs": [
        {
          "internalType": "address",
          "name": "",
          "type": "address"
        },
        {
          "internalType": "uint256",
          "name": "",
          "type": "uint256"
        }
      ],
      "name": "userDeposits",
      "outputs": [
        {
          "internalType": "uint256",
          "name": "",
          "type": "uint256"
        }
      ],
      "stateMutability": "view",
      "type": "function"
    },
    {
      "inputs": [
        {
          "internalType": "address",
          "name": "",
          "type": "address"
        },
        {
          "internalType": "uint256",
          "name": "",
          "type": "uint256"
        }
      ],
      "name": "userToOptionIdToAmount",
      "outputs": [
        {
          "internalType": "uint256",
          "name": "",
          "type": "uint256"
        }
      ],
      "stateMutability": "view",
      "type": "function"
    },
    {
      "inputs": [],
      "name": "writeOption",
      "outputs": [],
      "stateMutability": "nonpayable",
      "type": "function"
    }
  ],
  "transactionHash": "0xe73e5342e925447b6e09682d7a1bcfea3fb08e5a2ab2dd446330fc2bf39e6939",
  "args": [
    "0x6860542E55Fb9292e4c8b478FcEec724d3351C2e",
    "0x6860542E55Fb9292e4c8b478FcEec724d3351C2e",
    "0x6860542E55Fb9292e4c8b478FcEec724d3351C2e",
    "0x6860542E55Fb9292e4c8b478FcEec724d3351C2e",
    "0x6860542E55Fb9292e4c8b478FcEec724d3351C2e"
  ],
  "numDeployments": 1,
  "solcInputHash": "19607e9e93c43b09707f9d37f6824513",
  "bytecode": "0x608060405261012c6006556078600a553480156200001c57600080fd5b5060405162002588380380620025888339810160408190526200003f91620001f9565b6200004a33620000b2565b60018055600280546001600160a01b038088166001600160a01b0319928316179092556003805487841690831617905560048054868416908316179055600580549285169290911691909117905542600855620000a78162000102565b505050505062000279565b600080546001600160a01b038381166001600160a01b0319831681178455604051919092169283917f8be0079c531659141344cd1fd0a4f28419497f9722a3daafe3b4186f6b6457e09190a35050565b6200010c62000185565b6001600160a01b038116620001775760405162461bcd60e51b815260206004820152602660248201527f4f776e61626c653a206e6577206f776e657220697320746865207a65726f206160448201526564647265737360d01b60648201526084015b60405180910390fd5b6200018281620000b2565b50565b6000546001600160a01b03163314620001e15760405162461bcd60e51b815260206004820181905260248201527f4f776e61626c653a2063616c6c6572206973206e6f7420746865206f776e657260448201526064016200016e565b565b6001600160a01b03811681146200018257600080fd5b600080600080600060a086880312156200021257600080fd5b85516200021f81620001e3565b60208701519095506200023281620001e3565b60408701519094506200024581620001e3565b60608701519093506200025881620001e3565b60808701519092506200026b81620001e3565b809150509295509295909350565b6122ff80620002896000396000f3fe6080604052600436106101d85760003560e01c80636053937b11610102578063c0c2e53a11610095578063d6febde811610064578063d6febde814610598578063e00dd161146105ab578063f2fde38b146105c1578063f6326fb3146105e157600080fd5b8063c0c2e53a146104e0578063c49127741461052b578063cfbdfc5f14610540578063d06fcba81461057857600080fd5b8063b07f0a41116100d1578063b07f0a4114610477578063b28d916a1461048a578063b49631e9146104a0578063bdf82a22146104c057600080fd5b80636053937b14610418578063715018a61461042e5780638da5cb5b14610443578063900cf0cf1461046157600080fd5b80631e3394fb1161017a5780634530a2d7116101495780634530a2d7146103b75780634c61670d146103cd5780634cfe6f93146103ed5780635e4db5fd1461040257600080fd5b80631e3394fb146102d55780631f93d1b31461030d57806333b521a6146103235780633d1682941461038a57600080fd5b806308f43333116101b657806308f433331461024857806310a64fc414610280578063110bd49b146102955780631bf1fffb146102b557600080fd5b806301cceb38146101dd578063039ea00a146101ff5780630899b14114610228575b600080fd5b3480156101e957600080fd5b506101fd6101f8366004611f4f565b6105e9565b005b34801561020b57600080fd5b5061021560075481565b6040519081526020015b60405180910390f35b34801561023457600080fd5b506101fd610243366004611f4f565b6105f6565b34801561025457600080fd5b50610215610263366004611f84565b600e60209081526000928352604080842090915290825290205481565b34801561028c57600080fd5b506101fd610603565b3480156102a157600080fd5b506102156102b0366004611fbc565b6109b1565b3480156102c157600080fd5b506102156102d0366004611f4f565b6109ef565b3480156102e157600080fd5b506005546102f5906001600160a01b031681565b6040516001600160a01b03909116815260200161021f565b34801561031957600080fd5b5061021560085481565b34801561032f57600080fd5b5061036861033e366004611f4f565b600f6020526000908152604090208054600182015460028301546003909301549192909160ff1684565b604080519485526020850193909352918301521515606082015260800161021f565b34801561039657600080fd5b506103aa6103a5366004611ff4565b610ada565b60405161021f9190612024565b3480156103c357600080fd5b5061021560065481565b3480156103d957600080fd5b506101fd6103e8366004611f4f565b610b48565b3480156103f957600080fd5b506103aa610ca9565b34801561040e57600080fd5b50610215600d5481565b34801561042457600080fd5b50610215600c5481565b34801561043a57600080fd5b506101fd610e5d565b34801561044f57600080fd5b506000546001600160a01b03166102f5565b34801561046d57600080fd5b5061021560095481565b6101fd610485366004611f4f565b610e71565b34801561049657600080fd5b50610215600a5481565b3480156104ac57600080fd5b506004546102f5906001600160a01b031681565b3480156104cc57600080fd5b506102156104db366004611f4f565b6113d8565b3480156104ec57600080fd5b5061051b6104fb366004611f84565b601160209081526000928352604080842090915290825290205460ff1681565b604051901515815260200161021f565b34801561053757600080fd5b50610215611405565b34801561054c57600080fd5b5061021561055b366004611f84565b601060209081526000928352604080842090915290825290205481565b34801561058457600080fd5b506003546102f5906001600160a01b031681565b6101fd6105a6366004612068565b61148a565b3480156105b757600080fd5b50610215600b5481565b3480156105cd57600080fd5b506101fd6105dc36600461208a565b611988565b6101fd6119fe565b6105f1611ad1565b600655565b6105fe611ad1565b600a55565b61060b611ad1565b426007556000610619611405565b9050600061062a620f4240836120bb565b90506000610639826000611b2b565b90506000610648836001611b2b565b9050600042905060006003600c5461066091906120bb565b905060006003600d5461067391906120bb565b905060005b855181101561093057604051806080016040528087838151811061069e5761069e6120dd565b60200260200101518152602001600654866106b991906120f3565b8152602080820186905260006040928301819052600b548152600f8252829020835181559083015160018201558282015160028201556060909201516003909201805460ff19169215159290921790915580516080810190915285518190879084908110610729576107296120dd565b602002602001015181526020016006548661074491906120f3565b815260200183815260200160011515815250600f6000600b54600161076991906120f3565b815260208082019290925260409081016000208351815591830151600183015582015160028201556060909101516003918201805460ff1916911515919091179055600454600b54600954925489516001600160a01b0393841694631646879f9430949391929116908c90889081106107e4576107e46120dd565b60200260200101518a6006548c6107fb91906120f3565b6040518863ffffffff1660e01b815260040161081d979695949392919061210b565b600060405180830381600087803b15801561083757600080fd5b505af115801561084b573d6000803e3d6000fd5b5050600454600b546001600160a01b0390911692506358c41cc3915030906108749060016120f3565b6009546003548b516001600160a01b03909116908c908890811061089a5761089a6120dd565b60200260200101518a6006548c6108b191906120f3565b6040518863ffffffff1660e01b81526004016108d3979695949392919061210b565b600060405180830381600087803b1580156108ed57600080fd5b505af1158015610901573d6000803e3d6000fd5b505050506002600b600082825461091891906120f3565b909155508190506109288161214f565b915050610678565b5060016009600082825461094491906120f3565b909155505060095460009081526012602090815260408083208380528252909120865161097392880190611eef565b506009546000908152601260209081526040808320600184528252909120855161099f92870190611eef565b506109a8611c99565b50505050505050565b601260205282600052604060002060205281600052604060002081815481106109d957600080fd5b9060005260206000200160009250925050505481565b6000806109fa611405565b90506000610a0b620f4240836120bb565b90506000610a17610ca9565b90506000610a2482611ccd565b6005546000888152600f6020526040908190206003810154600182015491549251630b6f6db160e31b815260ff909116151560048201526024810191909152604481019190915260648101869052608481018390529192506001600160a01b031690635b7b6d889060a401602060405180830381865afa158015610aac573d6000803e3d6000fd5b505050506040513d601f19601f82011682018060405250810190610ad0919061216a565b9695505050505050565b60008281526012602090815260408083208415158452825291829020805483518184028101840190945280845260609392830182828015610b3a57602002820191906000526020600020905b815481526020019060010190808311610b26575b505050505090505b92915050565b610b50611df5565b600a54600854610b6091906120f3565b4210610b875760405162461bcd60e51b8152600401610b7e90612183565b60405180910390fd5b6003546040516323b872dd60e01b8152336004820152306024820152604481018390526001600160a01b03909116906323b872dd906064016020604051808303816000875af1158015610bde573d6000803e3d6000fd5b505050506040513d601f19601f82011682018060405250810190610c0291906121c5565b610c595760405162461bcd60e51b815260206004820152602260248201527f496e636f727265637420616d6f756e74206f66204e465420546f6b656e2073656044820152611b9d60f21b6064820152608401610b7e565b80600c6000828254610c6b91906120f3565b9091555050336000908152600e6020908152604080832083805290915281208054839290610c9a9084906120f3565b90915550506001805550565b50565b6040805160078082526101008201909252606091600091906020820160e080368337019050509050600080600260009054906101000a90046001600160a01b03166001600160a01b031663feaf968c6040518163ffffffff1660e01b815260040160a060405180830381865afa158015610d27573d6000803e3d6000fd5b505050506040513d601f19601f82011682018060405250810190610d4b91906121fc565b505050915091508083600081518110610d6657610d666120dd565b602090810291909101015260015b6007811015610e54576002546000906001600160a01b0316639a6fc8f5610d9c84601861224c565b610db29069ffffffffffffffffffff881661226b565b6040516001600160e01b031960e084901b16815269ffffffffffffffffffff909116600482015260240160a060405180830381865afa158015610df9573d6000803e3d6000fd5b505050506040513d601f19601f82011682018060405250810190610e1d91906121fc565b50505091505080858381518110610e3657610e366120dd565b60209081029190910101525080610e4c8161214f565b915050610d74565b50919392505050565b610e65611ad1565b610e6f6000611e4f565b565b336000908152601060209081526040808320848452909152902054610ed85760405162461bcd60e51b815260206004820152601a60248201527f596f7520646f206e6f74206f776e2074686973206f7074696f6e0000000000006044820152606401610b7e565b33600090815260116020908152604080832084845290915290205460ff1615610f4d5760405162461bcd60e51b815260206004820152602160248201527f4f7074696f6e2068617320616c7265616479206265656e2065786572636973656044820152601960fa1b6064820152608401610b7e565b6000818152600f60205260409020600101544211610fa55760405162461bcd60e51b815260206004820152601560248201527413dc1d1a5bdb881a5cc81b9bdd08195e1c1a5c9959605a1b6044820152606401610b7e565b6000620f4240610fb3611405565b610fbd91906120bb565b6000838152600f602052604081206003015491925090819060ff1661117e576000848152600f602052604090205483111561117957506001610ffe846113d8565b91508134146110655760405162461bcd60e51b815260206004820152602d60248201527f496e636f727265637420616d6f756e74206f66204554482073656e7420746f2060448201526c313abc9027232a102a37b5b2b760991b6064820152608401610b7e565b6003543360008181526010602090815260408083208984529091529020546001600160a01b039092169163a9059cbb91906110a890670de0b6b3a764000061224c565b6040516001600160e01b031960e085901b1681526001600160a01b03909216600483015260248201526044016020604051808303816000875af11580156110f3573d6000803e3d6000fd5b505050506040513d601f19601f8201168201806040525081019061111791906121c5565b6111795760405162461bcd60e51b815260206004820152602d60248201527f496e73756666696369656e7420616d6f756e74206f66204e465420546f6b656e60448201526c1039b2b73a103a37903ab9b2b960991b6064820152608401610b7e565b611330565b6000848152600f6020526040902054831015611330575060016111a0846113d8565b6003543360008181526010602090815260408083208a84529091529020549294506001600160a01b03909116916323b872dd919030906111e890670de0b6b3a764000061224c565b6040516001600160e01b031960e086901b1681526001600160a01b03938416600482015292909116602483015260448201526064016020604051808303816000875af115801561123c573d6000803e3d6000fd5b505050506040513d601f19601f8201168201806040525081019061126091906121c5565b6112c65760405162461bcd60e51b815260206004820152603160248201527f496e73756666696369656e7420616d6f756e74206f66204e465420546f6b656e604482015270081cd95b9d081d1bc81c1c9bdd1bd8dbdb607a1b6064820152608401610b7e565b604051600090339084908381818185875af1925050503d8060008114611308576040519150601f19603f3d011682016040523d82523d6000602084013e61130d565b606091505b505090508061132e5760405162461bcd60e51b8152600401610b7e90612282565b505b33600081815260116020908152604080832088845290915290819020805460ff1916600117905560048054915163c690579760e01b815230918101919091526024810192909252604482018690526064820184905282151560848301526001600160a01b03169063c69057979060a401600060405180830381600087803b1580156113ba57600080fd5b505af11580156113ce573d6000803e3d6000fd5b5050505050505050565b336000908152601060209081526040808320848452825280832054600f909252822054610b42919061224c565b600080600260009054906101000a90046001600160a01b03166001600160a01b031663feaf968c6040518163ffffffff1660e01b815260040160a060405180830381865afa15801561145b573d6000803e3d6000fd5b505050506040513d601f19601f8201168201806040525081019061147f91906121fc565b509195945050505050565b611492611df5565b6000828152600f602052604090206001015442106115015760405162461bcd60e51b815260206004820152602660248201527f4f7074696f6e206973206578706972656420616e642063616e6e6f7420626520604482015265189bdd59da1d60d21b6064820152608401610b7e565b6000828152600f602052604090206003015460ff16801561158457600d548211156115675760405162461bcd60e51b8152602060048201526016602482015275416d6f756e742065786365656473206d61782062757960501b6044820152606401610b7e565b81600d6000828254611579919061226b565b909155506115e79050565b600c548211156115cf5760405162461bcd60e51b8152602060048201526016602482015275416d6f756e742065786365656473206d61782062757960501b6044820152606401610b7e565b81600c60008282546115e1919061226b565b90915550505b6000620f42406115f5611405565b6115ff91906120bb565b6000858152600f60205260408120600101549192508061161d610ca9565b9050600061162a82611ccd565b6000898152600f602052604090205490915086156116d257600554604051630b6f6db160e31b815260016004820152602481018790526044810183905260648101889052608481018490526001600160a01b0390911690635b7b6d889060a401602060405180830381865afa1580156116a7573d6000803e3d6000fd5b505050506040513d601f19601f820116820180604052508101906116cb919061216a565b935061175e565b600554604051630b6f6db160e31b815260006004820152602481018790526044810183905260648101889052608481018490526001600160a01b0390911690635b7b6d889060a401602060405180830381865afa158015611737573d6000803e3d6000fd5b505050506040513d601f19601f8201168201806040525081019061175b919061216a565b93505b611770670de0b6b3a7640000896120bb565b3360009081526010602090815260408083208d84529091528120805490919061179a9084906120f3565b90915550600090506117ac87866120bb565b6003546040516323b872dd60e01b8152336004820152306024820152604481018390529192506001600160a01b0316906323b872dd906064016020604051808303816000875af1158015611804573d6000803e3d6000fd5b505050506040513d601f19601f8201168201806040525081019061182891906121c5565b61186d5760405162461bcd60e51b8152602060048201526016602482015275141c995b5a5d5b481c185e5b595b9d0819985a5b195960521b6044820152606401610b7e565b6000611879863461226b565b905080156118eb57604051600090339083908381818185875af1925050503d80600081146118c3576040519150601f19603f3d011682016040523d82523d6000602084013e6118c8565b606091505b50509050806118e95760405162461bcd60e51b8152600401610b7e90612282565b505b600480546009546040516307f7059560e51b81523093810193909352336024840152604483018e9052606483018d9052608483018990524260a484015260c48301526001600160a01b03169063fee0b2a09060e401600060405180830381600087803b15801561195a57600080fd5b505af115801561196e573d6000803e3d6000fd5b5050505050505050505050505061198460018055565b5050565b611990611ad1565b6001600160a01b0381166119f55760405162461bcd60e51b815260206004820152602660248201527f4f776e61626c653a206e6577206f776e657220697320746865207a65726f206160448201526564647265737360d01b6064820152608401610b7e565b610ca681611e4f565b611a06611df5565b600a54600854611a1691906120f3565b4210611a345760405162461bcd60e51b8152600401610b7e90612183565b60003411611a845760405162461bcd60e51b815260206004820152601c60248201527f496e636f727265637420616d6f756e74206f66204554482073656e74000000006044820152606401610b7e565b34600d6000828254611a9691906120f3565b9091555050336000908152600e602090815260408083206001845290915281208054349290611ac69084906120f3565b909155505060018055565b6000546001600160a01b03163314610e6f5760405162461bcd60e51b815260206004820181905260248201527f4f776e61626c653a2063616c6c6572206973206e6f7420746865206f776e65726044820152606401610b7e565b60408051600380825260808201909252606091600091906020820184803683370190505090508215611bf757611b62600a856120bb565b611b6c908561226b565b81600081518110611b7f57611b7f6120dd565b6020908102919091010152611b956005856120bb565b611b9f908561226b565b81600181518110611bb257611bb26120dd565b6020908102919091010152611bc86003856120bb565b611bd2908561226b565b81600281518110611be557611be56120dd565b60209081029190910101529050610b42565b611c02600a856120bb565b611c0c90856120f3565b81600081518110611c1f57611c1f6120dd565b6020908102919091010152611c356005856120bb565b611c3f90856120f3565b81600181518110611c5257611c526120dd565b6020908102919091010152611c686003856120bb565b611c7290856120f3565b81600281518110611c8557611c856120dd565b6020026020010181815250505b9392505050565b600a54600854611ca991906120f3565b4211611cc75760405162461bcd60e51b8152600401610b7e90612183565b42600855565b805160009081805b82811015611d1657848181518110611cef57611cef6120dd565b602002602001015182611d0291906120f3565b915080611d0e8161214f565b915050611cd5565b50611d2182826120bb565b90506000805b83811015611dd057600083878381518110611d4457611d446120dd565b60200260200101511115611d7e5783878381518110611d6557611d656120dd565b6020026020010151611d77919061226b565b9050611da6565b868281518110611d9057611d906120dd565b602002602001015184611da3919061226b565b90505b611db0818061224c565b611dba90846120f3565b9250508080611dc89061214f565b915050611d27565b506000611ddd84836120bb565b90506000611dea82611e9f565b979650505050505050565b60026001541415611e485760405162461bcd60e51b815260206004820152601f60248201527f5265656e7472616e637947756172643a207265656e7472616e742063616c6c006044820152606401610b7e565b6002600155565b600080546001600160a01b038381166001600160a01b0319831681178455604051919092169283917f8be0079c531659141344cd1fd0a4f28419497f9722a3daafe3b4186f6b6457e09190a35050565b6000806002611eaf8460016120f3565b611eb991906120bb565b9050825b80821015611c92575080600281611ed481876120bb565b611ede91906120f3565b611ee891906120bb565b9150611ebd565b828054828255906000526020600020908101928215611f2a579160200282015b82811115611f2a578251825591602001919060010190611f0f565b50611f36929150611f3a565b5090565b5b80821115611f365760008155600101611f3b565b600060208284031215611f6157600080fd5b5035919050565b80356001600160a01b0381168114611f7f57600080fd5b919050565b60008060408385031215611f9757600080fd5b611fa083611f68565b946020939093013593505050565b8015158114610ca657600080fd5b600080600060608486031215611fd157600080fd5b833592506020840135611fe381611fae565b929592945050506040919091013590565b6000806040838503121561200757600080fd5b82359150602083013561201981611fae565b809150509250929050565b6020808252825182820181905260009190848201906040850190845b8181101561205c57835183529284019291840191600101612040565b50909695505050505050565b6000806040838503121561207b57600080fd5b50508035926020909101359150565b60006020828403121561209c57600080fd5b611c9282611f68565b634e487b7160e01b600052601160045260246000fd5b6000826120d857634e487b7160e01b600052601260045260246000fd5b500490565b634e487b7160e01b600052603260045260246000fd5b60008219821115612106576121066120a5565b500190565b6001600160a01b03978816815260208101969096526040860194909452919094166060840152608083019390935260a082019290925260c081019190915260e00190565b6000600019821415612163576121636120a5565b5060010190565b60006020828403121561217c57600080fd5b5051919050565b60208082526022908201527f4c69717569646974792070726f766964696e672074696d652068617320656e64604082015261195960f21b606082015260800190565b6000602082840312156121d757600080fd5b8151611c9281611fae565b805169ffffffffffffffffffff81168114611f7f57600080fd5b600080600080600060a0868803121561221457600080fd5b61221d866121e2565b9450602086015193506040860151925060608601519150612240608087016121e2565b90509295509295909350565b6000816000190483118215151615612266576122666120a5565b500290565b60008282101561227d5761227d6120a5565b500390565b60208082526027908201527f496e73756666696369656e7420616d6f756e74206f66204554482073656e74206040820152663a37903ab9b2b960c91b60608201526080019056fea2646970667358221220f7d0333185d68b9fec0f91d8040d02107738580a8dfed643a4a365fb548dec6c64736f6c634300080b0033",
  "devdoc": {
    "kind": "dev",
    "methods": {
      "buy(uint256,uint256)": {
        "params": {
          "_amount": "Amount of options to buy",
          "_id": "Index of the option"
        }
      },
      "calculateAmountETH(uint256)": {
        "params": {
          "_id": "Index of the option"
        },
        "returns": {
          "_0": "Amount of ETH to be received"
        }
      },
      "depositNftToken(uint256)": {
        "params": {
          "amount": "Amount of NFT tokens to deposit"
        }
      },
      "exercise(uint256)": {
        "params": {
          "_id": "Id of option to exercise"
        }
      },
      "getHistoricalPrices()": {
        "returns": {
          "_0": "historical prices of NFT"
        }
      },
      "getNftPrice()": {
        "returns": {
          "_0": "Price of NFT"
        }
      },
      "getPremium(uint256)": {
        "params": {
          "_id": "Id of contract"
        }
      },
      "getStrikes(uint256,bool)": {
        "returns": {
          "_0": "uint256[] memory Array of strike prices"
        }
      },
      "owner()": {
        "details": "Returns the address of the current owner."
      },
      "renounceOwnership()": {
        "details": "Leaves the contract without owner. It will not be possible to call `onlyOwner` functions anymore. Can only be called by the current owner. NOTE: Renouncing ownership will leave the contract without an owner, thereby removing any functionality that is only available to the owner."
      },
      "setExpiry(uint256)": {
        "params": {
          "_expiry": "Expiry of options"
        }
      },
      "setLiquidityProvidingTime(uint256)": {
        "params": {
          "_liquidityProvidingTime": "Time to provide liquidity"
        }
      },
      "transferOwnership(address)": {
        "details": "Transfers ownership of the contract to a new account (`newOwner`). Can only be called by the current owner."
      },
      "writeOption()": {
        "details": "Only owner/controller should be able to trigger this"
      }
    },
    "version": 1
  },
  "userdoc": {
    "kind": "user",
    "methods": {
      "buy(uint256,uint256)": {
        "notice": "Buy an option based on `_id`"
      },
      "calculateAmountETH(uint256)": {
        "notice": "Calculate amount of ETH to be received when exercising an option"
      },
      "depositETH()": {
        "notice": "Provide liquidity by depositing ETH"
      },
      "depositNftToken(uint256)": {
        "notice": "Provide liquidity by depositing NFT tokens"
      },
      "exercise(uint256)": {
        "notice": "Exercise an option based on `_id`"
      },
      "getHistoricalPrices()": {
        "notice": "Returns the historical prices of NFT"
      },
      "getNftPrice()": {
        "notice": "Returns the price of NFT from oracle"
      },
      "getPremium(uint256)": {
        "notice": "Get premium of an option"
      },
      "getStrikes(uint256,bool)": {
        "notice": "Returns the strike prices of an epoch"
      },
      "setExpiry(uint256)": {
        "notice": "Set expiry"
      },
      "setLiquidityProvidingTime(uint256)": {
        "notice": "Set liquidity providing time"
      },
      "writeOption()": {
        "notice": "Writes options"
      }
    },
    "version": 1
  },
  "storageLayout": {
    "storage": [
      {
        "astId": 148,
        "contract": "contracts/BluebirdOptions.sol:BluebirdOptions",
        "label": "_owner",
        "offset": 0,
        "slot": "0",
        "type": "t_address"
      },
      {
        "astId": 264,
        "contract": "contracts/BluebirdOptions.sol:BluebirdOptions",
        "label": "_status",
        "offset": 0,
        "slot": "1",
        "type": "t_uint256"
      },
      {
        "astId": 2139,
        "contract": "contracts/BluebirdOptions.sol:BluebirdOptions",
        "label": "nftFeed",
        "offset": 0,
        "slot": "2",
        "type": "t_contract(AggregatorV3Interface)45"
      },
      {
        "astId": 2142,
        "contract": "contracts/BluebirdOptions.sol:BluebirdOptions",
        "label": "nftToken",
        "offset": 0,
        "slot": "3",
        "type": "t_contract(IERC20)972"
      },
      {
        "astId": 2145,
        "contract": "contracts/BluebirdOptions.sol:BluebirdOptions",
        "label": "bluebirdManager",
        "offset": 0,
        "slot": "4",
        "type": "t_contract(IBluebirdManager)3446"
      },
      {
        "astId": 2148,
        "contract": "contracts/BluebirdOptions.sol:BluebirdOptions",
        "label": "optionPricing",
        "offset": 0,
        "slot": "5",
        "type": "t_contract(IOptionPricing)3510"
      },
      {
        "astId": 2151,
        "contract": "contracts/BluebirdOptions.sol:BluebirdOptions",
        "label": "EXPIRY",
        "offset": 0,
        "slot": "6",
        "type": "t_uint256"
      },
      {
        "astId": 2153,
        "contract": "contracts/BluebirdOptions.sol:BluebirdOptions",
        "label": "startTimeBuy",
        "offset": 0,
        "slot": "7",
        "type": "t_uint256"
      },
      {
        "astId": 2155,
        "contract": "contracts/BluebirdOptions.sol:BluebirdOptions",
        "label": "startTimeEpoch",
        "offset": 0,
        "slot": "8",
        "type": "t_uint256"
      },
      {
        "astId": 2157,
        "contract": "contracts/BluebirdOptions.sol:BluebirdOptions",
        "label": "epoch",
        "offset": 0,
        "slot": "9",
        "type": "t_uint256"
      },
      {
        "astId": 2160,
        "contract": "contracts/BluebirdOptions.sol:BluebirdOptions",
        "label": "liquidityProvidingTime",
        "offset": 0,
        "slot": "10",
        "type": "t_uint256"
      },
      {
        "astId": 2162,
        "contract": "contracts/BluebirdOptions.sol:BluebirdOptions",
        "label": "currentId",
        "offset": 0,
        "slot": "11",
        "type": "t_uint256"
      },
      {
        "astId": 2164,
        "contract": "contracts/BluebirdOptions.sol:BluebirdOptions",
        "label": "maxBuyCall",
        "offset": 0,
        "slot": "12",
        "type": "t_uint256"
      },
      {
        "astId": 2166,
        "contract": "contracts/BluebirdOptions.sol:BluebirdOptions",
        "label": "maxBuyPut",
        "offset": 0,
        "slot": "13",
        "type": "t_uint256"
      },
      {
        "astId": 2172,
        "contract": "contracts/BluebirdOptions.sol:BluebirdOptions",
        "label": "userDeposits",
        "offset": 0,
        "slot": "14",
        "type": "t_mapping(t_address,t_mapping(t_uint256,t_uint256))"
      },
      {
        "astId": 2177,
        "contract": "contracts/BluebirdOptions.sol:BluebirdOptions",
        "label": "nftOpts",
        "offset": 0,
        "slot": "15",
        "type": "t_mapping(t_uint256,t_struct(Option)3458_storage)"
      },
      {
        "astId": 2183,
        "contract": "contracts/BluebirdOptions.sol:BluebirdOptions",
        "label": "userToOptionIdToAmount",
        "offset": 0,
        "slot": "16",
        "type": "t_mapping(t_address,t_mapping(t_uint256,t_uint256))"
      },
      {
        "astId": 2189,
        "contract": "contracts/BluebirdOptions.sol:BluebirdOptions",
        "label": "exercised",
        "offset": 0,
        "slot": "17",
        "type": "t_mapping(t_address,t_mapping(t_uint256,t_bool))"
      },
      {
        "astId": 2196,
        "contract": "contracts/BluebirdOptions.sol:BluebirdOptions",
        "label": "epochToStrikePrices",
        "offset": 0,
        "slot": "18",
        "type": "t_mapping(t_uint256,t_mapping(t_bool,t_array(t_uint256)dyn_storage))"
      }
    ],
    "types": {
      "t_address": {
        "encoding": "inplace",
        "label": "address",
        "numberOfBytes": "20"
      },
      "t_array(t_uint256)dyn_storage": {
        "base": "t_uint256",
        "encoding": "dynamic_array",
        "label": "uint256[]",
        "numberOfBytes": "32"
      },
      "t_bool": {
        "encoding": "inplace",
        "label": "bool",
        "numberOfBytes": "1"
      },
      "t_contract(AggregatorV3Interface)45": {
        "encoding": "inplace",
        "label": "contract AggregatorV3Interface",
        "numberOfBytes": "20"
      },
      "t_contract(IBluebirdManager)3446": {
        "encoding": "inplace",
        "label": "contract IBluebirdManager",
        "numberOfBytes": "20"
      },
      "t_contract(IERC20)972": {
        "encoding": "inplace",
        "label": "contract IERC20",
        "numberOfBytes": "20"
      },
      "t_contract(IOptionPricing)3510": {
        "encoding": "inplace",
        "label": "contract IOptionPricing",
        "numberOfBytes": "20"
      },
      "t_mapping(t_address,t_mapping(t_uint256,t_bool))": {
        "encoding": "mapping",
        "key": "t_address",
        "label": "mapping(address => mapping(uint256 => bool))",
        "numberOfBytes": "32",
        "value": "t_mapping(t_uint256,t_bool)"
      },
      "t_mapping(t_address,t_mapping(t_uint256,t_uint256))": {
        "encoding": "mapping",
        "key": "t_address",
        "label": "mapping(address => mapping(uint256 => uint256))",
        "numberOfBytes": "32",
        "value": "t_mapping(t_uint256,t_uint256)"
      },
      "t_mapping(t_bool,t_array(t_uint256)dyn_storage)": {
        "encoding": "mapping",
        "key": "t_bool",
        "label": "mapping(bool => uint256[])",
        "numberOfBytes": "32",
        "value": "t_array(t_uint256)dyn_storage"
      },
      "t_mapping(t_uint256,t_bool)": {
        "encoding": "mapping",
        "key": "t_uint256",
        "label": "mapping(uint256 => bool)",
        "numberOfBytes": "32",
        "value": "t_bool"
      },
      "t_mapping(t_uint256,t_mapping(t_bool,t_array(t_uint256)dyn_storage))": {
        "encoding": "mapping",
        "key": "t_uint256",
        "label": "mapping(uint256 => mapping(bool => uint256[]))",
        "numberOfBytes": "32",
        "value": "t_mapping(t_bool,t_array(t_uint256)dyn_storage)"
      },
      "t_mapping(t_uint256,t_struct(Option)3458_storage)": {
        "encoding": "mapping",
        "key": "t_uint256",
        "label": "mapping(uint256 => struct IBluebirdOptions.Option)",
        "numberOfBytes": "32",
        "value": "t_struct(Option)3458_storage"
      },
      "t_mapping(t_uint256,t_uint256)": {
        "encoding": "mapping",
        "key": "t_uint256",
        "label": "mapping(uint256 => uint256)",
        "numberOfBytes": "32",
        "value": "t_uint256"
      },
      "t_struct(Option)3458_storage": {
        "encoding": "inplace",
        "label": "struct IBluebirdOptions.Option",
        "members": [
          {
            "astId": 3451,
            "contract": "contracts/BluebirdOptions.sol:BluebirdOptions",
            "label": "strike",
            "offset": 0,
            "slot": "0",
            "type": "t_uint256"
          },
          {
            "astId": 3453,
            "contract": "contracts/BluebirdOptions.sol:BluebirdOptions",
            "label": "expiry",
            "offset": 0,
            "slot": "1",
            "type": "t_uint256"
          },
          {
            "astId": 3455,
            "contract": "contracts/BluebirdOptions.sol:BluebirdOptions",
            "label": "amount",
            "offset": 0,
            "slot": "2",
            "type": "t_uint256"
          },
          {
            "astId": 3457,
            "contract": "contracts/BluebirdOptions.sol:BluebirdOptions",
            "label": "isPut",
            "offset": 0,
            "slot": "3",
            "type": "t_bool"
          }
        ],
        "numberOfBytes": "128"
      },
      "t_uint256": {
        "encoding": "inplace",
        "label": "uint256",
        "numberOfBytes": "32"
      }
    }
  }
}