{
  "address": "0x30940E9129512fee87b847E8630F81712Cb4a225",
  "abi": [
    {
      "inputs": [
        {
          "internalType": "contract IOptionPricing",
          "name": "_optionPricing",
          "type": "address"
        },
        {
          "internalType": "contract IBluebirdGrinder",
          "name": "_grinder",
          "type": "address"
        }
      ],
      "stateMutability": "nonpayable",
      "type": "constructor"
    },
    {
      "anonymous": false,
      "inputs": [
        {
          "indexed": true,
          "internalType": "address",
          "name": "_contractAddress",
          "type": "address"
        },
        {
          "indexed": true,
          "internalType": "address",
          "name": "_user",
          "type": "address"
        },
        {
          "indexed": true,
          "internalType": "uint256",
          "name": "_optionId",
          "type": "uint256"
        },
        {
          "indexed": false,
          "internalType": "uint256",
          "name": "_amount",
          "type": "uint256"
        },
        {
          "indexed": false,
          "internalType": "uint256",
          "name": "_premium",
          "type": "uint256"
        },
        {
          "indexed": false,
          "internalType": "uint256",
          "name": "_timestamp",
          "type": "uint256"
        },
        {
          "indexed": false,
          "internalType": "uint256",
          "name": "_epoch",
          "type": "uint256"
        }
      ],
      "name": "Bought",
      "type": "event"
    },
    {
      "anonymous": false,
      "inputs": [
        {
          "indexed": true,
          "internalType": "address",
          "name": "_contractAddress",
          "type": "address"
        },
        {
          "indexed": true,
          "internalType": "uint256",
          "name": "_optionId",
          "type": "uint256"
        },
        {
          "indexed": false,
          "internalType": "uint256",
          "name": "_epoch",
          "type": "uint256"
        },
        {
          "indexed": false,
          "internalType": "address",
          "name": "_nftToken",
          "type": "address"
        },
        {
          "indexed": false,
          "internalType": "uint256",
          "name": "_strikePrice",
          "type": "uint256"
        },
        {
          "indexed": false,
          "internalType": "uint256",
          "name": "_start",
          "type": "uint256"
        },
        {
          "indexed": false,
          "internalType": "uint256",
          "name": "_expiry",
          "type": "uint256"
        }
      ],
      "name": "CallOptionCreated",
      "type": "event"
    },
    {
      "anonymous": false,
      "inputs": [
        {
          "indexed": true,
          "internalType": "address",
          "name": "_contractAddress",
          "type": "address"
        },
        {
          "indexed": true,
          "internalType": "address",
          "name": "_user",
          "type": "address"
        },
        {
          "indexed": true,
          "internalType": "uint256",
          "name": "_id",
          "type": "uint256"
        },
        {
          "indexed": false,
          "internalType": "uint256",
          "name": "_profits",
          "type": "uint256"
        },
        {
          "indexed": false,
          "internalType": "bool",
          "name": "_profit",
          "type": "bool"
        }
      ],
      "name": "Exercised",
      "type": "event"
    },
    {
      "anonymous": false,
      "inputs": [
        {
          "indexed": true,
          "internalType": "address",
          "name": "previousOwner",
          "type": "address"
        },
        {
          "indexed": true,
          "internalType": "address",
          "name": "newOwner",
          "type": "address"
        }
      ],
      "name": "OwnershipTransferred",
      "type": "event"
    },
    {
      "anonymous": false,
      "inputs": [
        {
          "indexed": true,
          "internalType": "address",
          "name": "_contractAddress",
          "type": "address"
        },
        {
          "indexed": true,
          "internalType": "uint256",
          "name": "_optionId",
          "type": "uint256"
        },
        {
          "indexed": false,
          "internalType": "uint256",
          "name": "_epoch",
          "type": "uint256"
        },
        {
          "indexed": false,
          "internalType": "address",
          "name": "_nftToken",
          "type": "address"
        },
        {
          "indexed": false,
          "internalType": "uint256",
          "name": "_strikePrice",
          "type": "uint256"
        },
        {
          "indexed": false,
          "internalType": "uint256",
          "name": "_start",
          "type": "uint256"
        },
        {
          "indexed": false,
          "internalType": "uint256",
          "name": "_expiry",
          "type": "uint256"
        }
      ],
      "name": "PutOptionCreated",
      "type": "event"
    },
    {
      "inputs": [
        {
          "internalType": "address",
          "name": "_collectionAddress",
          "type": "address"
        },
        {
          "internalType": "address",
          "name": "_nftFeedAddress",
          "type": "address"
        }
      ],
      "name": "createOptions",
      "outputs": [],
      "stateMutability": "nonpayable",
      "type": "function"
    },
    {
      "inputs": [
        {
          "internalType": "address",
          "name": "_contractAddress",
          "type": "address"
        },
        {
          "internalType": "address",
          "name": "_user",
          "type": "address"
        },
        {
          "internalType": "uint256",
          "name": "_order",
          "type": "uint256"
        },
        {
          "internalType": "uint256",
          "name": "_amount",
          "type": "uint256"
        },
        {
          "internalType": "uint256",
          "name": "_premium",
          "type": "uint256"
        },
        {
          "internalType": "uint256",
          "name": "_timestamp",
          "type": "uint256"
        },
        {
          "internalType": "uint256",
          "name": "_epoch",
          "type": "uint256"
        }
      ],
      "name": "emitBoughtEvent",
      "outputs": [],
      "stateMutability": "nonpayable",
      "type": "function"
    },
    {
      "inputs": [
        {
          "internalType": "address",
          "name": "_contractAddress",
          "type": "address"
        },
        {
          "internalType": "uint256",
          "name": "_optionId",
          "type": "uint256"
        },
        {
          "internalType": "uint256",
          "name": "_epoch",
          "type": "uint256"
        },
        {
          "internalType": "address",
          "name": "_nftToken",
          "type": "address"
        },
        {
          "internalType": "uint256",
          "name": "_strikePrice",
          "type": "uint256"
        },
        {
          "internalType": "uint256",
          "name": "_start",
          "type": "uint256"
        },
        {
          "internalType": "uint256",
          "name": "_expiry",
          "type": "uint256"
        }
      ],
      "name": "emitCallOptionCreatedEvent",
      "outputs": [],
      "stateMutability": "nonpayable",
      "type": "function"
    },
    {
      "inputs": [
        {
          "internalType": "address",
          "name": "_contractAddress",
          "type": "address"
        },
        {
          "internalType": "address",
          "name": "_user",
          "type": "address"
        },
        {
          "internalType": "uint256",
          "name": "_id",
          "type": "uint256"
        },
        {
          "internalType": "uint256",
          "name": "_pnl",
          "type": "uint256"
        },
        {
          "internalType": "bool",
          "name": "_profit",
          "type": "bool"
        }
      ],
      "name": "emitExerciseEvent",
      "outputs": [],
      "stateMutability": "nonpayable",
      "type": "function"
    },
    {
      "inputs": [
        {
          "internalType": "address",
          "name": "_contractAddress",
          "type": "address"
        },
        {
          "internalType": "uint256",
          "name": "_optionId",
          "type": "uint256"
        },
        {
          "internalType": "uint256",
          "name": "_epoch",
          "type": "uint256"
        },
        {
          "internalType": "address",
          "name": "_nftToken",
          "type": "address"
        },
        {
          "internalType": "uint256",
          "name": "_strikePrice",
          "type": "uint256"
        },
        {
          "internalType": "uint256",
          "name": "_start",
          "type": "uint256"
        },
        {
          "internalType": "uint256",
          "name": "_expiry",
          "type": "uint256"
        }
      ],
      "name": "emitPutOptionCreatedEvent",
      "outputs": [],
      "stateMutability": "nonpayable",
      "type": "function"
    },
    {
      "inputs": [],
      "name": "getOptArray",
      "outputs": [
        {
          "internalType": "address[]",
          "name": "",
          "type": "address[]"
        }
      ],
      "stateMutability": "view",
      "type": "function"
    },
    {
      "inputs": [],
      "name": "grinder",
      "outputs": [
        {
          "internalType": "contract IBluebirdGrinder",
          "name": "",
          "type": "address"
        }
      ],
      "stateMutability": "view",
      "type": "function"
    },
    {
      "inputs": [],
      "name": "optionPricing",
      "outputs": [
        {
          "internalType": "contract IOptionPricing",
          "name": "",
          "type": "address"
        }
      ],
      "stateMutability": "view",
      "type": "function"
    },
    {
      "inputs": [],
      "name": "owner",
      "outputs": [
        {
          "internalType": "address",
          "name": "",
          "type": "address"
        }
      ],
      "stateMutability": "view",
      "type": "function"
    },
    {
      "inputs": [],
      "name": "renounceOwnership",
      "outputs": [],
      "stateMutability": "nonpayable",
      "type": "function"
    },
    {
      "inputs": [
        {
          "internalType": "address",
          "name": "newOwner",
          "type": "address"
        }
      ],
      "name": "transferOwnership",
      "outputs": [],
      "stateMutability": "nonpayable",
      "type": "function"
    }
  ],
  "transactionHash": "0xd4885d0162a50f598025d2e179926d8f6f72ec4826016829322794392a134aea",
  "args": [
    "0xfA3422b99515d78D889C0a8Ce866A8444A589fB8",
    "0xE3641277B8450e174a2Dea656649a3A1EBcEb2BE"
  ],
  "numDeployments": 1,
  "solcInputHash": "5eabd596f02e7aa32cb24f8266c91d6d",
  "bytecode": "0x608060405234801561001057600080fd5b506040516133d53803806133d583398101604081905261002f916100d1565b61003833610069565b600380546001600160a01b039384166001600160a01b0319918216179091556004805492909316911617905561010b565b600080546001600160a01b038381166001600160a01b0319831681178455604051919092169283917f8be0079c531659141344cd1fd0a4f28419497f9722a3daafe3b4186f6b6457e09190a35050565b6001600160a01b03811681146100ce57600080fd5b50565b600080604083850312156100e457600080fd5b82516100ef816100b9565b6020840151909250610100816100b9565b809150509250929050565b6132bb8061011a6000396000f3fe60806040523480156200001157600080fd5b5060043610620000b75760003560e01c80638da5cb5b116200007a5780638da5cb5b146200013e578063bee3d1611462000150578063c69057971462000169578063e29e49fb1462000180578063f2fde38b1462000194578063fee0b2a014620001ab57600080fd5b80631646879f14620000bc5780631e3394fb14620000d5578063571f1482146200010657806358c41cc3146200011d578063715018a61462000134575b600080fd5b620000d3620000cd36600462000893565b620001c2565b005b600354620000e9906001600160a01b031681565b6040516001600160a01b0390911681526020015b60405180910390f35b620000d362000117366004620008fd565b62000269565b620000d36200012e36600462000893565b620003c9565b620000d36200045b565b6000546001600160a01b0316620000e9565b6200015a62000473565b604051620000fd91906200093b565b620000d36200017a3660046200098a565b62000486565b600454620000e9906001600160a01b031681565b620000d3620001a5366004620009f4565b6200051e565b620000d3620001bc36600462000a1b565b6200059d565b620001cf60013362000637565b80620001da57503330145b620002025760405162461bcd60e51b8152600401620001f99062000a82565b60405180910390fd5b604080518681526001600160a01b038681166020830152918101859052606081018490526080810183905287918916907f7d2ed896fb6db818073ca603e12bd04646f1043d5e271e6c8d3343999dc8f9cf9060a0015b60405180910390a350505050505050565b620002736200065e565b60048054604051633200bddf60e01b81526001600160a01b038581169382019390935260009290911690633200bddf90602401602060405180830381865afa158015620002c4573d6000803e3d6000fd5b505050506040513d601f19601f82011682018060405250810190620002ea919062000ace565b90506001600160a01b038116156200033d5760405162461bcd60e51b815260206004820152601560248201527413919508151bdad95b881b9bdd0818dc99585d1959605a1b6044820152606401620001f9565b60035460405183916000918391859130916001600160a01b031690339062000365906200086f565b6001600160a01b0395861681529385166020850152918416604084015283166060830152909116608082015260a001604051809103906000f080158015620003b1573d6000803e3d6000fd5b509050620003c1600182620006ba565b505050505050565b620003d660013362000637565b80620003e157503330145b620004005760405162461bcd60e51b8152600401620001f99062000a82565b604080518681526001600160a01b038681166020830152918101859052606081018490526080810183905287918916907f93960e277e5f1a1bcf2ecb4638789539be8c5f6fd5482220f93f031296ef55359060a00162000258565b620004656200065e565b620004716000620006d1565b565b606062000481600162000721565b905090565b6200049360013362000637565b806200049e57503330145b620004bd5760405162461bcd60e51b8152600401620001f99062000a82565b82846001600160a01b0316866001600160a01b03167f48ce4d1077255ea4b6f98a25f90db5729f884d73101b7e623a9d6f518230dd7a85856040516200050f9291909182521515602082015260400190565b60405180910390a45050505050565b620005286200065e565b6001600160a01b0381166200058f5760405162461bcd60e51b815260206004820152602660248201527f4f776e61626c653a206e6577206f776e657220697320746865207a65726f206160448201526564647265737360d01b6064820152608401620001f9565b6200059a81620006d1565b50565b620005aa60013362000637565b80620005b557503330145b620005d45760405162461bcd60e51b8152600401620001f99062000a82565b60408051858152602081018590529081018390526060810182905285906001600160a01b0380891691908a16907f8a5254432535d4192429d2cc163283a57784eac274295fcda17cc659c1ee414c9060800160405180910390a450505050505050565b6001600160a01b038116600090815260018301602052604081205415155b90505b92915050565b6000546001600160a01b03163314620004715760405162461bcd60e51b815260206004820181905260248201527f4f776e61626c653a2063616c6c6572206973206e6f7420746865206f776e65726044820152606401620001f9565b600062000655836001600160a01b038416620007dd565b600080546001600160a01b038381166001600160a01b0319831681178455604051919092169283917f8be0079c531659141344cd1fd0a4f28419497f9722a3daafe3b4186f6b6457e09190a35050565b6060600062000730836200082f565b905060008167ffffffffffffffff81111562000750576200075062000aee565b6040519080825280602002602001820160405280156200077a578160200160208202803683370190505b50905060005b82811015620007d5576200079585826200083a565b828281518110620007aa57620007aa62000b04565b6001600160a01b0390921660209283029190910190910152620007cd8162000b1a565b905062000780565b509392505050565b6000818152600183016020526040812054620008265750815460018181018455600084815260208082209093018490558454848252828601909352604090209190915562000658565b50600062000658565b600062000658825490565b600062000655838360008260000182815481106200085c576200085c62000b04565b9060005260206000200154905092915050565b6127418062000b4583390190565b6001600160a01b03811681146200059a57600080fd5b600080600080600080600060e0888a031215620008af57600080fd5b8735620008bc816200087d565b965060208801359550604088013594506060880135620008dc816200087d565b9699959850939660808101359560a0820135955060c0909101359350915050565b600080604083850312156200091157600080fd5b82356200091e816200087d565b9150602083013562000930816200087d565b809150509250929050565b6020808252825182820181905260009190848201906040850190845b818110156200097e5783516001600160a01b03168352928401929184019160010162000957565b50909695505050505050565b600080600080600060a08688031215620009a357600080fd5b8535620009b0816200087d565b94506020860135620009c2816200087d565b9350604086013592506060860135915060808601358015158114620009e657600080fd5b809150509295509295909350565b60006020828403121562000a0757600080fd5b813562000a14816200087d565b9392505050565b600080600080600080600060e0888a03121562000a3757600080fd5b873562000a44816200087d565b9650602088013562000a56816200087d565b96999698505050506040850135946060810135946080820135945060a0820135935060c0909101359150565b6020808252602c908201527f4f6e6c79204f7074696f6e7320436f6e74726163742063616e2063616c6c207460408201526b3434b990333ab731ba34b7b760a11b606082015260800190565b60006020828403121562000ae157600080fd5b815162000a14816200087d565b634e487b7160e01b600052604160045260246000fd5b634e487b7160e01b600052603260045260246000fd5b600060001982141562000b3d57634e487b7160e01b600052601160045260246000fd5b506001019056fe608060405261012c6006556078600a553480156200001c57600080fd5b5060405162002741380380620027418339810160408190526200003f916200026b565b6200004a33620000bc565b60018055600280546001600160a01b038088166001600160a01b0319928316179092556003805487841690831617905560048054868416908316179055600580549285169290911691909117905542600855620000a7816200010c565b620000b16200018f565b505050505062000312565b600080546001600160a01b038381166001600160a01b0319831681178455604051919092169283917f8be0079c531659141344cd1fd0a4f28419497f9722a3daafe3b4186f6b6457e09190a35050565b62000116620001f7565b6001600160a01b038116620001815760405162461bcd60e51b815260206004820152602660248201527f4f776e61626c653a206e6577206f776e657220697320746865207a65726f206160448201526564647265737360d01b60648201526084015b60405180910390fd5b6200018c81620000bc565b50565b600654600854620001a19190620002eb565b4211620001f15760405162461bcd60e51b815260206004820152601360248201527f45706f636820686173206e6f7420656e64656400000000000000000000000000604482015260640162000178565b42600855565b6000546001600160a01b03163314620002535760405162461bcd60e51b815260206004820181905260248201527f4f776e61626c653a2063616c6c6572206973206e6f7420746865206f776e6572604482015260640162000178565b565b6001600160a01b03811681146200018c57600080fd5b600080600080600060a086880312156200028457600080fd5b8551620002918162000255565b6020870151909550620002a48162000255565b6040870151909450620002b78162000255565b6060870151909350620002ca8162000255565b6080870151909250620002dd8162000255565b809150509295509295909350565b600082198211156200030d57634e487b7160e01b600052601160045260246000fd5b500190565b61241f80620003226000396000f3fe6080604052600436106101ee5760003560e01c8063715018a61161010d578063c0c2e53a116100a0578063d6febde81161006f578063d6febde8146105c3578063e00dd161146105d6578063f2fde38b146105ec578063f6326fb31461060c578063fcaa76641461061457600080fd5b8063c0c2e53a1461050b578063c491277414610556578063cfbdfc5f1461056b578063d06fcba8146105a357600080fd5b8063b07f0a41116100dc578063b07f0a41146104a2578063b28d916a146104b5578063b49631e9146104cb578063bdf82a22146104eb57600080fd5b8063715018a6146104445780638da5cb5b14610459578063900cf0cf14610477578063a2c8b1771461048d57600080fd5b80631f93d1b3116101855780634c61670d116101545780634c61670d146103e35780634cfe6f93146104035780635e4db5fd146104185780636053937b1461042e57600080fd5b80631f93d1b31461032357806333b521a6146103395780633d168294146103a05780634530a2d7146103cd57600080fd5b806310a64fc4116101c157806310a64fc414610296578063110bd49b146102ab5780631bf1fffb146102cb5780631e3394fb146102eb57600080fd5b806301cceb38146101f3578063039ea00a146102155780630899b1411461023e57806308f433331461025e575b600080fd5b3480156101ff57600080fd5b5061021361020e36600461206f565b610629565b005b34801561022157600080fd5b5061022b60075481565b6040519081526020015b60405180910390f35b34801561024a57600080fd5b5061021361025936600461206f565b610636565b34801561026a57600080fd5b5061022b6102793660046120a4565b600e60209081526000928352604080842090915290825290205481565b3480156102a257600080fd5b50610213610643565b3480156102b757600080fd5b5061022b6102c63660046120dc565b610a62565b3480156102d757600080fd5b5061022b6102e636600461206f565b610aa0565b3480156102f757600080fd5b5060055461030b906001600160a01b031681565b6040516001600160a01b039091168152602001610235565b34801561032f57600080fd5b5061022b60085481565b34801561034557600080fd5b5061037e61035436600461206f565b600f6020526000908152604090208054600182015460028301546003909301549192909160ff1684565b6040805194855260208501939093529183015215156060820152608001610235565b3480156103ac57600080fd5b506103c06103bb366004612114565b610b8b565b6040516102359190612144565b3480156103d957600080fd5b5061022b60065481565b3480156103ef57600080fd5b506102136103fe36600461206f565b610bf9565b34801561040f57600080fd5b506103c0610d51565b34801561042457600080fd5b5061022b600d5481565b34801561043a57600080fd5b5061022b600c5481565b34801561045057600080fd5b50610213610f05565b34801561046557600080fd5b506000546001600160a01b031661030b565b34801561048357600080fd5b5061022b60095481565b34801561049957600080fd5b50610213610f19565b6102136104b036600461206f565b610f73565b3480156104c157600080fd5b5061022b600a5481565b3480156104d757600080fd5b5060045461030b906001600160a01b031681565b3480156104f757600080fd5b5061022b61050636600461206f565b6114da565b34801561051757600080fd5b506105466105263660046120a4565b601160209081526000928352604080842090915290825290205460ff1681565b6040519015158152602001610235565b34801561056257600080fd5b5061022b611507565b34801561057757600080fd5b5061022b6105863660046120a4565b601060209081526000928352604080842090915290825290205481565b3480156105af57600080fd5b5060035461030b906001600160a01b031681565b6102136105d1366004612188565b61158c565b3480156105e257600080fd5b5061022b600b5481565b3480156105f857600080fd5b506102136106073660046121aa565b611a8a565b610213611b00565b34801561062057600080fd5b5061022b611bd3565b610631611c2e565b600655565b61063e611c2e565b600a55565b61064b611c2e565b600a5460085461065b91906121db565b42116106bc5760405162461bcd60e51b815260206004820152602560248201527f4c69717569646974792070726f766964696e672074696d65206e6f74206f76656044820152641c881e595d60da1b60648201526084015b60405180910390fd5b4260075560006106ca611507565b905060006106db620f4240836121f3565b905060006106ea826000611c88565b905060006106f9836001611c88565b9050600042905060006003600c5461071191906121f3565b905060006003600d5461072491906121f3565b905060005b85518110156109e157604051806080016040528087838151811061074f5761074f612215565b602002602001015181526020016006548661076a91906121db565b8152602080820186905260006040928301819052600b548152600f8252829020835181559083015160018201558282015160028201556060909201516003909201805460ff191692151592909217909155805160808101909152855181908790849081106107da576107da612215565b60200260200101518152602001600654866107f591906121db565b815260200183815260200160011515815250600f6000600b54600161081a91906121db565b815260208082019290925260409081016000208351815591830151600183015582015160028201556060909101516003918201805460ff1916911515919091179055600454600b54600954925489516001600160a01b0393841694631646879f9430949391929116908c908890811061089557610895612215565b60200260200101518a6006548c6108ac91906121db565b6040518863ffffffff1660e01b81526004016108ce979695949392919061222b565b600060405180830381600087803b1580156108e857600080fd5b505af11580156108fc573d6000803e3d6000fd5b5050600454600b546001600160a01b0390911692506358c41cc3915030906109259060016121db565b6009546003548b516001600160a01b03909116908c908890811061094b5761094b612215565b60200260200101518a6006548c61096291906121db565b6040518863ffffffff1660e01b8152600401610984979695949392919061222b565b600060405180830381600087803b15801561099e57600080fd5b505af11580156109b2573d6000803e3d6000fd5b505050506002600b60008282546109c991906121db565b909155508190506109d98161226f565b915050610729565b506001600960008282546109f591906121db565b9091555050600954600090815260126020908152604080832083805282529091208651610a2492880190612018565b5060095460009081526012602090815260408083206001845282529091208551610a5092870190612018565b50610a59610f19565b50505050505050565b60126020528260005260406000206020528160005260406000208181548110610a8a57600080fd5b9060005260206000200160009250925050505481565b600080610aab611507565b90506000610abc620f4240836121f3565b90506000610ac8610d51565b90506000610ad582611df6565b6005546000888152600f6020526040908190206003810154600182015491549251630b6f6db160e31b815260ff909116151560048201526024810191909152604481019190915260648101869052608481018390529192506001600160a01b031690635b7b6d889060a401602060405180830381865afa158015610b5d573d6000803e3d6000fd5b505050506040513d601f19601f82011682018060405250810190610b81919061228a565b9695505050505050565b60008281526012602090815260408083208415158452825291829020805483518184028101840190945280845260609392830182828015610beb57602002820191906000526020600020905b815481526020019060010190808311610bd7575b505050505090505b92915050565b610c01611f1e565b600a54600854610c1191906121db565b4210610c2f5760405162461bcd60e51b81526004016106b3906122a3565b6003546040516323b872dd60e01b8152336004820152306024820152604481018390526001600160a01b03909116906323b872dd906064016020604051808303816000875af1158015610c86573d6000803e3d6000fd5b505050506040513d601f19601f82011682018060405250810190610caa91906122e5565b610d015760405162461bcd60e51b815260206004820152602260248201527f496e636f727265637420616d6f756e74206f66204e465420546f6b656e2073656044820152611b9d60f21b60648201526084016106b3565b80600c6000828254610d1391906121db565b9091555050336000908152600e6020908152604080832083805290915281208054839290610d429084906121db565b90915550506001805550565b50565b6040805160078082526101008201909252606091600091906020820160e080368337019050509050600080600260009054906101000a90046001600160a01b03166001600160a01b031663feaf968c6040518163ffffffff1660e01b815260040160a060405180830381865afa158015610dcf573d6000803e3d6000fd5b505050506040513d601f19601f82011682018060405250810190610df3919061231c565b505050915091508083600081518110610e0e57610e0e612215565b602090810291909101015260015b6007811015610efc576002546000906001600160a01b0316639a6fc8f5610e4484601861236c565b610e5a9069ffffffffffffffffffff881661238b565b6040516001600160e01b031960e084901b16815269ffffffffffffffffffff909116600482015260240160a060405180830381865afa158015610ea1573d6000803e3d6000fd5b505050506040513d601f19601f82011682018060405250810190610ec5919061231c565b50505091505080858381518110610ede57610ede612215565b60209081029190910101525080610ef48161226f565b915050610e1c565b50919392505050565b610f0d611c2e565b610f176000611f78565b565b600654600854610f2991906121db565b4211610f6d5760405162461bcd60e51b8152602060048201526013602482015272115c1bd8da081a185cc81b9bdd08195b991959606a1b60448201526064016106b3565b42600855565b336000908152601060209081526040808320848452909152902054610fda5760405162461bcd60e51b815260206004820152601a60248201527f596f7520646f206e6f74206f776e2074686973206f7074696f6e00000000000060448201526064016106b3565b33600090815260116020908152604080832084845290915290205460ff161561104f5760405162461bcd60e51b815260206004820152602160248201527f4f7074696f6e2068617320616c7265616479206265656e2065786572636973656044820152601960fa1b60648201526084016106b3565b6000818152600f602052604090206001015442116110a75760405162461bcd60e51b815260206004820152601560248201527413dc1d1a5bdb881a5cc81b9bdd08195e1c1a5c9959605a1b60448201526064016106b3565b6000620f42406110b5611507565b6110bf91906121f3565b6000838152600f602052604081206003015491925090819060ff16611280576000848152600f602052604090205483111561127b57506001611100846114da565b91508134146111675760405162461bcd60e51b815260206004820152602d60248201527f496e636f727265637420616d6f756e74206f66204554482073656e7420746f2060448201526c313abc9027232a102a37b5b2b760991b60648201526084016106b3565b6003543360008181526010602090815260408083208984529091529020546001600160a01b039092169163a9059cbb91906111aa90670de0b6b3a764000061236c565b6040516001600160e01b031960e085901b1681526001600160a01b03909216600483015260248201526044016020604051808303816000875af11580156111f5573d6000803e3d6000fd5b505050506040513d601f19601f8201168201806040525081019061121991906122e5565b61127b5760405162461bcd60e51b815260206004820152602d60248201527f496e73756666696369656e7420616d6f756e74206f66204e465420546f6b656e60448201526c1039b2b73a103a37903ab9b2b960991b60648201526084016106b3565b611432565b6000848152600f6020526040902054831015611432575060016112a2846114da565b6003543360008181526010602090815260408083208a84529091529020549294506001600160a01b03909116916323b872dd919030906112ea90670de0b6b3a764000061236c565b6040516001600160e01b031960e086901b1681526001600160a01b03938416600482015292909116602483015260448201526064016020604051808303816000875af115801561133e573d6000803e3d6000fd5b505050506040513d601f19601f8201168201806040525081019061136291906122e5565b6113c85760405162461bcd60e51b815260206004820152603160248201527f496e73756666696369656e7420616d6f756e74206f66204e465420546f6b656e604482015270081cd95b9d081d1bc81c1c9bdd1bd8dbdb607a1b60648201526084016106b3565b604051600090339084908381818185875af1925050503d806000811461140a576040519150601f19603f3d011682016040523d82523d6000602084013e61140f565b606091505b50509050806114305760405162461bcd60e51b81526004016106b3906123a2565b505b33600081815260116020908152604080832088845290915290819020805460ff1916600117905560048054915163c690579760e01b815230918101919091526024810192909252604482018690526064820184905282151560848301526001600160a01b03169063c69057979060a401600060405180830381600087803b1580156114bc57600080fd5b505af11580156114d0573d6000803e3d6000fd5b5050505050505050565b336000908152601060209081526040808320848452825280832054600f909252822054610bf3919061236c565b600080600260009054906101000a90046001600160a01b03166001600160a01b031663feaf968c6040518163ffffffff1660e01b815260040160a060405180830381865afa15801561155d573d6000803e3d6000fd5b505050506040513d601f19601f82011682018060405250810190611581919061231c565b509195945050505050565b611594611f1e565b6000828152600f602052604090206001015442106116035760405162461bcd60e51b815260206004820152602660248201527f4f7074696f6e206973206578706972656420616e642063616e6e6f7420626520604482015265189bdd59da1d60d21b60648201526084016106b3565b6000828152600f602052604090206003015460ff16801561168657600d548211156116695760405162461bcd60e51b8152602060048201526016602482015275416d6f756e742065786365656473206d61782062757960501b60448201526064016106b3565b81600d600082825461167b919061238b565b909155506116e99050565b600c548211156116d15760405162461bcd60e51b8152602060048201526016602482015275416d6f756e742065786365656473206d61782062757960501b60448201526064016106b3565b81600c60008282546116e3919061238b565b90915550505b6000620f42406116f7611507565b61170191906121f3565b6000858152600f60205260408120600101549192508061171f610d51565b9050600061172c82611df6565b6000898152600f602052604090205490915086156117d457600554604051630b6f6db160e31b815260016004820152602481018790526044810183905260648101889052608481018490526001600160a01b0390911690635b7b6d889060a401602060405180830381865afa1580156117a9573d6000803e3d6000fd5b505050506040513d601f19601f820116820180604052508101906117cd919061228a565b9350611860565b600554604051630b6f6db160e31b815260006004820152602481018790526044810183905260648101889052608481018490526001600160a01b0390911690635b7b6d889060a401602060405180830381865afa158015611839573d6000803e3d6000fd5b505050506040513d601f19601f8201168201806040525081019061185d919061228a565b93505b611872670de0b6b3a7640000896121f3565b3360009081526010602090815260408083208d84529091528120805490919061189c9084906121db565b90915550600090506118ae87866121f3565b6003546040516323b872dd60e01b8152336004820152306024820152604481018390529192506001600160a01b0316906323b872dd906064016020604051808303816000875af1158015611906573d6000803e3d6000fd5b505050506040513d601f19601f8201168201806040525081019061192a91906122e5565b61196f5760405162461bcd60e51b8152602060048201526016602482015275141c995b5a5d5b481c185e5b595b9d0819985a5b195960521b60448201526064016106b3565b600061197b863461238b565b905080156119ed57604051600090339083908381818185875af1925050503d80600081146119c5576040519150601f19603f3d011682016040523d82523d6000602084013e6119ca565b606091505b50509050806119eb5760405162461bcd60e51b81526004016106b3906123a2565b505b600480546009546040516307f7059560e51b81523093810193909352336024840152604483018e9052606483018d9052608483018990524260a484015260c48301526001600160a01b03169063fee0b2a09060e401600060405180830381600087803b158015611a5c57600080fd5b505af1158015611a70573d6000803e3d6000fd5b50505050505050505050505050611a8660018055565b5050565b611a92611c2e565b6001600160a01b038116611af75760405162461bcd60e51b815260206004820152602660248201527f4f776e61626c653a206e6577206f776e657220697320746865207a65726f206160448201526564647265737360d01b60648201526084016106b3565b610d4e81611f78565b611b08611f1e565b600a54600854611b1891906121db565b4210611b365760405162461bcd60e51b81526004016106b3906122a3565b60003411611b865760405162461bcd60e51b815260206004820152601c60248201527f496e636f727265637420616d6f756e74206f66204554482073656e740000000060448201526064016106b3565b34600d6000828254611b9891906121db565b9091555050336000908152600e602090815260408083206001845290915281208054349290611bc89084906121db565b909155505060018055565b60008060085442118015611bf55750600a54600854611bf291906121db565b42105b15611bfe575090565b60075442118015611c1d5750600654600754611c1a91906121db565b42105b15611c26575090565b5060025b5090565b6000546001600160a01b03163314610f175760405162461bcd60e51b815260206004820181905260248201527f4f776e61626c653a2063616c6c6572206973206e6f7420746865206f776e657260448201526064016106b3565b60408051600380825260808201909252606091600091906020820184803683370190505090508215611d5457611cbf600a856121f3565b611cc9908561238b565b81600081518110611cdc57611cdc612215565b6020908102919091010152611cf26005856121f3565b611cfc908561238b565b81600181518110611d0f57611d0f612215565b6020908102919091010152611d256003856121f3565b611d2f908561238b565b81600281518110611d4257611d42612215565b60209081029190910101529050610bf3565b611d5f600a856121f3565b611d6990856121db565b81600081518110611d7c57611d7c612215565b6020908102919091010152611d926005856121f3565b611d9c90856121db565b81600181518110611daf57611daf612215565b6020908102919091010152611dc56003856121f3565b611dcf90856121db565b81600281518110611de257611de2612215565b6020026020010181815250505b9392505050565b805160009081805b82811015611e3f57848181518110611e1857611e18612215565b602002602001015182611e2b91906121db565b915080611e378161226f565b915050611dfe565b50611e4a82826121f3565b90506000805b83811015611ef957600083878381518110611e6d57611e6d612215565b60200260200101511115611ea75783878381518110611e8e57611e8e612215565b6020026020010151611ea0919061238b565b9050611ecf565b868281518110611eb957611eb9612215565b602002602001015184611ecc919061238b565b90505b611ed9818061236c565b611ee390846121db565b9250508080611ef19061226f565b915050611e50565b506000611f0684836121f3565b90506000611f1382611fc8565b979650505050505050565b60026001541415611f715760405162461bcd60e51b815260206004820152601f60248201527f5265656e7472616e637947756172643a207265656e7472616e742063616c6c0060448201526064016106b3565b6002600155565b600080546001600160a01b038381166001600160a01b0319831681178455604051919092169283917f8be0079c531659141344cd1fd0a4f28419497f9722a3daafe3b4186f6b6457e09190a35050565b6000806002611fd88460016121db565b611fe291906121f3565b9050825b80821015611def575080600281611ffd81876121f3565b61200791906121db565b61201191906121f3565b9150611fe6565b828054828255906000526020600020908101928215612053579160200282015b82811115612053578251825591602001919060010190612038565b50611c2a9291505b80821115611c2a576000815560010161205b565b60006020828403121561208157600080fd5b5035919050565b80356001600160a01b038116811461209f57600080fd5b919050565b600080604083850312156120b757600080fd5b6120c083612088565b946020939093013593505050565b8015158114610d4e57600080fd5b6000806000606084860312156120f157600080fd5b833592506020840135612103816120ce565b929592945050506040919091013590565b6000806040838503121561212757600080fd5b823591506020830135612139816120ce565b809150509250929050565b6020808252825182820181905260009190848201906040850190845b8181101561217c57835183529284019291840191600101612160565b50909695505050505050565b6000806040838503121561219b57600080fd5b50508035926020909101359150565b6000602082840312156121bc57600080fd5b611def82612088565b634e487b7160e01b600052601160045260246000fd5b600082198211156121ee576121ee6121c5565b500190565b60008261221057634e487b7160e01b600052601260045260246000fd5b500490565b634e487b7160e01b600052603260045260246000fd5b6001600160a01b03978816815260208101969096526040860194909452919094166060840152608083019390935260a082019290925260c081019190915260e00190565b6000600019821415612283576122836121c5565b5060010190565b60006020828403121561229c57600080fd5b5051919050565b60208082526022908201527f4c69717569646974792070726f766964696e672074696d652068617320656e64604082015261195960f21b606082015260800190565b6000602082840312156122f757600080fd5b8151611def816120ce565b805169ffffffffffffffffffff8116811461209f57600080fd5b600080600080600060a0868803121561233457600080fd5b61233d86612302565b945060208601519350604086015192506060860151915061236060808701612302565b90509295509295909350565b6000816000190483118215151615612386576123866121c5565b500290565b60008282101561239d5761239d6121c5565b500390565b60208082526027908201527f496e73756666696369656e7420616d6f756e74206f66204554482073656e74206040820152663a37903ab9b2b960c91b60608201526080019056fea2646970667358221220287097946d415284601c98707e1f50eb8ef07b0fa4a445bc0833b78b2832717564736f6c634300080b0033a2646970667358221220735f4bba61bfb1edcfb5268248a964a3e306c85b9e21e8c0eceb803b9f6a3c2964736f6c634300080b0033",
  "devdoc": {
    "kind": "dev",
    "methods": {
      "createOptions(address,address)": {
        "params": {
          "_collectionAddress": "Collection Address"
        }
      },
      "emitBoughtEvent(address,address,uint256,uint256,uint256,uint256,uint256)": {
        "params": {
          "_amount": "Amount",
          "_contractAddress": "Address of options contract",
          "_epoch": "Epoch",
          "_order": "Order ID",
          "_premium": "Premium",
          "_timestamp": "Timestamp",
          "_user": "User Address"
        }
      },
      "emitCallOptionCreatedEvent(address,uint256,uint256,address,uint256,uint256,uint256)": {
        "params": {
          "_contractAddress": "Address of options contract",
          "_epoch": "Epoch",
          "_expiry": "Expiry Time",
          "_nftToken": "NFT Token Address",
          "_optionId": "Option ID",
          "_start": "Start Time",
          "_strikePrice": "Strike Price"
        }
      },
      "emitExerciseEvent(address,address,uint256,uint256,bool)": {
        "params": {
          "_contractAddress": "Address of options contract",
          "_id": "Order ID",
          "_pnl": "PnL",
          "_profit": "Profit",
          "_user": "User Address"
        }
      },
      "emitPutOptionCreatedEvent(address,uint256,uint256,address,uint256,uint256,uint256)": {
        "params": {
          "_contractAddress": "Address of options contract",
          "_epoch": "Epoch",
          "_expiry": "Expiry Time",
          "_nftToken": "NFT Token Address",
          "_optionId": "Option ID",
          "_start": "Start Time",
          "_strikePrice": "Strike Price"
        }
      },
      "owner()": {
        "details": "Returns the address of the current owner."
      },
      "renounceOwnership()": {
        "details": "Leaves the contract without owner. It will not be possible to call `onlyOwner` functions anymore. Can only be called by the current owner. NOTE: Renouncing ownership will leave the contract without an owner, thereby removing any functionality that is only available to the owner."
      },
      "transferOwnership(address)": {
        "details": "Transfers ownership of the contract to a new account (`newOwner`). Can only be called by the current owner."
      }
    },
    "version": 1
  },
  "userdoc": {
    "events": {
      "Bought(address,address,uint256,uint256,uint256,uint256,uint256)": {
        "notice": "Emitted when an option is bought"
      },
      "CallOptionCreated(address,uint256,uint256,address,uint256,uint256,uint256)": {
        "notice": "Emit when Call Option Contract is Created"
      },
      "Exercised(address,address,uint256,uint256,bool)": {
        "notice": "Emitted when a user claims profits"
      },
      "PutOptionCreated(address,uint256,uint256,address,uint256,uint256,uint256)": {
        "notice": "Emit when Put option contract is Created"
      }
    },
    "kind": "user",
    "methods": {
      "createOptions(address,address)": {
        "notice": "Create a Put and Call Options for a specified collection for the current epoch"
      },
      "emitBoughtEvent(address,address,uint256,uint256,uint256,uint256,uint256)": {
        "notice": "Proxy function to emit event from options contract"
      },
      "emitCallOptionCreatedEvent(address,uint256,uint256,address,uint256,uint256,uint256)": {
        "notice": "Proxy function to emit event from options contract"
      },
      "emitExerciseEvent(address,address,uint256,uint256,bool)": {
        "notice": "Proxy function to emit event from options contract"
      },
      "emitPutOptionCreatedEvent(address,uint256,uint256,address,uint256,uint256,uint256)": {
        "notice": "Proxy function to emit event from options contract"
      },
      "getOptArray()": {
        "notice": "Function to retrieve options array"
      }
    },
    "version": 1
  },
  "storageLayout": {
    "storage": [
      {
        "astId": 148,
        "contract": "contracts/BluebirdManager.sol:BluebirdManager",
        "label": "_owner",
        "offset": 0,
        "slot": "0",
        "type": "t_address"
      },
      {
        "astId": 1872,
        "contract": "contracts/BluebirdManager.sol:BluebirdManager",
        "label": "optArray",
        "offset": 0,
        "slot": "1",
        "type": "t_struct(AddressSet)1473_storage"
      },
      {
        "astId": 1875,
        "contract": "contracts/BluebirdManager.sol:BluebirdManager",
        "label": "optionPricing",
        "offset": 0,
        "slot": "3",
        "type": "t_contract(IOptionPricing)3573"
      },
      {
        "astId": 1878,
        "contract": "contracts/BluebirdManager.sol:BluebirdManager",
        "label": "grinder",
        "offset": 0,
        "slot": "4",
        "type": "t_contract(IBluebirdGrinder)3369"
      }
    ],
    "types": {
      "t_address": {
        "encoding": "inplace",
        "label": "address",
        "numberOfBytes": "20"
      },
      "t_array(t_bytes32)dyn_storage": {
        "base": "t_bytes32",
        "encoding": "dynamic_array",
        "label": "bytes32[]",
        "numberOfBytes": "32"
      },
      "t_bytes32": {
        "encoding": "inplace",
        "label": "bytes32",
        "numberOfBytes": "32"
      },
      "t_contract(IBluebirdGrinder)3369": {
        "encoding": "inplace",
        "label": "contract IBluebirdGrinder",
        "numberOfBytes": "20"
      },
      "t_contract(IOptionPricing)3573": {
        "encoding": "inplace",
        "label": "contract IOptionPricing",
        "numberOfBytes": "20"
      },
      "t_mapping(t_bytes32,t_uint256)": {
        "encoding": "mapping",
        "key": "t_bytes32",
        "label": "mapping(bytes32 => uint256)",
        "numberOfBytes": "32",
        "value": "t_uint256"
      },
      "t_struct(AddressSet)1473_storage": {
        "encoding": "inplace",
        "label": "struct EnumerableSet.AddressSet",
        "members": [
          {
            "astId": 1472,
            "contract": "contracts/BluebirdManager.sol:BluebirdManager",
            "label": "_inner",
            "offset": 0,
            "slot": "0",
            "type": "t_struct(Set)1158_storage"
          }
        ],
        "numberOfBytes": "64"
      },
      "t_struct(Set)1158_storage": {
        "encoding": "inplace",
        "label": "struct EnumerableSet.Set",
        "members": [
          {
            "astId": 1153,
            "contract": "contracts/BluebirdManager.sol:BluebirdManager",
            "label": "_values",
            "offset": 0,
            "slot": "0",
            "type": "t_array(t_bytes32)dyn_storage"
          },
          {
            "astId": 1157,
            "contract": "contracts/BluebirdManager.sol:BluebirdManager",
            "label": "_indexes",
            "offset": 0,
            "slot": "1",
            "type": "t_mapping(t_bytes32,t_uint256)"
          }
        ],
        "numberOfBytes": "64"
      },
      "t_uint256": {
        "encoding": "inplace",
        "label": "uint256",
        "numberOfBytes": "32"
      }
    }
  }
}