{
  "address": "0xa853E153547d0beB7624FC710439CEa07Edc84fF",
  "abi": [
    {
      "inputs": [
        {
          "internalType": "int256",
          "name": "_price",
          "type": "int256"
        },
        {
          "internalType": "uint8",
          "name": "_decimals",
          "type": "uint8"
        },
        {
          "internalType": "string",
          "name": "_description",
          "type": "string"
        }
      ],
      "stateMutability": "nonpayable",
      "type": "constructor"
    },
    {
      "anonymous": false,
      "inputs": [
        {
          "indexed": true,
          "internalType": "int256",
          "name": "current",
          "type": "int256"
        },
        {
          "indexed": true,
          "internalType": "uint256",
          "name": "roundId",
          "type": "uint256"
        },
        {
          "indexed": false,
          "internalType": "uint256",
          "name": "updatedAt",
          "type": "uint256"
        }
      ],
      "name": "AnswerUpdated",
      "type": "event"
    },
    {
      "inputs": [],
      "name": "decimals",
      "outputs": [
        {
          "internalType": "uint8",
          "name": "",
          "type": "uint8"
        }
      ],
      "stateMutability": "view",
      "type": "function"
    },
    {
      "inputs": [],
      "name": "description",
      "outputs": [
        {
          "internalType": "string",
          "name": "",
          "type": "string"
        }
      ],
      "stateMutability": "view",
      "type": "function"
    },
    {
      "inputs": [
        {
          "internalType": "uint80",
          "name": "_roundId",
          "type": "uint80"
        }
      ],
      "name": "getRoundData",
      "outputs": [
        {
          "internalType": "uint80",
          "name": "roundId",
          "type": "uint80"
        },
        {
          "internalType": "int256",
          "name": "answer",
          "type": "int256"
        },
        {
          "internalType": "uint256",
          "name": "startedAt",
          "type": "uint256"
        },
        {
          "internalType": "uint256",
          "name": "updatedAt",
          "type": "uint256"
        },
        {
          "internalType": "uint80",
          "name": "answeredInRound",
          "type": "uint80"
        }
      ],
      "stateMutability": "view",
      "type": "function"
    },
    {
      "inputs": [],
      "name": "latestRoundData",
      "outputs": [
        {
          "internalType": "uint80",
          "name": "roundId",
          "type": "uint80"
        },
        {
          "internalType": "int256",
          "name": "answer",
          "type": "int256"
        },
        {
          "internalType": "uint256",
          "name": "startedAt",
          "type": "uint256"
        },
        {
          "internalType": "uint256",
          "name": "updatedAt",
          "type": "uint256"
        },
        {
          "internalType": "uint80",
          "name": "answeredInRound",
          "type": "uint80"
        }
      ],
      "stateMutability": "view",
      "type": "function"
    },
    {
      "inputs": [],
      "name": "price",
      "outputs": [
        {
          "internalType": "int256",
          "name": "",
          "type": "int256"
        }
      ],
      "stateMutability": "view",
      "type": "function"
    },
    {
      "inputs": [],
      "name": "roundId",
      "outputs": [
        {
          "internalType": "uint80",
          "name": "",
          "type": "uint80"
        }
      ],
      "stateMutability": "view",
      "type": "function"
    },
    {
      "inputs": [
        {
          "internalType": "int256",
          "name": "_price",
          "type": "int256"
        }
      ],
      "name": "setPrice",
      "outputs": [],
      "stateMutability": "nonpayable",
      "type": "function"
    },
    {
      "inputs": [],
      "name": "version",
      "outputs": [
        {
          "internalType": "uint256",
          "name": "",
          "type": "uint256"
        }
      ],
      "stateMutability": "view",
      "type": "function"
    }
  ],
  "transactionHash": "0xe351f58727d25fffe80ffcc83cf758902eece225c4fd8fa102ab0d1f139819b1",
  "args": [
    "13650000000000000000",
    18,
    "Mock Oracle"
  ],
  "numDeployments": 1,
  "solcInputHash": "e2a57b0bfe0c948a330d750e7cb73c6a",
  "bytecode": "0x608060405260016003819055600480546001600160501b031916909117905534801561002a57600080fd5b506040516106a03803806106a083398101604081905261004991610088565b60008390556001805460ff191660ff8416179055600261006982826101fc565b505050506102bb565b634e487b7160e01b600052604160045260246000fd5b60008060006060848603121561009d57600080fd5b8351925060208085015160ff811681146100b657600080fd5b60408601519093506001600160401b03808211156100d357600080fd5b818701915087601f8301126100e757600080fd5b8151818111156100f9576100f9610072565b604051601f8201601f19908116603f0116810190838211818310171561012157610121610072565b816040528281528a8684870101111561013957600080fd5b600093505b8284101561015b578484018601518185018701529285019261013e565b60008684830101528096505050505050509250925092565b600181811c9082168061018757607f821691505b6020821081036101a757634e487b7160e01b600052602260045260246000fd5b50919050565b601f8211156101f757600081815260208120601f850160051c810160208610156101d45750805b601f850160051c820191505b818110156101f3578281556001016101e0565b5050505b505050565b81516001600160401b0381111561021557610215610072565b610229816102238454610173565b846101ad565b602080601f83116001811461025e57600084156102465750858301515b600019600386901b1c1916600185901b1785556101f3565b600085815260208120601f198616915b8281101561028d5788860151825594840194600190910190840161026e565b50858210156102ab5787850151600019600388901b60f8161c191681555b5050505050600190811b01905550565b6103d6806102ca6000396000f3fe608060405234801561001057600080fd5b50600436106100885760003560e01c80639a6fc8f51161005b5780639a6fc8f514610108578063a035b1fe14610159578063f7a3080614610162578063feaf968c1461017757600080fd5b8063313ce5671461008d57806354fd4d50146100b15780637284e416146100c85780638cd221c9146100dd575b600080fd5b60015461009a9060ff1681565b60405160ff90911681526020015b60405180910390f35b6100ba60035481565b6040519081526020016100a8565b6100d0610183565b6040516100a8919061029b565b6004546100f0906001600160501b031681565b6040516001600160501b0390911681526020016100a8565b6101256101163660046102e9565b50600080549091829081908190565b604080516001600160501b03968716815260208101959095528401929092526060830152909116608082015260a0016100a8565b6100ba60005481565b610175610170366004610319565b610211565b005b60008054818080610125565b6002805461019090610332565b80601f01602080910402602001604051908101604052809291908181526020018280546101bc90610332565b80156102095780601f106101de57610100808354040283529160200191610209565b820191906000526020600020905b8154815290600101906020018083116101ec57829003601f168201915b505050505081565b60008190556004546040514281526001600160501b039091169082907f0559884fd3a460db3073b7fc896cc77986f16e378210ded43186175bf646fc5f9060200160405180910390a3600480546001600160501b03169060006102738361036c565b91906101000a8154816001600160501b0302191690836001600160501b031602179055505050565b600060208083528351808285015260005b818110156102c8578581018301518582016040015282016102ac565b506000604082860101526040601f19601f8301168501019250505092915050565b6000602082840312156102fb57600080fd5b81356001600160501b038116811461031257600080fd5b9392505050565b60006020828403121561032b57600080fd5b5035919050565b600181811c9082168061034657607f821691505b60208210810361036657634e487b7160e01b600052602260045260246000fd5b50919050565b60006001600160501b0380831681810361039657634e487b7160e01b600052601160045260246000fd5b600101939250505056fea2646970667358221220d920c92f2b23abfeaa26809d05b4b9ce05b9249a6a28f96b7f9e38c1d087004e64736f6c63430008110033",
  "devdoc": {
    "kind": "dev",
    "methods": {},
    "version": 1
  },
  "userdoc": {
    "kind": "user",
    "methods": {},
    "version": 1
  },
  "storageLayout": {
    "storage": [
      {
        "astId": 4580,
        "contract": "contracts/MockOracle.sol:MockOracle",
        "label": "price",
        "offset": 0,
        "slot": "0",
        "type": "t_int256"
      },
      {
        "astId": 4582,
        "contract": "contracts/MockOracle.sol:MockOracle",
        "label": "decimals",
        "offset": 0,
        "slot": "1",
        "type": "t_uint8"
      },
      {
        "astId": 4584,
        "contract": "contracts/MockOracle.sol:MockOracle",
        "label": "description",
        "offset": 0,
        "slot": "2",
        "type": "t_string_storage"
      },
      {
        "astId": 4587,
        "contract": "contracts/MockOracle.sol:MockOracle",
        "label": "version",
        "offset": 0,
        "slot": "3",
        "type": "t_uint256"
      },
      {
        "astId": 4590,
        "contract": "contracts/MockOracle.sol:MockOracle",
        "label": "roundId",
        "offset": 0,
        "slot": "4",
        "type": "t_uint80"
      }
    ],
    "types": {
      "t_int256": {
        "encoding": "inplace",
        "label": "int256",
        "numberOfBytes": "32"
      },
      "t_string_storage": {
        "encoding": "bytes",
        "label": "string",
        "numberOfBytes": "32"
      },
      "t_uint256": {
        "encoding": "inplace",
        "label": "uint256",
        "numberOfBytes": "32"
      },
      "t_uint8": {
        "encoding": "inplace",
        "label": "uint8",
        "numberOfBytes": "1"
      },
      "t_uint80": {
        "encoding": "inplace",
        "label": "uint80",
        "numberOfBytes": "10"
      }
    }
  }
}