{
  "address": "0xbF0f6C964656D9493B831E72606E4b192AE82cA2",
  "abi": [
    {
      "inputs": [
        {
          "internalType": "contract IOptionPricing",
          "name": "_optionPricing",
          "type": "address"
        },
        {
          "internalType": "contract IBluebirdGrinder",
          "name": "_grinder",
          "type": "address"
        }
      ],
      "stateMutability": "nonpayable",
      "type": "constructor"
    },
    {
      "anonymous": false,
      "inputs": [
        {
          "indexed": true,
          "internalType": "address",
          "name": "_contractAddress",
          "type": "address"
        },
        {
          "indexed": true,
          "internalType": "address",
          "name": "_user",
          "type": "address"
        },
        {
          "indexed": true,
          "internalType": "uint256",
          "name": "_optionId",
          "type": "uint256"
        },
        {
          "indexed": false,
          "internalType": "uint256",
          "name": "_amount",
          "type": "uint256"
        },
        {
          "indexed": false,
          "internalType": "uint256",
          "name": "_premium",
          "type": "uint256"
        },
        {
          "indexed": false,
          "internalType": "uint256",
          "name": "_timestamp",
          "type": "uint256"
        },
        {
          "indexed": false,
          "internalType": "uint256",
          "name": "_epoch",
          "type": "uint256"
        }
      ],
      "name": "Bought",
      "type": "event"
    },
    {
      "anonymous": false,
      "inputs": [
        {
          "indexed": true,
          "internalType": "address",
          "name": "_contractAddress",
          "type": "address"
        },
        {
          "indexed": true,
          "internalType": "uint256",
          "name": "_optionId",
          "type": "uint256"
        },
        {
          "indexed": false,
          "internalType": "uint256",
          "name": "_epoch",
          "type": "uint256"
        },
        {
          "indexed": false,
          "internalType": "address",
          "name": "_nftToken",
          "type": "address"
        },
        {
          "indexed": false,
          "internalType": "uint256",
          "name": "_strikePrice",
          "type": "uint256"
        },
        {
          "indexed": false,
          "internalType": "uint256",
          "name": "_start",
          "type": "uint256"
        },
        {
          "indexed": false,
          "internalType": "uint256",
          "name": "_expiry",
          "type": "uint256"
        }
      ],
      "name": "CallOptionCreated",
      "type": "event"
    },
    {
      "anonymous": false,
      "inputs": [
        {
          "indexed": true,
          "internalType": "address",
          "name": "_contractAddress",
          "type": "address"
        },
        {
          "indexed": true,
          "internalType": "address",
          "name": "_user",
          "type": "address"
        },
        {
          "indexed": true,
          "internalType": "uint256",
          "name": "_id",
          "type": "uint256"
        },
        {
          "indexed": false,
          "internalType": "uint256",
          "name": "_profits",
          "type": "uint256"
        },
        {
          "indexed": false,
          "internalType": "bool",
          "name": "_profit",
          "type": "bool"
        }
      ],
      "name": "Exercised",
      "type": "event"
    },
    {
      "anonymous": false,
      "inputs": [
        {
          "indexed": false,
          "internalType": "address",
          "name": "_opt",
          "type": "address"
        },
        {
          "indexed": false,
          "internalType": "address",
          "name": "_collectionAddress",
          "type": "address"
        },
        {
          "indexed": false,
          "internalType": "address",
          "name": "_nftToken",
          "type": "address"
        }
      ],
      "name": "OptionContractCreated",
      "type": "event"
    },
    {
      "anonymous": false,
      "inputs": [
        {
          "indexed": true,
          "internalType": "address",
          "name": "previousOwner",
          "type": "address"
        },
        {
          "indexed": true,
          "internalType": "address",
          "name": "newOwner",
          "type": "address"
        }
      ],
      "name": "OwnershipTransferred",
      "type": "event"
    },
    {
      "anonymous": false,
      "inputs": [
        {
          "indexed": true,
          "internalType": "address",
          "name": "_contractAddress",
          "type": "address"
        },
        {
          "indexed": true,
          "internalType": "uint256",
          "name": "_optionId",
          "type": "uint256"
        },
        {
          "indexed": false,
          "internalType": "uint256",
          "name": "_epoch",
          "type": "uint256"
        },
        {
          "indexed": false,
          "internalType": "address",
          "name": "_nftToken",
          "type": "address"
        },
        {
          "indexed": false,
          "internalType": "uint256",
          "name": "_strikePrice",
          "type": "uint256"
        },
        {
          "indexed": false,
          "internalType": "uint256",
          "name": "_start",
          "type": "uint256"
        },
        {
          "indexed": false,
          "internalType": "uint256",
          "name": "_expiry",
          "type": "uint256"
        }
      ],
      "name": "PutOptionCreated",
      "type": "event"
    },
    {
      "inputs": [
        {
          "internalType": "address",
          "name": "_collectionAddress",
          "type": "address"
        },
        {
          "internalType": "address",
          "name": "_nftFeedAddress",
          "type": "address"
        }
      ],
      "name": "createOptions",
      "outputs": [],
      "stateMutability": "nonpayable",
      "type": "function"
    },
    {
      "inputs": [
        {
          "internalType": "address",
          "name": "_contractAddress",
          "type": "address"
        },
        {
          "internalType": "address",
          "name": "_user",
          "type": "address"
        },
        {
          "internalType": "uint256",
          "name": "_order",
          "type": "uint256"
        },
        {
          "internalType": "uint256",
          "name": "_amount",
          "type": "uint256"
        },
        {
          "internalType": "uint256",
          "name": "_premium",
          "type": "uint256"
        },
        {
          "internalType": "uint256",
          "name": "_timestamp",
          "type": "uint256"
        },
        {
          "internalType": "uint256",
          "name": "_epoch",
          "type": "uint256"
        }
      ],
      "name": "emitBoughtEvent",
      "outputs": [],
      "stateMutability": "nonpayable",
      "type": "function"
    },
    {
      "inputs": [
        {
          "internalType": "address",
          "name": "_contractAddress",
          "type": "address"
        },
        {
          "internalType": "uint256",
          "name": "_optionId",
          "type": "uint256"
        },
        {
          "internalType": "uint256",
          "name": "_epoch",
          "type": "uint256"
        },
        {
          "internalType": "address",
          "name": "_nftToken",
          "type": "address"
        },
        {
          "internalType": "uint256",
          "name": "_strikePrice",
          "type": "uint256"
        },
        {
          "internalType": "uint256",
          "name": "_start",
          "type": "uint256"
        },
        {
          "internalType": "uint256",
          "name": "_expiry",
          "type": "uint256"
        }
      ],
      "name": "emitCallOptionCreatedEvent",
      "outputs": [],
      "stateMutability": "nonpayable",
      "type": "function"
    },
    {
      "inputs": [
        {
          "internalType": "address",
          "name": "_contractAddress",
          "type": "address"
        },
        {
          "internalType": "address",
          "name": "_user",
          "type": "address"
        },
        {
          "internalType": "uint256",
          "name": "_id",
          "type": "uint256"
        },
        {
          "internalType": "uint256",
          "name": "_pnl",
          "type": "uint256"
        },
        {
          "internalType": "bool",
          "name": "_profit",
          "type": "bool"
        }
      ],
      "name": "emitExerciseEvent",
      "outputs": [],
      "stateMutability": "nonpayable",
      "type": "function"
    },
    {
      "inputs": [
        {
          "internalType": "address",
          "name": "_contractAddress",
          "type": "address"
        },
        {
          "internalType": "uint256",
          "name": "_optionId",
          "type": "uint256"
        },
        {
          "internalType": "uint256",
          "name": "_epoch",
          "type": "uint256"
        },
        {
          "internalType": "address",
          "name": "_nftToken",
          "type": "address"
        },
        {
          "internalType": "uint256",
          "name": "_strikePrice",
          "type": "uint256"
        },
        {
          "internalType": "uint256",
          "name": "_start",
          "type": "uint256"
        },
        {
          "internalType": "uint256",
          "name": "_expiry",
          "type": "uint256"
        }
      ],
      "name": "emitPutOptionCreatedEvent",
      "outputs": [],
      "stateMutability": "nonpayable",
      "type": "function"
    },
    {
      "inputs": [],
      "name": "getOptArray",
      "outputs": [
        {
          "internalType": "address[]",
          "name": "",
          "type": "address[]"
        }
      ],
      "stateMutability": "view",
      "type": "function"
    },
    {
      "inputs": [],
      "name": "grinder",
      "outputs": [
        {
          "internalType": "contract IBluebirdGrinder",
          "name": "",
          "type": "address"
        }
      ],
      "stateMutability": "view",
      "type": "function"
    },
    {
      "inputs": [
        {
          "internalType": "address",
          "name": "",
          "type": "address"
        }
      ],
      "name": "optionExists",
      "outputs": [
        {
          "internalType": "bool",
          "name": "",
          "type": "bool"
        }
      ],
      "stateMutability": "view",
      "type": "function"
    },
    {
      "inputs": [],
      "name": "optionPricing",
      "outputs": [
        {
          "internalType": "contract IOptionPricing",
          "name": "",
          "type": "address"
        }
      ],
      "stateMutability": "view",
      "type": "function"
    },
    {
      "inputs": [],
      "name": "owner",
      "outputs": [
        {
          "internalType": "address",
          "name": "",
          "type": "address"
        }
      ],
      "stateMutability": "view",
      "type": "function"
    },
    {
      "inputs": [],
      "name": "renounceOwnership",
      "outputs": [],
      "stateMutability": "nonpayable",
      "type": "function"
    },
    {
      "inputs": [
        {
          "internalType": "address",
          "name": "newOwner",
          "type": "address"
        }
      ],
      "name": "transferOwnership",
      "outputs": [],
      "stateMutability": "nonpayable",
      "type": "function"
    }
  ],
  "transactionHash": "0x988a0307aa3a868121e892439d1be14145d8c94f6961684ef100352a4ef02671",
  "args": [
    "0xd79EEB728Fe4Fb7229Fa30D0e15A5C91a1D63C63",
    "0x7A5A68f723000b6F99863464d1C3483a4A1A549c"
  ],
  "numDeployments": 1,
  "solcInputHash": "bb9fe4e66b0d4e4d84c249d167520feb",
  "bytecode": "0x608060405234801561001057600080fd5b5060405161369838038061369883398101604081905261002f916100d1565b61003833610069565b600380546001600160a01b039384166001600160a01b0319918216179091556004805492909316911617905561010b565b600080546001600160a01b038381166001600160a01b0319831681178455604051919092169283917f8be0079c531659141344cd1fd0a4f28419497f9722a3daafe3b4186f6b6457e09190a35050565b6001600160a01b03811681146100ce57600080fd5b50565b600080604083850312156100e457600080fd5b82516100ef816100b9565b6020840151909250610100816100b9565b809150509250929050565b61357e8061011a6000396000f3fe60806040523480156200001157600080fd5b5060043610620000c35760003560e01c80638da5cb5b116200007a5780638da5cb5b1462000181578063bee3d1611462000193578063c690579714620001ac578063e29e49fb14620001c3578063f2fde38b14620001d7578063fee0b2a014620001ee57600080fd5b80631646879f14620000c85780631e3394fb14620000e1578063263216a01462000112578063571f1482146200014957806358c41cc31462000160578063715018a61462000177575b600080fd5b620000df620000d9366004620009b2565b62000205565b005b600354620000f5906001600160a01b031681565b6040516001600160a01b0390911681526020015b60405180910390f35b620001386200012336600462000a1c565b60056020526000908152604090205460ff1681565b604051901515815260200162000109565b620000df6200015a36600462000a43565b620002ac565b620000df62000171366004620009b2565b620004e8565b620000df6200057a565b6000546001600160a01b0316620000f5565b6200019d62000592565b60405162000109919062000a81565b620000df620001bd36600462000ad0565b620005a5565b600454620000f5906001600160a01b031681565b620000df620001e836600462000a1c565b6200063d565b620000df620001ff36600462000b3a565b620006bc565b6200021260013362000756565b806200021d57503330145b620002455760405162461bcd60e51b81526004016200023c9062000ba1565b60405180910390fd5b604080518681526001600160a01b038681166020830152918101859052606081018490526080810183905287918916907f7d2ed896fb6db818073ca603e12bd04646f1043d5e271e6c8d3343999dc8f9cf9060a0015b60405180910390a350505050505050565b620002b66200077d565b60048054604051633200bddf60e01b81526001600160a01b038581169382019390935260009290911690633200bddf90602401602060405180830381865afa15801562000307573d6000803e3d6000fd5b505050506040513d601f19601f820116820180604052508101906200032d919062000bed565b90506001600160a01b0381166200037f5760405162461bcd60e51b815260206004820152601560248201527413919508151bdad95b881b9bdd0818dc99585d1959605a1b60448201526064016200023c565b6001600160a01b03811660009081526005602052604090205460ff1615620003f65760405162461bcd60e51b8152602060048201526024808201527f4f7074696f6e7320616c7265616479206372656174656420666f7220746869736044820152630813919560e21b60648201526084016200023c565b60035460405183916000918391859130916001600160a01b03169033906200041e906200098e565b6001600160a01b0395861681529385166020850152918416604084015283166060830152909116608082015260a001604051809103906000f0801580156200046a573d6000803e3d6000fd5b5090506200047a600182620007d9565b506001600160a01b03838116600081815260056020908152604091829020805460ff1916600117905581518585168152938916908401528201527f1efbb0e97f8865812a8d21422b30f678d86b46b09f8a83a5613e4cb9f9859eb39060600160405180910390a15050505050565b620004f560013362000756565b806200050057503330145b6200051f5760405162461bcd60e51b81526004016200023c9062000ba1565b604080518681526001600160a01b038681166020830152918101859052606081018490526080810183905287918916907f93960e277e5f1a1bcf2ecb4638789539be8c5f6fd5482220f93f031296ef55359060a0016200029b565b620005846200077d565b620005906000620007f0565b565b6060620005a0600162000840565b905090565b620005b260013362000756565b80620005bd57503330145b620005dc5760405162461bcd60e51b81526004016200023c9062000ba1565b82846001600160a01b0316866001600160a01b03167f48ce4d1077255ea4b6f98a25f90db5729f884d73101b7e623a9d6f518230dd7a85856040516200062e9291909182521515602082015260400190565b60405180910390a45050505050565b620006476200077d565b6001600160a01b038116620006ae5760405162461bcd60e51b815260206004820152602660248201527f4f776e61626c653a206e6577206f776e657220697320746865207a65726f206160448201526564647265737360d01b60648201526084016200023c565b620006b981620007f0565b50565b620006c960013362000756565b80620006d457503330145b620006f35760405162461bcd60e51b81526004016200023c9062000ba1565b60408051858152602081018590529081018390526060810182905285906001600160a01b0380891691908a16907f8a5254432535d4192429d2cc163283a57784eac274295fcda17cc659c1ee414c9060800160405180910390a450505050505050565b6001600160a01b038116600090815260018301602052604081205415155b90505b92915050565b6000546001600160a01b03163314620005905760405162461bcd60e51b815260206004820181905260248201527f4f776e61626c653a2063616c6c6572206973206e6f7420746865206f776e657260448201526064016200023c565b600062000774836001600160a01b038416620008fc565b600080546001600160a01b038381166001600160a01b0319831681178455604051919092169283917f8be0079c531659141344cd1fd0a4f28419497f9722a3daafe3b4186f6b6457e09190a35050565b606060006200084f836200094e565b905060008167ffffffffffffffff8111156200086f576200086f62000c0d565b60405190808252806020026020018201604052801562000899578160200160208202803683370190505b50905060005b82811015620008f457620008b4858262000959565b828281518110620008c957620008c962000c23565b6001600160a01b0390921660209283029190910190910152620008ec8162000c39565b90506200089f565b509392505050565b6000818152600183016020526040812054620009455750815460018181018455600084815260208082209093018490558454848252828601909352604090209190915562000777565b50600062000777565b600062000777825490565b600062000774838360008260000182815481106200097b576200097b62000c23565b9060005260206000200154905092915050565b6128e58062000c6483390190565b6001600160a01b0381168114620006b957600080fd5b600080600080600080600060e0888a031215620009ce57600080fd5b8735620009db816200099c565b965060208801359550604088013594506060880135620009fb816200099c565b9699959850939660808101359560a0820135955060c0909101359350915050565b60006020828403121562000a2f57600080fd5b813562000a3c816200099c565b9392505050565b6000806040838503121562000a5757600080fd5b823562000a64816200099c565b9150602083013562000a76816200099c565b809150509250929050565b6020808252825182820181905260009190848201906040850190845b8181101562000ac45783516001600160a01b03168352928401929184019160010162000a9d565b50909695505050505050565b600080600080600060a0868803121562000ae957600080fd5b853562000af6816200099c565b9450602086013562000b08816200099c565b935060408601359250606086013591506080860135801515811462000b2c57600080fd5b809150509295509295909350565b600080600080600080600060e0888a03121562000b5657600080fd5b873562000b63816200099c565b9650602088013562000b75816200099c565b96999698505050506040850135946060810135946080820135945060a0820135935060c0909101359150565b6020808252602c908201527f4f6e6c79204f7074696f6e7320436f6e74726163742063616e2063616c6c207460408201526b3434b990333ab731ba34b7b760a11b606082015260800190565b60006020828403121562000c0057600080fd5b815162000a3c816200099c565b634e487b7160e01b600052604160045260246000fd5b634e487b7160e01b600052603260045260246000fd5b600060001982141562000c5c57634e487b7160e01b600052601160045260246000fd5b506001019056fe608060405261012c60065560186008556078600a553480156200002157600080fd5b50604051620028e5380380620028e58339810160408190526200004491620001fa565b6200004f33620000b3565b60018055600280546001600160a01b038088166001600160a01b03199283161790925560038054878416908316179055600480548684169083161790556005805492851692909116919091179055620000a88162000103565b50505050506200027a565b600080546001600160a01b038381166001600160a01b0319831681178455604051919092169283917f8be0079c531659141344cd1fd0a4f28419497f9722a3daafe3b4186f6b6457e09190a35050565b6200010d62000186565b6001600160a01b038116620001785760405162461bcd60e51b815260206004820152602660248201527f4f776e61626c653a206e6577206f776e657220697320746865207a65726f206160448201526564647265737360d01b60648201526084015b60405180910390fd5b6200018381620000b3565b50565b6000546001600160a01b03163314620001e25760405162461bcd60e51b815260206004820181905260248201527f4f776e61626c653a2063616c6c6572206973206e6f7420746865206f776e657260448201526064016200016f565b565b6001600160a01b03811681146200018357600080fd5b600080600080600060a086880312156200021357600080fd5b85516200022081620001e4565b60208701519095506200023381620001e4565b60408701519094506200024681620001e4565b60608701519093506200025981620001e4565b60808701519092506200026c81620001e4565b809150509295509295909350565b61265b806200028a6000396000f3fe6080604052600436106102045760003560e01c80638da5cb5b11610118578063c0c2e53a116100a0578063d6febde81161006f578063d6febde814610652578063e00dd16114610672578063f2fde38b14610688578063f6326fb3146106a8578063fcaa7664146106b057600080fd5b8063c0c2e53a1461059a578063c4912774146105e5578063cfbdfc5f146105fa578063d06fcba81461063257600080fd5b8063a7052ed8116100e7578063a7052ed8146104f9578063b07f0a4114610531578063b28d916a14610544578063b49631e91461055a578063bdf82a221461057a57600080fd5b80638da5cb5b1461049a578063900cf0cf146104b8578063947a36fb146104ce578063a2c8b177146104e457600080fd5b806333b521a61161019b5780634cfe6f931161016a5780634cfe6f93146104245780635e4db5fd146104395780636053937b1461044f578063715018a614610465578063822752081461047a57600080fd5b806333b521a6146103395780633d168294146103c15780634530a2d7146103ee5780634c61670d1461040457600080fd5b8063110bd49b116101d7578063110bd49b146102ab5780631e3394fb146102cb5780631f93d1b31461030357806322a900821461031957600080fd5b806301cceb38146102095780630899b1411461022b57806308f433331461024b57806310a64fc414610296575b600080fd5b34801561021557600080fd5b506102296102243660046122ca565b6106c5565b005b34801561023757600080fd5b506102296102463660046122ca565b6106d2565b34801561025757600080fd5b506102836102663660046122ff565b600f60209081526000928352604080842090915290825290205481565b6040519081526020015b60405180910390f35b3480156102a257600080fd5b506102296106df565b3480156102b757600080fd5b506102836102c6366004612337565b610bd0565b3480156102d757600080fd5b506005546102eb906001600160a01b031681565b6040516001600160a01b03909116815260200161028d565b34801561030f57600080fd5b5061028360075481565b34801561032557600080fd5b506102296103343660046122ca565b610c0e565b34801561034557600080fd5b5061038e6103543660046122ca565b60106020526000908152604090208054600182015460028301546003909301549192909160ff81169061010090046001600160501b031685565b60408051958652602086019490945292840191909152151560608301526001600160501b0316608082015260a00161028d565b3480156103cd57600080fd5b506103e16103dc36600461236f565b610c1b565b60405161028d919061239f565b3480156103fa57600080fd5b5061028360065481565b34801561041057600080fd5b5061022961041f3660046122ca565b610c89565b34801561043057600080fd5b506103e1610dd8565b34801561044557600080fd5b50610283600e5481565b34801561045b57600080fd5b50610283600d5481565b34801561047157600080fd5b50610229610f8b565b34801561048657600080fd5b506102836104953660046123e3565b610f9f565b3480156104a657600080fd5b506000546001600160a01b03166102eb565b3480156104c457600080fd5b5061028360095481565b3480156104da57600080fd5b5061028360085481565b3480156104f057600080fd5b506102296110a7565b34801561050557600080fd5b50600c54610519906001600160501b031681565b6040516001600160501b03909116815260200161028d565b61022961053f3660046122ca565b61111f565b34801561055057600080fd5b50610283600a5481565b34801561056657600080fd5b506004546102eb906001600160a01b031681565b34801561058657600080fd5b506102836105953660046122ca565b611771565b3480156105a657600080fd5b506105d56105b53660046122ff565b601260209081526000928352604080842090915290825290205460ff1681565b604051901515815260200161028d565b3480156105f157600080fd5b5061028361179e565b34801561060657600080fd5b506102836106153660046122ff565b601160209081526000928352604080842090915290825290205481565b34801561063e57600080fd5b506003546102eb906001600160a01b031681565b34801561065e57600080fd5b5061022961066d3660046123e3565b611823565b34801561067e57600080fd5b50610283600b5481565b34801561069457600080fd5b506102296106a3366004612405565b611cda565b610229611d50565b3480156106bc57600080fd5b50610283611e1a565b6106cd611e90565b600655565b6106da611e90565b600a55565b6106e7611e90565b6106ef611e1a565b6001146107515760405162461bcd60e51b815260206004820152602560248201527f4c69717569646974792070726f766964696e672074696d65206e6f74206f76656044820152641c881e595d60da1b60648201526084015b60405180910390fd5b600061075b61179e565b90506000600260009054906101000a90046001600160a01b03166001600160a01b031663feaf968c6040518163ffffffff1660e01b815260040160a060405180830381865afa1580156107b2573d6000803e3d6000fd5b505050506040513d601f19601f820116820180604052508101906107d69190612437565b5050505090506000620f4240836107ed919061249d565b905060006107fc826000611eea565b9050600061080b836001611eea565b9050600042905060006003600d54610823919061249d565b905060006003600e54610836919061249d565b905060005b8551811015610b6e576040518060a00160405280878381518110610861576108616124bf565b602002602001015181526020016006548661087c91906124d5565b81526020808201869052600060408084018290526001600160501b03808e16606095860152600b5483526010845291819020855181559285015160018401558481015160028401559284015160039092018054608090950151909116610100026affffffffffffffffffff0019921515929092166affffffffffffffffffffff199094169390931717909155805160a0810190915285518190879084908110610927576109276124bf565b602002602001015181526020016006548661094291906124d5565b8152602001838152602001600115158152602001896001600160501b031681525060106000600b54600161097691906124d5565b815260208082019290925260409081016000208351815591830151600183015582015160028201556060820151600391820180546080909401516001600160501b0316610100026affffffffffffffffffff0019921515929092166affffffffffffffffffffff199094169390931717909155600454600b54600954925489516001600160a01b0393841694631646879f9430949391929116908c9088908110610a2257610a226124bf565b60200260200101518a6006548c610a3991906124d5565b6040518863ffffffff1660e01b8152600401610a5b97969594939291906124ed565b600060405180830381600087803b158015610a7557600080fd5b505af1158015610a89573d6000803e3d6000fd5b5050600454600b546001600160a01b0390911692506358c41cc391503090610ab29060016124d5565b6009546003548a516001600160a01b03909116908b9088908110610ad857610ad86124bf565b60200260200101518a6006548c610aef91906124d5565b6040518863ffffffff1660e01b8152600401610b1197969594939291906124ed565b600060405180830381600087803b158015610b2b57600080fd5b505af1158015610b3f573d6000803e3d6000fd5b505050506002600b6000828254610b5691906124d5565b90915550819050610b6681612531565b91505061083b565b50600954600090815260136020908152604080832083805282529091208651610b999288019061226a565b5060095460009081526013602090815260408083206001845282529091208551610bc59287019061226a565b505050505050505050565b60136020528260005260406000206020528160005260406000208181548110610bf857600080fd5b9060005260206000200160009250925050505481565b610c16611e90565b600855565b60008281526013602090815260408083208415158452825291829020805483518184028101840190945280845260609392830182828015610c7b57602002820191906000526020600020905b815481526020019060010190808311610c67575b505050505090505b92915050565b610c91612058565b610c99611e1a565b15610cb65760405162461bcd60e51b81526004016107489061254c565b6003546040516323b872dd60e01b8152336004820152306024820152604481018390526001600160a01b03909116906323b872dd906064016020604051808303816000875af1158015610d0d573d6000803e3d6000fd5b505050506040513d601f19601f82011682018060405250810190610d31919061258e565b610d885760405162461bcd60e51b815260206004820152602260248201527f496e636f727265637420616d6f756e74206f66204e465420546f6b656e2073656044820152611b9d60f21b6064820152608401610748565b80600d6000828254610d9a91906124d5565b9091555050336000908152600f6020908152604080832083805290915281208054839290610dc99084906124d5565b90915550506001805550565b50565b6040805160078082526101008201909252606091600091906020820160e080368337019050509050600080600260009054906101000a90046001600160a01b03166001600160a01b031663feaf968c6040518163ffffffff1660e01b815260040160a060405180830381865afa158015610e56573d6000803e3d6000fd5b505050506040513d601f19601f82011682018060405250810190610e7a9190612437565b505050915091508083600081518110610e9557610e956124bf565b602090810291909101015260015b6007811015610f82576002546008546000916001600160a01b031690639a6fc8f590610ed09085906125ab565b610ee3906001600160501b0388166125ca565b6040516001600160e01b031960e084901b1681526001600160501b03909116600482015260240160a060405180830381865afa158015610f27573d6000803e3d6000fd5b505050506040513d601f19601f82011682018060405250810190610f4b9190612437565b50505091505080858381518110610f6457610f646124bf565b60209081029190910101525080610f7a81612531565b915050610ea3565b50919392505050565b610f93611e90565b610f9d60006120b2565b565b600080610faa61179e565b90506000610fbb620f42408361249d565b90506000610fc7610dd8565b90506000610fd482612102565b600554600089815260106020526040908190206003810154600182015491549251630b6f6db160e31b815260ff909116151560048201526024810191909152604481019190915260648101869052608481018390529192506001600160a01b031690635b7b6d889060a401602060405180830381865afa15801561105c573d6000803e3d6000fd5b505050506040513d601f19601f8201168201806040525081019061108091906125e1565b611092670de0b6b3a76400008861249d565b61109c91906125ab565b979650505050505050565b6110af611e1a565b6002146110fe5760405162461bcd60e51b815260206004820152601760248201527f45706f636820686173206e6f7420656e646564207965740000000000000000006044820152606401610748565b4260078190555060016009600082825461111891906124d5565b9091555050565b3360009081526011602090815260408083208484529091529020546111865760405162461bcd60e51b815260206004820152601a60248201527f596f7520646f206e6f74206f776e2074686973206f7074696f6e0000000000006044820152606401610748565b33600090815260126020908152604080832084845290915290205460ff16156111fb5760405162461bcd60e51b815260206004820152602160248201527f4f7074696f6e2068617320616c7265616479206265656e2065786572636973656044820152601960fa1b6064820152608401610748565b60008181526010602052604090206001015442116112535760405162461bcd60e51b815260206004820152601560248201527413dc1d1a5bdb881a5cc81b9bdd08195e1c1a5c9959605a1b6044820152606401610748565b6002546008546000916001600160a01b031690639a6fc8f5906112779060076125ab565b6000858152601060205260409020600301546112a1919061010090046001600160501b03166125fa565b6040516001600160e01b031960e084901b1681526001600160501b03909116600482015260240160a060405180830381865afa1580156112e5573d6000803e3d6000fd5b505050506040513d601f19601f820116820180604052508101906113099190612437565b5050509150506000620f424082611320919061249d565b60008481526010602052604081206003015491925090819060ff166114e1576000858152601060205260409020548311156114dc5750600161136185611771565b91508134146113c85760405162461bcd60e51b815260206004820152602d60248201527f496e636f727265637420616d6f756e74206f66204554482073656e7420746f2060448201526c313abc9027232a102a37b5b2b760991b6064820152608401610748565b6003543360008181526011602090815260408083208a84529091529020546001600160a01b039092169163a9059cbb919061140b90670de0b6b3a76400006125ab565b6040516001600160e01b031960e085901b1681526001600160a01b03909216600483015260248201526044016020604051808303816000875af1158015611456573d6000803e3d6000fd5b505050506040513d601f19601f8201168201806040525081019061147a919061258e565b6114dc5760405162461bcd60e51b815260206004820152602d60248201527f496e73756666696369656e7420616d6f756e74206f66204e465420546f6b656e60448201526c1039b2b73a103a37903ab9b2b960991b6064820152608401610748565b6116d3565b6000858152601060205260409020548310156116d35750600161150385611771565b6003543360008181526011602090815260408083208b84529091529020549294506001600160a01b03909116916323b872dd9190309061154b90670de0b6b3a76400006125ab565b6040516001600160e01b031960e086901b1681526001600160a01b03938416600482015292909116602483015260448201526064016020604051808303816000875af115801561159f573d6000803e3d6000fd5b505050506040513d601f19601f820116820180604052508101906115c3919061258e565b6116295760405162461bcd60e51b815260206004820152603160248201527f496e73756666696369656e7420616d6f756e74206f66204e465420546f6b656e604482015270081cd95b9d081d1bc81c1c9bdd1bd8dbdb607a1b6064820152608401610748565b604051600090339084908381818185875af1925050503d806000811461166b576040519150601f19603f3d011682016040523d82523d6000602084013e611670565b606091505b50509050806116d15760405162461bcd60e51b815260206004820152602760248201527f496e73756666696369656e7420616d6f756e74206f66204554482073656e74206044820152663a37903ab9b2b960c91b6064820152608401610748565b505b33600081815260126020908152604080832089845290915290819020805460ff1916600117905560048054915163c690579760e01b815230918101919091526024810192909252604482018790526064820184905282151560848301526001600160a01b03169063c69057979060a401600060405180830381600087803b15801561175d57600080fd5b505af1158015610bc5573d6000803e3d6000fd5b3360009081526011602090815260408083208484528252808320546010909252822054610c8391906125ab565b600080600260009054906101000a90046001600160a01b03166001600160a01b031663feaf968c6040518163ffffffff1660e01b815260040160a060405180830381865afa1580156117f4573d6000803e3d6000fd5b505050506040513d601f19601f820116820180604052508101906118189190612437565b509195945050505050565b61182b612058565b600082815260106020526040902060010154421061189a5760405162461bcd60e51b815260206004820152602660248201527f4f7074696f6e206973206578706972656420616e642063616e6e6f7420626520604482015265189bdd59da1d60d21b6064820152608401610748565b60008281526010602052604090206003015460ff16801561191d57600e548211156119005760405162461bcd60e51b8152602060048201526016602482015275416d6f756e742065786365656473206d61782062757960501b6044820152606401610748565b81600e600082825461191291906125ca565b909155506119809050565b600d548211156119685760405162461bcd60e51b8152602060048201526016602482015275416d6f756e742065786365656473206d61782062757960501b6044820152606401610748565b81600d600082825461197a91906125ca565b90915550505b6000620f424061198e61179e565b611998919061249d565b600085815260106020526040812060010154919250806119b6610dd8565b905060006119c382612102565b6000898152601060205260409020549091508615611a8757600554604051630b6f6db160e31b815260016004820152602481018790526044810183905260648101889052608481018490526001600160a01b0390911690635b7b6d889060a401602060405180830381865afa158015611a40573d6000803e3d6000fd5b505050506040513d601f19601f82011682018060405250810190611a6491906125e1565b611a76670de0b6b3a76400008a61249d565b611a8091906125ab565b9350611b2f565b600554604051630b6f6db160e31b815260006004820152602481018790526044810183905260648101889052608481018490526001600160a01b0390911690635b7b6d889060a401602060405180830381865afa158015611aec573d6000803e3d6000fd5b505050506040513d601f19601f82011682018060405250810190611b1091906125e1565b611b22670de0b6b3a76400008a61249d565b611b2c91906125ab565b93505b611b41670de0b6b3a76400008961249d565b3360009081526011602090815260408083208d845290915281208054909190611b6b9084906124d5565b9091555060009050611b7d878661249d565b6003546040516323b872dd60e01b8152336004820152306024820152604481018390529192506001600160a01b0316906323b872dd906064016020604051808303816000875af1158015611bd5573d6000803e3d6000fd5b505050506040513d601f19601f82011682018060405250810190611bf9919061258e565b611c3e5760405162461bcd60e51b8152602060048201526016602482015275141c995b5a5d5b481c185e5b595b9d0819985a5b195960521b6044820152606401610748565b600480546009546040516307f7059560e51b81523093810193909352336024840152604483018d9052606483018c9052608483018890524260a484015260c48301526001600160a01b03169063fee0b2a09060e401600060405180830381600087803b158015611cad57600080fd5b505af1158015611cc1573d6000803e3d6000fd5b505050505050505050505050611cd660018055565b5050565b611ce2611e90565b6001600160a01b038116611d475760405162461bcd60e51b815260206004820152602660248201527f4f776e61626c653a206e6577206f776e657220697320746865207a65726f206160448201526564647265737360d01b6064820152608401610748565b610dd5816120b2565b611d58612058565b611d60611e1a565b15611d7d5760405162461bcd60e51b81526004016107489061254c565b60003411611dcd5760405162461bcd60e51b815260206004820152601c60248201527f496e636f727265637420616d6f756e74206f66204554482073656e74000000006044820152606401610748565b34600e6000828254611ddf91906124d5565b9091555050336000908152600f602090815260408083206001845290915281208054349290611e0f9084906124d5565b909155505060018055565b600060075442118015611e3b5750600a54600754611e3891906124d5565b42105b15611e465750600090565b600a54600754611e5691906124d5565b42118015611e7f5750600654600a54600754611e7291906124d5565b611e7c91906124d5565b42105b15611e8a5750600190565b50600290565b6000546001600160a01b03163314610f9d5760405162461bcd60e51b815260206004820181905260248201527f4f776e61626c653a2063616c6c6572206973206e6f7420746865206f776e65726044820152606401610748565b60408051600380825260808201909252606091600091906020820184803683370190505090508215611fb657611f21600a8561249d565b611f2b90856125ca565b81600081518110611f3e57611f3e6124bf565b6020908102919091010152611f5460058561249d565b611f5e90856125ca565b81600181518110611f7157611f716124bf565b6020908102919091010152611f8760038561249d565b611f9190856125ca565b81600281518110611fa457611fa46124bf565b60209081029190910101529050610c83565b611fc1600a8561249d565b611fcb90856124d5565b81600081518110611fde57611fde6124bf565b6020908102919091010152611ff460058561249d565b611ffe90856124d5565b81600181518110612011576120116124bf565b602090810291909101015261202760038561249d565b61203190856124d5565b81600281518110612044576120446124bf565b6020026020010181815250505b9392505050565b600260015414156120ab5760405162461bcd60e51b815260206004820152601f60248201527f5265656e7472616e637947756172643a207265656e7472616e742063616c6c006044820152606401610748565b6002600155565b600080546001600160a01b038381166001600160a01b0319831681178455604051919092169283917f8be0079c531659141344cd1fd0a4f28419497f9722a3daafe3b4186f6b6457e09190a35050565b805160009081805b8281101561214b57848181518110612124576121246124bf565b60200260200101518261213791906124d5565b91508061214381612531565b91505061210a565b50612156828261249d565b90506000805b8381101561220557600083878381518110612179576121796124bf565b602002602001015111156121b3578387838151811061219a5761219a6124bf565b60200260200101516121ac91906125ca565b90506121db565b8682815181106121c5576121c56124bf565b6020026020010151846121d891906125ca565b90505b6121e581806125ab565b6121ef90846124d5565b92505080806121fd90612531565b91505061215c565b506000612212848361249d565b9050600061109c82600080600261222a8460016124d5565b612234919061249d565b9050825b8082101561205157508060028161224f818761249d565b61225991906124d5565b612263919061249d565b9150612238565b8280548282559060005260206000209081019282156122a5579160200282015b828111156122a557825182559160200191906001019061228a565b506122b19291506122b5565b5090565b5b808211156122b157600081556001016122b6565b6000602082840312156122dc57600080fd5b5035919050565b80356001600160a01b03811681146122fa57600080fd5b919050565b6000806040838503121561231257600080fd5b61231b836122e3565b946020939093013593505050565b8015158114610dd557600080fd5b60008060006060848603121561234c57600080fd5b83359250602084013561235e81612329565b929592945050506040919091013590565b6000806040838503121561238257600080fd5b82359150602083013561239481612329565b809150509250929050565b6020808252825182820181905260009190848201906040850190845b818110156123d7578351835292840192918401916001016123bb565b50909695505050505050565b600080604083850312156123f657600080fd5b50508035926020909101359150565b60006020828403121561241757600080fd5b612051826122e3565b80516001600160501b03811681146122fa57600080fd5b600080600080600060a0868803121561244f57600080fd5b61245886612420565b945060208601519350604086015192506060860151915061247b60808701612420565b90509295509295909350565b634e487b7160e01b600052601160045260246000fd5b6000826124ba57634e487b7160e01b600052601260045260246000fd5b500490565b634e487b7160e01b600052603260045260246000fd5b600082198211156124e8576124e8612487565b500190565b6001600160a01b03978816815260208101969096526040860194909452919094166060840152608083019390935260a082019290925260c081019190915260e00190565b600060001982141561254557612545612487565b5060010190565b60208082526022908201527f4c69717569646974792070726f766964696e672074696d652068617320656e64604082015261195960f21b606082015260800190565b6000602082840312156125a057600080fd5b815161205181612329565b60008160001904831182151516156125c5576125c5612487565b500290565b6000828210156125dc576125dc612487565b500390565b6000602082840312156125f357600080fd5b5051919050565b60006001600160501b0380831681851680830382111561261c5761261c612487565b0194935050505056fea26469706673582212208f4c8fabf284d91dacd85e7666f4231de442fd411f1d86f7ba486d5ce530118a64736f6c634300080b0033a264697066735822122044ce5e78497a5526786d32f7c4fccf0dcf261645c2ac7a5ca52c8804d7eaa33b64736f6c634300080b0033",
  "devdoc": {
    "kind": "dev",
    "methods": {
      "constructor": {
        "params": {
          "_grinder": "Bluebird Grinder Contract",
          "_optionPricing": "Option Pricing Contract"
        }
      },
      "createOptions(address,address)": {
        "params": {
          "_collectionAddress": "Collection Address",
          "_nftFeedAddress": "Chainlink Feed Address"
        }
      },
      "emitBoughtEvent(address,address,uint256,uint256,uint256,uint256,uint256)": {
        "params": {
          "_amount": "Amount",
          "_contractAddress": "Address of options contract",
          "_epoch": "Epoch",
          "_order": "Order ID",
          "_premium": "Premium",
          "_timestamp": "Timestamp",
          "_user": "User Address"
        }
      },
      "emitCallOptionCreatedEvent(address,uint256,uint256,address,uint256,uint256,uint256)": {
        "params": {
          "_contractAddress": "Address of options contract",
          "_epoch": "Epoch",
          "_expiry": "Expiry Time",
          "_nftToken": "NFT Token Address",
          "_optionId": "Option ID",
          "_start": "Start Time",
          "_strikePrice": "Strike Price"
        }
      },
      "emitExerciseEvent(address,address,uint256,uint256,bool)": {
        "params": {
          "_contractAddress": "Address of options contract",
          "_id": "Order ID",
          "_pnl": "PnL",
          "_profit": "Profit",
          "_user": "User Address"
        }
      },
      "emitPutOptionCreatedEvent(address,uint256,uint256,address,uint256,uint256,uint256)": {
        "params": {
          "_contractAddress": "Address of options contract",
          "_epoch": "Epoch",
          "_expiry": "Expiry Time",
          "_nftToken": "NFT Token Address",
          "_optionId": "Option ID",
          "_start": "Start Time",
          "_strikePrice": "Strike Price"
        }
      },
      "owner()": {
        "details": "Returns the address of the current owner."
      },
      "renounceOwnership()": {
        "details": "Leaves the contract without owner. It will not be possible to call `onlyOwner` functions anymore. Can only be called by the current owner. NOTE: Renouncing ownership will leave the contract without an owner, thereby removing any functionality that is only available to the owner."
      },
      "transferOwnership(address)": {
        "details": "Transfers ownership of the contract to a new account (`newOwner`). Can only be called by the current owner."
      }
    },
    "title": "BluebirdManager - Manager contracts for Bluebird Options individual contracts",
    "version": 1
  },
  "userdoc": {
    "events": {
      "Bought(address,address,uint256,uint256,uint256,uint256,uint256)": {
        "notice": "Emitted when an option is bought"
      },
      "CallOptionCreated(address,uint256,uint256,address,uint256,uint256,uint256)": {
        "notice": "Emit when Call Option Contract is Created"
      },
      "Exercised(address,address,uint256,uint256,bool)": {
        "notice": "Emitted when a user claims profits"
      },
      "OptionContractCreated(address,address,address)": {
        "notice": "Emitted when new option contract is created"
      },
      "PutOptionCreated(address,uint256,uint256,address,uint256,uint256,uint256)": {
        "notice": "Emit when Put option contract is Created"
      }
    },
    "kind": "user",
    "methods": {
      "constructor": {
        "notice": "Constructor for Bluebird Manager"
      },
      "createOptions(address,address)": {
        "notice": "Create a Put and Call Options for a specified collection for the current epoch"
      },
      "emitBoughtEvent(address,address,uint256,uint256,uint256,uint256,uint256)": {
        "notice": "Proxy function to emit event from options contract"
      },
      "emitCallOptionCreatedEvent(address,uint256,uint256,address,uint256,uint256,uint256)": {
        "notice": "Proxy function to emit event from options contract"
      },
      "emitExerciseEvent(address,address,uint256,uint256,bool)": {
        "notice": "Proxy function to emit event from options contract"
      },
      "emitPutOptionCreatedEvent(address,uint256,uint256,address,uint256,uint256,uint256)": {
        "notice": "Proxy function to emit event from options contract"
      },
      "getOptArray()": {
        "notice": "Function to retrieve options array"
      },
      "grinder()": {
        "notice": "Bluebird Grinder Contract"
      },
      "optionExists(address)": {
        "notice": "Mapping of NFT token address to boolean to check if options have been created"
      },
      "optionPricing()": {
        "notice": "Option Pricing Contract"
      }
    },
    "version": 1
  },
  "storageLayout": {
    "storage": [
      {
        "astId": 148,
        "contract": "contracts/BluebirdManager.sol:BluebirdManager",
        "label": "_owner",
        "offset": 0,
        "slot": "0",
        "type": "t_address"
      },
      {
        "astId": 2238,
        "contract": "contracts/BluebirdManager.sol:BluebirdManager",
        "label": "optArray",
        "offset": 0,
        "slot": "1",
        "type": "t_struct(AddressSet)1500_storage"
      },
      {
        "astId": 2242,
        "contract": "contracts/BluebirdManager.sol:BluebirdManager",
        "label": "optionPricing",
        "offset": 0,
        "slot": "3",
        "type": "t_contract(IOptionPricing)4021"
      },
      {
        "astId": 2246,
        "contract": "contracts/BluebirdManager.sol:BluebirdManager",
        "label": "grinder",
        "offset": 0,
        "slot": "4",
        "type": "t_contract(IBluebirdGrinder)3804"
      },
      {
        "astId": 2251,
        "contract": "contracts/BluebirdManager.sol:BluebirdManager",
        "label": "optionExists",
        "offset": 0,
        "slot": "5",
        "type": "t_mapping(t_address,t_bool)"
      }
    ],
    "types": {
      "t_address": {
        "encoding": "inplace",
        "label": "address",
        "numberOfBytes": "20"
      },
      "t_array(t_bytes32)dyn_storage": {
        "base": "t_bytes32",
        "encoding": "dynamic_array",
        "label": "bytes32[]",
        "numberOfBytes": "32"
      },
      "t_bool": {
        "encoding": "inplace",
        "label": "bool",
        "numberOfBytes": "1"
      },
      "t_bytes32": {
        "encoding": "inplace",
        "label": "bytes32",
        "numberOfBytes": "32"
      },
      "t_contract(IBluebirdGrinder)3804": {
        "encoding": "inplace",
        "label": "contract IBluebirdGrinder",
        "numberOfBytes": "20"
      },
      "t_contract(IOptionPricing)4021": {
        "encoding": "inplace",
        "label": "contract IOptionPricing",
        "numberOfBytes": "20"
      },
      "t_mapping(t_address,t_bool)": {
        "encoding": "mapping",
        "key": "t_address",
        "label": "mapping(address => bool)",
        "numberOfBytes": "32",
        "value": "t_bool"
      },
      "t_mapping(t_bytes32,t_uint256)": {
        "encoding": "mapping",
        "key": "t_bytes32",
        "label": "mapping(bytes32 => uint256)",
        "numberOfBytes": "32",
        "value": "t_uint256"
      },
      "t_struct(AddressSet)1500_storage": {
        "encoding": "inplace",
        "label": "struct EnumerableSet.AddressSet",
        "members": [
          {
            "astId": 1499,
            "contract": "contracts/BluebirdManager.sol:BluebirdManager",
            "label": "_inner",
            "offset": 0,
            "slot": "0",
            "type": "t_struct(Set)1185_storage"
          }
        ],
        "numberOfBytes": "64"
      },
      "t_struct(Set)1185_storage": {
        "encoding": "inplace",
        "label": "struct EnumerableSet.Set",
        "members": [
          {
            "astId": 1180,
            "contract": "contracts/BluebirdManager.sol:BluebirdManager",
            "label": "_values",
            "offset": 0,
            "slot": "0",
            "type": "t_array(t_bytes32)dyn_storage"
          },
          {
            "astId": 1184,
            "contract": "contracts/BluebirdManager.sol:BluebirdManager",
            "label": "_indexes",
            "offset": 0,
            "slot": "1",
            "type": "t_mapping(t_bytes32,t_uint256)"
          }
        ],
        "numberOfBytes": "64"
      },
      "t_uint256": {
        "encoding": "inplace",
        "label": "uint256",
        "numberOfBytes": "32"
      }
    }
  }
}