{
  "address": "0x9c84b49574DBBe735B1ade34DBdA06C8e055eb36",
  "abi": [
    {
      "inputs": [
        {
          "internalType": "contract IOptionPricing",
          "name": "_optionPricing",
          "type": "address"
        },
        {
          "internalType": "contract IBluebirdGrinder",
          "name": "_grinder",
          "type": "address"
        }
      ],
      "stateMutability": "nonpayable",
      "type": "constructor"
    },
    {
      "anonymous": false,
      "inputs": [
        {
          "indexed": true,
          "internalType": "address",
          "name": "_contractAddress",
          "type": "address"
        },
        {
          "indexed": true,
          "internalType": "address",
          "name": "_user",
          "type": "address"
        },
        {
          "indexed": true,
          "internalType": "uint256",
          "name": "_optionId",
          "type": "uint256"
        },
        {
          "indexed": false,
          "internalType": "uint256",
          "name": "_amount",
          "type": "uint256"
        },
        {
          "indexed": false,
          "internalType": "uint256",
          "name": "_premium",
          "type": "uint256"
        },
        {
          "indexed": false,
          "internalType": "uint256",
          "name": "_timestamp",
          "type": "uint256"
        },
        {
          "indexed": false,
          "internalType": "uint256",
          "name": "_epoch",
          "type": "uint256"
        }
      ],
      "name": "Bought",
      "type": "event"
    },
    {
      "anonymous": false,
      "inputs": [
        {
          "indexed": true,
          "internalType": "address",
          "name": "_contractAddress",
          "type": "address"
        },
        {
          "indexed": true,
          "internalType": "uint256",
          "name": "_optionId",
          "type": "uint256"
        },
        {
          "indexed": false,
          "internalType": "uint256",
          "name": "_epoch",
          "type": "uint256"
        },
        {
          "indexed": false,
          "internalType": "address",
          "name": "_nftToken",
          "type": "address"
        },
        {
          "indexed": false,
          "internalType": "uint256",
          "name": "_strikePrice",
          "type": "uint256"
        },
        {
          "indexed": false,
          "internalType": "uint256",
          "name": "_start",
          "type": "uint256"
        },
        {
          "indexed": false,
          "internalType": "uint256",
          "name": "_expiry",
          "type": "uint256"
        }
      ],
      "name": "CallOptionCreated",
      "type": "event"
    },
    {
      "anonymous": false,
      "inputs": [
        {
          "indexed": true,
          "internalType": "address",
          "name": "_contractAddress",
          "type": "address"
        },
        {
          "indexed": true,
          "internalType": "address",
          "name": "_user",
          "type": "address"
        },
        {
          "indexed": true,
          "internalType": "uint256",
          "name": "_id",
          "type": "uint256"
        },
        {
          "indexed": false,
          "internalType": "uint256",
          "name": "_profits",
          "type": "uint256"
        },
        {
          "indexed": false,
          "internalType": "bool",
          "name": "_profit",
          "type": "bool"
        }
      ],
      "name": "Exercised",
      "type": "event"
    },
    {
      "anonymous": false,
      "inputs": [
        {
          "indexed": true,
          "internalType": "address",
          "name": "previousOwner",
          "type": "address"
        },
        {
          "indexed": true,
          "internalType": "address",
          "name": "newOwner",
          "type": "address"
        }
      ],
      "name": "OwnershipTransferred",
      "type": "event"
    },
    {
      "anonymous": false,
      "inputs": [
        {
          "indexed": true,
          "internalType": "address",
          "name": "_contractAddress",
          "type": "address"
        },
        {
          "indexed": true,
          "internalType": "uint256",
          "name": "_optionId",
          "type": "uint256"
        },
        {
          "indexed": false,
          "internalType": "uint256",
          "name": "_epoch",
          "type": "uint256"
        },
        {
          "indexed": false,
          "internalType": "address",
          "name": "_nftToken",
          "type": "address"
        },
        {
          "indexed": false,
          "internalType": "uint256",
          "name": "_strikePrice",
          "type": "uint256"
        },
        {
          "indexed": false,
          "internalType": "uint256",
          "name": "_start",
          "type": "uint256"
        },
        {
          "indexed": false,
          "internalType": "uint256",
          "name": "_expiry",
          "type": "uint256"
        }
      ],
      "name": "PutOptionCreated",
      "type": "event"
    },
    {
      "inputs": [
        {
          "internalType": "address",
          "name": "_collectionAddress",
          "type": "address"
        },
        {
          "internalType": "address",
          "name": "_nftFeedAddress",
          "type": "address"
        }
      ],
      "name": "createOptions",
      "outputs": [],
      "stateMutability": "nonpayable",
      "type": "function"
    },
    {
      "inputs": [
        {
          "internalType": "address",
          "name": "_contractAddress",
          "type": "address"
        },
        {
          "internalType": "address",
          "name": "_user",
          "type": "address"
        },
        {
          "internalType": "uint256",
          "name": "_order",
          "type": "uint256"
        },
        {
          "internalType": "uint256",
          "name": "_amount",
          "type": "uint256"
        },
        {
          "internalType": "uint256",
          "name": "_premium",
          "type": "uint256"
        },
        {
          "internalType": "uint256",
          "name": "_timestamp",
          "type": "uint256"
        },
        {
          "internalType": "uint256",
          "name": "_epoch",
          "type": "uint256"
        }
      ],
      "name": "emitBoughtEvent",
      "outputs": [],
      "stateMutability": "nonpayable",
      "type": "function"
    },
    {
      "inputs": [
        {
          "internalType": "address",
          "name": "_contractAddress",
          "type": "address"
        },
        {
          "internalType": "uint256",
          "name": "_optionId",
          "type": "uint256"
        },
        {
          "internalType": "uint256",
          "name": "_epoch",
          "type": "uint256"
        },
        {
          "internalType": "address",
          "name": "_nftToken",
          "type": "address"
        },
        {
          "internalType": "uint256",
          "name": "_strikePrice",
          "type": "uint256"
        },
        {
          "internalType": "uint256",
          "name": "_start",
          "type": "uint256"
        },
        {
          "internalType": "uint256",
          "name": "_expiry",
          "type": "uint256"
        }
      ],
      "name": "emitCallOptionCreatedEvent",
      "outputs": [],
      "stateMutability": "nonpayable",
      "type": "function"
    },
    {
      "inputs": [
        {
          "internalType": "address",
          "name": "_contractAddress",
          "type": "address"
        },
        {
          "internalType": "address",
          "name": "_user",
          "type": "address"
        },
        {
          "internalType": "uint256",
          "name": "_id",
          "type": "uint256"
        },
        {
          "internalType": "uint256",
          "name": "_pnl",
          "type": "uint256"
        },
        {
          "internalType": "bool",
          "name": "_profit",
          "type": "bool"
        }
      ],
      "name": "emitExerciseEvent",
      "outputs": [],
      "stateMutability": "nonpayable",
      "type": "function"
    },
    {
      "inputs": [
        {
          "internalType": "address",
          "name": "_contractAddress",
          "type": "address"
        },
        {
          "internalType": "uint256",
          "name": "_optionId",
          "type": "uint256"
        },
        {
          "internalType": "uint256",
          "name": "_epoch",
          "type": "uint256"
        },
        {
          "internalType": "address",
          "name": "_nftToken",
          "type": "address"
        },
        {
          "internalType": "uint256",
          "name": "_strikePrice",
          "type": "uint256"
        },
        {
          "internalType": "uint256",
          "name": "_start",
          "type": "uint256"
        },
        {
          "internalType": "uint256",
          "name": "_expiry",
          "type": "uint256"
        }
      ],
      "name": "emitPutOptionCreatedEvent",
      "outputs": [],
      "stateMutability": "nonpayable",
      "type": "function"
    },
    {
      "inputs": [],
      "name": "getOptArray",
      "outputs": [
        {
          "internalType": "address[]",
          "name": "",
          "type": "address[]"
        }
      ],
      "stateMutability": "view",
      "type": "function"
    },
    {
      "inputs": [],
      "name": "grinder",
      "outputs": [
        {
          "internalType": "contract IBluebirdGrinder",
          "name": "",
          "type": "address"
        }
      ],
      "stateMutability": "view",
      "type": "function"
    },
    {
      "inputs": [],
      "name": "optionPricing",
      "outputs": [
        {
          "internalType": "contract IOptionPricing",
          "name": "",
          "type": "address"
        }
      ],
      "stateMutability": "view",
      "type": "function"
    },
    {
      "inputs": [],
      "name": "owner",
      "outputs": [
        {
          "internalType": "address",
          "name": "",
          "type": "address"
        }
      ],
      "stateMutability": "view",
      "type": "function"
    },
    {
      "inputs": [],
      "name": "renounceOwnership",
      "outputs": [],
      "stateMutability": "nonpayable",
      "type": "function"
    },
    {
      "inputs": [
        {
          "internalType": "address",
          "name": "newOwner",
          "type": "address"
        }
      ],
      "name": "transferOwnership",
      "outputs": [],
      "stateMutability": "nonpayable",
      "type": "function"
    }
  ],
  "transactionHash": "0xe271c2b2f09761c57fd666cf44388ab3c9e1c549f9a55a4c9da9a729b2cee1e1",
  "args": [
    "0x1588996B29513f00C63c979A1b28b1454B1639F6",
    "0xeBCbEe60876e4481DcFBAE8A2983ebBc49AD624c"
  ],
  "numDeployments": 1,
  "solcInputHash": "42f746092a64584765ca017ec46597e2",
  "bytecode": "0x608060405234801561001057600080fd5b506040516133d03803806133d083398101604081905261002f916100d1565b61003833610069565b600380546001600160a01b039384166001600160a01b0319918216179091556004805492909316911617905561010b565b600080546001600160a01b038381166001600160a01b0319831681178455604051919092169283917f8be0079c531659141344cd1fd0a4f28419497f9722a3daafe3b4186f6b6457e09190a35050565b6001600160a01b03811681146100ce57600080fd5b50565b600080604083850312156100e457600080fd5b82516100ef816100b9565b6020840151909250610100816100b9565b809150509250929050565b6132b68061011a6000396000f3fe60806040523480156200001157600080fd5b5060043610620000b75760003560e01c80638da5cb5b116200007a5780638da5cb5b146200013e578063bee3d1611462000150578063c69057971462000169578063e29e49fb1462000180578063f2fde38b1462000194578063fee0b2a014620001ab57600080fd5b80631646879f14620000bc5780631e3394fb14620000d5578063571f1482146200010657806358c41cc3146200011d578063715018a61462000134575b600080fd5b620000d3620000cd36600462000892565b620001c2565b005b600354620000e9906001600160a01b031681565b6040516001600160a01b0390911681526020015b60405180910390f35b620000d362000117366004620008fc565b62000269565b620000d36200012e36600462000892565b620003c8565b620000d36200045a565b6000546001600160a01b0316620000e9565b6200015a62000472565b604051620000fd91906200093a565b620000d36200017a36600462000989565b62000485565b600454620000e9906001600160a01b031681565b620000d3620001a5366004620009f3565b6200051d565b620000d3620001bc36600462000a1a565b6200059c565b620001cf60013362000636565b80620001da57503330145b620002025760405162461bcd60e51b8152600401620001f99062000a81565b60405180910390fd5b604080518681526001600160a01b038681166020830152918101859052606081018490526080810183905287918916907f7d2ed896fb6db818073ca603e12bd04646f1043d5e271e6c8d3343999dc8f9cf9060a0015b60405180910390a350505050505050565b620002736200065d565b60048054604051633200bddf60e01b81526001600160a01b038581169382019390935260009290911690633200bddf90602401602060405180830381865afa158015620002c4573d6000803e3d6000fd5b505050506040513d601f19601f82011682018060405250810190620002ea919062000acd565b90506001600160a01b0381166200033c5760405162461bcd60e51b815260206004820152601560248201527413919508151bdad95b881b9bdd0818dc99585d1959605a1b6044820152606401620001f9565b60035460405183916000918391859130916001600160a01b031690339062000364906200086e565b6001600160a01b0395861681529385166020850152918416604084015283166060830152909116608082015260a001604051809103906000f080158015620003b0573d6000803e3d6000fd5b509050620003c0600182620006b9565b505050505050565b620003d560013362000636565b80620003e057503330145b620003ff5760405162461bcd60e51b8152600401620001f99062000a81565b604080518681526001600160a01b038681166020830152918101859052606081018490526080810183905287918916907f93960e277e5f1a1bcf2ecb4638789539be8c5f6fd5482220f93f031296ef55359060a00162000258565b620004646200065d565b620004706000620006d0565b565b606062000480600162000720565b905090565b6200049260013362000636565b806200049d57503330145b620004bc5760405162461bcd60e51b8152600401620001f99062000a81565b82846001600160a01b0316866001600160a01b03167f48ce4d1077255ea4b6f98a25f90db5729f884d73101b7e623a9d6f518230dd7a85856040516200050e9291909182521515602082015260400190565b60405180910390a45050505050565b620005276200065d565b6001600160a01b0381166200058e5760405162461bcd60e51b815260206004820152602660248201527f4f776e61626c653a206e6577206f776e657220697320746865207a65726f206160448201526564647265737360d01b6064820152608401620001f9565b6200059981620006d0565b50565b620005a960013362000636565b80620005b457503330145b620005d35760405162461bcd60e51b8152600401620001f99062000a81565b60408051858152602081018590529081018390526060810182905285906001600160a01b0380891691908a16907f8a5254432535d4192429d2cc163283a57784eac274295fcda17cc659c1ee414c9060800160405180910390a450505050505050565b6001600160a01b038116600090815260018301602052604081205415155b90505b92915050565b6000546001600160a01b03163314620004705760405162461bcd60e51b815260206004820181905260248201527f4f776e61626c653a2063616c6c6572206973206e6f7420746865206f776e65726044820152606401620001f9565b600062000654836001600160a01b038416620007dc565b600080546001600160a01b038381166001600160a01b0319831681178455604051919092169283917f8be0079c531659141344cd1fd0a4f28419497f9722a3daafe3b4186f6b6457e09190a35050565b606060006200072f836200082e565b905060008167ffffffffffffffff8111156200074f576200074f62000aed565b60405190808252806020026020018201604052801562000779578160200160208202803683370190505b50905060005b82811015620007d45762000794858262000839565b828281518110620007a957620007a962000b03565b6001600160a01b0390921660209283029190910190910152620007cc8162000b19565b90506200077f565b509392505050565b6000818152600183016020526040812054620008255750815460018181018455600084815260208082209093018490558454848252828601909352604090209190915562000657565b50600062000657565b600062000657825490565b600062000654838360008260000182815481106200085b576200085b62000b03565b9060005260206000200154905092915050565b61273d8062000b4483390190565b6001600160a01b03811681146200059957600080fd5b600080600080600080600060e0888a031215620008ae57600080fd5b8735620008bb816200087c565b965060208801359550604088013594506060880135620008db816200087c565b9699959850939660808101359560a0820135955060c0909101359350915050565b600080604083850312156200091057600080fd5b82356200091d816200087c565b915060208301356200092f816200087c565b809150509250929050565b6020808252825182820181905260009190848201906040850190845b818110156200097d5783516001600160a01b03168352928401929184019160010162000956565b50909695505050505050565b600080600080600060a08688031215620009a257600080fd5b8535620009af816200087c565b94506020860135620009c1816200087c565b9350604086013592506060860135915060808601358015158114620009e557600080fd5b809150509295509295909350565b60006020828403121562000a0657600080fd5b813562000a13816200087c565b9392505050565b600080600080600080600060e0888a03121562000a3657600080fd5b873562000a43816200087c565b9650602088013562000a55816200087c565b96999698505050506040850135946060810135946080820135945060a0820135935060c0909101359150565b6020808252602c908201527f4f6e6c79204f7074696f6e7320436f6e74726163742063616e2063616c6c207460408201526b3434b990333ab731ba34b7b760a11b606082015260800190565b60006020828403121562000ae057600080fd5b815162000a13816200087c565b634e487b7160e01b600052604160045260246000fd5b634e487b7160e01b600052603260045260246000fd5b600060001982141562000b3c57634e487b7160e01b600052601160045260246000fd5b506001019056fe60806040526201518060065560786009553480156200001d57600080fd5b506040516200273d3803806200273d8339810160408190526200004091620001f6565b6200004b33620000af565b60018055600280546001600160a01b038088166001600160a01b03199283161790925560038054878416908316179055600480548684169083161790556005805492851692909116919091179055620000a481620000ff565b505050505062000276565b600080546001600160a01b038381166001600160a01b0319831681178455604051919092169283917f8be0079c531659141344cd1fd0a4f28419497f9722a3daafe3b4186f6b6457e09190a35050565b6200010962000182565b6001600160a01b038116620001745760405162461bcd60e51b815260206004820152602660248201527f4f776e61626c653a206e6577206f776e657220697320746865207a65726f206160448201526564647265737360d01b60648201526084015b60405180910390fd5b6200017f81620000af565b50565b6000546001600160a01b03163314620001de5760405162461bcd60e51b815260206004820181905260248201527f4f776e61626c653a2063616c6c6572206973206e6f7420746865206f776e657260448201526064016200016b565b565b6001600160a01b03811681146200017f57600080fd5b600080600080600060a086880312156200020f57600080fd5b85516200021c81620001e0565b60208701519095506200022f81620001e0565b60408701519094506200024281620001e0565b60608701519093506200025581620001e0565b60808701519092506200026881620001e0565b809150509295509295909350565b6124b780620002866000396000f3fe6080604052600436106101e35760003560e01c80638da5cb5b11610102578063c491277411610095578063e00dd16111610064578063e00dd161146105b5578063f2fde38b146105cb578063f6326fb3146105eb578063fcaa7664146105f357600080fd5b8063c491277414610535578063cfbdfc5f1461054a578063d06fcba814610582578063d6febde8146105a257600080fd5b8063b28d916a116100d1578063b28d916a14610494578063b49631e9146104aa578063bdf82a22146104ca578063c0c2e53a146104ea57600080fd5b80638da5cb5b14610438578063900cf0cf14610456578063a2c8b1771461046c578063b07f0a411461048157600080fd5b806333b521a61161017a5780634cfe6f93116101495780634cfe6f93146103e25780635e4db5fd146103f75780636053937b1461040d578063715018a61461042357600080fd5b806333b521a6146103185780633d1682941461037f5780634530a2d7146103ac5780634c61670d146103c257600080fd5b8063110bd49b116101b6578063110bd49b1461028a5780631bf1fffb146102aa5780631e3394fb146102ca5780631f93d1b31461030257600080fd5b806301cceb38146101e85780630899b1411461020a57806308f433331461022a57806310a64fc414610275575b600080fd5b3480156101f457600080fd5b506102086102033660046120b2565b610608565b005b34801561021657600080fd5b506102086102253660046120b2565b610615565b34801561023657600080fd5b506102626102453660046120e7565b600d60209081526000928352604080842090915290825290205481565b6040519081526020015b60405180910390f35b34801561028157600080fd5b50610208610622565b34801561029657600080fd5b506102626102a536600461211f565b610a16565b3480156102b657600080fd5b506102626102c53660046120b2565b610a54565b3480156102d657600080fd5b506005546102ea906001600160a01b031681565b6040516001600160a01b03909116815260200161026c565b34801561030e57600080fd5b5061026260075481565b34801561032457600080fd5b5061035d6103333660046120b2565b600e6020526000908152604090208054600182015460028301546003909301549192909160ff1684565b604080519485526020850193909352918301521515606082015260800161026c565b34801561038b57600080fd5b5061039f61039a366004612157565b610b3f565b60405161026c9190612187565b3480156103b857600080fd5b5061026260065481565b3480156103ce57600080fd5b506102086103dd3660046120b2565b610bad565b3480156103ee57600080fd5b5061039f610cfc565b34801561040357600080fd5b50610262600c5481565b34801561041957600080fd5b50610262600b5481565b34801561042f57600080fd5b50610208610e40565b34801561044457600080fd5b506000546001600160a01b03166102ea565b34801561046257600080fd5b5061026260085481565b34801561047857600080fd5b50610208610e54565b61020861048f3660046120b2565b610ecc565b3480156104a057600080fd5b5061026260095481565b3480156104b657600080fd5b506004546102ea906001600160a01b031681565b3480156104d657600080fd5b506102626104e53660046120b2565b611429565b3480156104f657600080fd5b506105256105053660046120e7565b601060209081526000928352604080842090915290825290205460ff1681565b604051901515815260200161026c565b34801561054157600080fd5b50610262611456565b34801561055657600080fd5b506102626105653660046120e7565b600f60209081526000928352604080842090915290825290205481565b34801561058e57600080fd5b506003546102ea906001600160a01b031681565b6102086105b03660046121cb565b6114db565b3480156105c157600080fd5b50610262600a5481565b3480156105d757600080fd5b506102086105e63660046121ed565b6119d9565b610208611a4f565b3480156105ff57600080fd5b50610262611b19565b610610611c04565b600655565b61061d611c04565b600955565b61062a611c04565b610632611b19565b6001146106945760405162461bcd60e51b815260206004820152602560248201527f4c69717569646974792070726f766964696e672074696d65206e6f74206f76656044820152641c881e595d60da1b60648201526084015b60405180910390fd5b600061069e611456565b905060006106af620f42408361221e565b905060006106be826000611c5e565b905060006106cd836001611c5e565b9050600042905060006003600b546106e5919061221e565b905060006003600c546106f8919061221e565b905060005b85518110156109b557604051806080016040528087838151811061072357610723612240565b602002602001015181526020016006548661073e9190612256565b8152602080820186905260006040928301819052600a548152600e8252829020835181559083015160018201558282015160028201556060909201516003909201805460ff191692151592909217909155805160808101909152855181908790849081106107ae576107ae612240565b60200260200101518152602001600654866107c99190612256565b815260200183815260200160011515815250600e6000600a5460016107ee9190612256565b815260208082019290925260409081016000208351815591830151600183015582015160028201556060909101516003918201805460ff1916911515919091179055600454600a54600854925489516001600160a01b0393841694631646879f9430949391929116908c908890811061086957610869612240565b60200260200101518a6006548c6108809190612256565b6040518863ffffffff1660e01b81526004016108a2979695949392919061226e565b600060405180830381600087803b1580156108bc57600080fd5b505af11580156108d0573d6000803e3d6000fd5b5050600454600a546001600160a01b0390911692506358c41cc3915030906108f9906001612256565b6008546003548b516001600160a01b03909116908c908890811061091f5761091f612240565b60200260200101518a6006548c6109369190612256565b6040518863ffffffff1660e01b8152600401610958979695949392919061226e565b600060405180830381600087803b15801561097257600080fd5b505af1158015610986573d6000803e3d6000fd5b505050506002600a600082825461099d9190612256565b909155508190506109ad816122b2565b9150506106fd565b506008546000908152601160209081526040808320838052825290912086516109e092880190612052565b5060085460009081526011602090815260408083206001845282529091208551610a0c92870190612052565b5050505050505050565b60116020528260005260406000206020528160005260406000208181548110610a3e57600080fd5b9060005260206000200160009250925050505481565b600080610a5f611456565b90506000610a70620f42408361221e565b90506000610a7c610cfc565b90506000610a8982611dcc565b6005546000888152600e6020526040908190206003810154600182015491549251630b6f6db160e31b815260ff909116151560048201526024810191909152604481019190915260648101869052608481018390529192506001600160a01b031690635b7b6d889060a401602060405180830381865afa158015610b11573d6000803e3d6000fd5b505050506040513d601f19601f82011682018060405250810190610b3591906122cd565b9695505050505050565b60008281526011602090815260408083208415158452825291829020805483518184028101840190945280845260609392830182828015610b9f57602002820191906000526020600020905b815481526020019060010190808311610b8b575b505050505090505b92915050565b610bb5611ef4565b610bbd611b19565b15610bda5760405162461bcd60e51b815260040161068b906122e6565b6003546040516323b872dd60e01b8152336004820152306024820152604481018390526001600160a01b03909116906323b872dd906064016020604051808303816000875af1158015610c31573d6000803e3d6000fd5b505050506040513d601f19601f82011682018060405250810190610c559190612328565b610cac5760405162461bcd60e51b815260206004820152602260248201527f496e636f727265637420616d6f756e74206f66204e465420546f6b656e2073656044820152611b9d60f21b606482015260840161068b565b80600b6000828254610cbe9190612256565b9091555050336000908152600d6020908152604080832083805290915281208054839290610ced908490612256565b90915550506001805550565b50565b6040805160078082526101008201909252606091600091906020820160e08036833701905050905067e0d1f62b3154000081600081518110610d4057610d40612240565b60200260200101818152505067eeb2acded8b8000081600181518110610d6857610d68612240565b60200260200101818152505067df6eb0b2d3ca000081600281518110610d9057610d90612240565b60200260200101818152505067e4fbc69449f2000081600381518110610db857610db8612240565b60200260200101818152505067e2353ba38ede000081600481518110610de057610de0612240565b60200260200101818152505067b9f65d00f63c000081600581518110610e0857610e08612240565b60200260200101818152505067e0d1f62b3154000081600681518110610e3057610e30612240565b6020908102919091010152919050565b610e48611c04565b610e526000611f4e565b565b610e5c611b19565b600214610eab5760405162461bcd60e51b815260206004820152601760248201527f45706f636820686173206e6f7420656e64656420796574000000000000000000604482015260640161068b565b42600781905550600160086000828254610ec59190612256565b9091555050565b336000908152600f60209081526040808320848452909152902054610f335760405162461bcd60e51b815260206004820152601a60248201527f596f7520646f206e6f74206f776e2074686973206f7074696f6e000000000000604482015260640161068b565b33600090815260106020908152604080832084845290915290205460ff1615610fa85760405162461bcd60e51b815260206004820152602160248201527f4f7074696f6e2068617320616c7265616479206265656e2065786572636973656044820152601960fa1b606482015260840161068b565b6000818152600e602052604090206001015442116110005760405162461bcd60e51b815260206004820152601560248201527413dc1d1a5bdb881a5cc81b9bdd08195e1c1a5c9959605a1b604482015260640161068b565b6000620f424061100e611456565b611018919061221e565b6000838152600e602052604081206003015491925090819060ff166111d9576000848152600e60205260409020548311156111d45750600161105984611429565b91508134146110c05760405162461bcd60e51b815260206004820152602d60248201527f496e636f727265637420616d6f756e74206f66204554482073656e7420746f2060448201526c313abc9027232a102a37b5b2b760991b606482015260840161068b565b600354336000818152600f602090815260408083208984529091529020546001600160a01b039092169163a9059cbb919061110390670de0b6b3a7640000612345565b6040516001600160e01b031960e085901b1681526001600160a01b03909216600483015260248201526044016020604051808303816000875af115801561114e573d6000803e3d6000fd5b505050506040513d601f19601f820116820180604052508101906111729190612328565b6111d45760405162461bcd60e51b815260206004820152602d60248201527f496e73756666696369656e7420616d6f756e74206f66204e465420546f6b656e60448201526c1039b2b73a103a37903ab9b2b960991b606482015260840161068b565b61138b565b6000848152600e602052604090205483101561138b575060016111fb84611429565b600354336000818152600f602090815260408083208a84529091529020549294506001600160a01b03909116916323b872dd9190309061124390670de0b6b3a7640000612345565b6040516001600160e01b031960e086901b1681526001600160a01b03938416600482015292909116602483015260448201526064016020604051808303816000875af1158015611297573d6000803e3d6000fd5b505050506040513d601f19601f820116820180604052508101906112bb9190612328565b6113215760405162461bcd60e51b815260206004820152603160248201527f496e73756666696369656e7420616d6f756e74206f66204e465420546f6b656e604482015270081cd95b9d081d1bc81c1c9bdd1bd8dbdb607a1b606482015260840161068b565b604051600090339084908381818185875af1925050503d8060008114611363576040519150601f19603f3d011682016040523d82523d6000602084013e611368565b606091505b50509050806113895760405162461bcd60e51b815260040161068b90612364565b505b33600081815260106020908152604080832088845290915290819020805460ff1916600117905560048054915163c690579760e01b815230918101919091526024810192909252604482018690526064820184905282151560848301526001600160a01b03169063c69057979060a401600060405180830381600087803b15801561141557600080fd5b505af1158015610a0c573d6000803e3d6000fd5b336000908152600f60209081526040808320848452825280832054600e909252822054610ba79190612345565b600080600260009054906101000a90046001600160a01b03166001600160a01b031663feaf968c6040518163ffffffff1660e01b815260040160a060405180830381865afa1580156114ac573d6000803e3d6000fd5b505050506040513d601f19601f820116820180604052508101906114d091906123c5565b509195945050505050565b6114e3611ef4565b6000828152600e602052604090206001015442106115525760405162461bcd60e51b815260206004820152602660248201527f4f7074696f6e206973206578706972656420616e642063616e6e6f7420626520604482015265189bdd59da1d60d21b606482015260840161068b565b6000828152600e602052604090206003015460ff1680156115d557600c548211156115b85760405162461bcd60e51b8152602060048201526016602482015275416d6f756e742065786365656473206d61782062757960501b604482015260640161068b565b81600c60008282546115ca9190612415565b909155506116389050565b600b548211156116205760405162461bcd60e51b8152602060048201526016602482015275416d6f756e742065786365656473206d61782062757960501b604482015260640161068b565b81600b60008282546116329190612415565b90915550505b6000620f4240611646611456565b611650919061221e565b6000858152600e60205260408120600101549192508061166e610cfc565b9050600061167b82611dcc565b6000898152600e6020526040902054909150861561172357600554604051630b6f6db160e31b815260016004820152602481018790526044810183905260648101889052608481018490526001600160a01b0390911690635b7b6d889060a401602060405180830381865afa1580156116f8573d6000803e3d6000fd5b505050506040513d601f19601f8201168201806040525081019061171c91906122cd565b93506117af565b600554604051630b6f6db160e31b815260006004820152602481018790526044810183905260648101889052608481018490526001600160a01b0390911690635b7b6d889060a401602060405180830381865afa158015611788573d6000803e3d6000fd5b505050506040513d601f19601f820116820180604052508101906117ac91906122cd565b93505b6117c1670de0b6b3a76400008961221e565b336000908152600f602090815260408083208d8452909152812080549091906117eb908490612256565b90915550600090506117fd878661221e565b6003546040516323b872dd60e01b8152336004820152306024820152604481018390529192506001600160a01b0316906323b872dd906064016020604051808303816000875af1158015611855573d6000803e3d6000fd5b505050506040513d601f19601f820116820180604052508101906118799190612328565b6118be5760405162461bcd60e51b8152602060048201526016602482015275141c995b5a5d5b481c185e5b595b9d0819985a5b195960521b604482015260640161068b565b60006118ca8634612415565b9050801561193c57604051600090339083908381818185875af1925050503d8060008114611914576040519150601f19603f3d011682016040523d82523d6000602084013e611919565b606091505b505090508061193a5760405162461bcd60e51b815260040161068b90612364565b505b600480546008546040516307f7059560e51b81523093810193909352336024840152604483018e9052606483018d9052608483018990524260a484015260c48301526001600160a01b03169063fee0b2a09060e401600060405180830381600087803b1580156119ab57600080fd5b505af11580156119bf573d6000803e3d6000fd5b505050505050505050505050506119d560018055565b5050565b6119e1611c04565b6001600160a01b038116611a465760405162461bcd60e51b815260206004820152602660248201527f4f776e61626c653a206e6577206f776e657220697320746865207a65726f206160448201526564647265737360d01b606482015260840161068b565b610cf981611f4e565b611a57611ef4565b611a5f611b19565b15611a7c5760405162461bcd60e51b815260040161068b906122e6565b60003411611acc5760405162461bcd60e51b815260206004820152601c60248201527f496e636f727265637420616d6f756e74206f66204554482073656e7400000000604482015260640161068b565b34600c6000828254611ade9190612256565b9091555050336000908152600d602090815260408083206001845290915281208054349290611b0e908490612256565b909155505060018055565b600060075442118015611b3a5750600954600754611b379190612256565b42105b15611b6e5760009050611b6b604051806040016040528060078152602001660537461676520360cc1b815250611f9e565b90565b600954600754611b7e9190612256565b42118015611ba75750600654600954600754611b9a9190612256565b611ba49190612256565b42105b15611bd85760019050611b6b604051806040016040528060078152602001665374616765203160c81b815250611f9e565b60029050611b6b6040518060400160405280600781526020016629ba30b3b2901960c91b815250611f9e565b6000546001600160a01b03163314610e525760405162461bcd60e51b815260206004820181905260248201527f4f776e61626c653a2063616c6c6572206973206e6f7420746865206f776e6572604482015260640161068b565b60408051600380825260808201909252606091600091906020820184803683370190505090508215611d2a57611c95600a8561221e565b611c9f9085612415565b81600081518110611cb257611cb2612240565b6020908102919091010152611cc860058561221e565b611cd29085612415565b81600181518110611ce557611ce5612240565b6020908102919091010152611cfb60038561221e565b611d059085612415565b81600281518110611d1857611d18612240565b60209081029190910101529050610ba7565b611d35600a8561221e565b611d3f9085612256565b81600081518110611d5257611d52612240565b6020908102919091010152611d6860058561221e565b611d729085612256565b81600181518110611d8557611d85612240565b6020908102919091010152611d9b60038561221e565b611da59085612256565b81600281518110611db857611db8612240565b6020026020010181815250505b9392505050565b805160009081805b82811015611e1557848181518110611dee57611dee612240565b602002602001015182611e019190612256565b915080611e0d816122b2565b915050611dd4565b50611e20828261221e565b90506000805b83811015611ecf57600083878381518110611e4357611e43612240565b60200260200101511115611e7d5783878381518110611e6457611e64612240565b6020026020010151611e769190612415565b9050611ea5565b868281518110611e8f57611e8f612240565b602002602001015184611ea29190612415565b90505b611eaf8180612345565b611eb99084612256565b9250508080611ec7906122b2565b915050611e26565b506000611edc848361221e565b90506000611ee982611fe1565b979650505050505050565b60026001541415611f475760405162461bcd60e51b815260206004820152601f60248201527f5265656e7472616e637947756172643a207265656e7472616e742063616c6c00604482015260640161068b565b6002600155565b600080546001600160a01b038381166001600160a01b0319831681178455604051919092169283917f8be0079c531659141344cd1fd0a4f28419497f9722a3daafe3b4186f6b6457e09190a35050565b610cf981604051602401611fb2919061242c565b60408051601f198184030181529190526020810180516001600160e01b031663104c13eb60e21b179052612031565b6000806002611ff1846001612256565b611ffb919061221e565b9050825b80821015611dc5575080600281612016818761221e565b6120209190612256565b61202a919061221e565b9150611fff565b80516a636f6e736f6c652e6c6f67602083016000808483855afa5050505050565b82805482825590600052602060002090810192821561208d579160200282015b8281111561208d578251825591602001919060010190612072565b5061209992915061209d565b5090565b5b80821115612099576000815560010161209e565b6000602082840312156120c457600080fd5b5035919050565b80356001600160a01b03811681146120e257600080fd5b919050565b600080604083850312156120fa57600080fd5b612103836120cb565b946020939093013593505050565b8015158114610cf957600080fd5b60008060006060848603121561213457600080fd5b83359250602084013561214681612111565b929592945050506040919091013590565b6000806040838503121561216a57600080fd5b82359150602083013561217c81612111565b809150509250929050565b6020808252825182820181905260009190848201906040850190845b818110156121bf578351835292840192918401916001016121a3565b50909695505050505050565b600080604083850312156121de57600080fd5b50508035926020909101359150565b6000602082840312156121ff57600080fd5b611dc5826120cb565b634e487b7160e01b600052601160045260246000fd5b60008261223b57634e487b7160e01b600052601260045260246000fd5b500490565b634e487b7160e01b600052603260045260246000fd5b6000821982111561226957612269612208565b500190565b6001600160a01b03978816815260208101969096526040860194909452919094166060840152608083019390935260a082019290925260c081019190915260e00190565b60006000198214156122c6576122c6612208565b5060010190565b6000602082840312156122df57600080fd5b5051919050565b60208082526022908201527f4c69717569646974792070726f766964696e672074696d652068617320656e64604082015261195960f21b606082015260800190565b60006020828403121561233a57600080fd5b8151611dc581612111565b600081600019048311821515161561235f5761235f612208565b500290565b60208082526027908201527f496e73756666696369656e7420616d6f756e74206f66204554482073656e74206040820152663a37903ab9b2b960c91b606082015260800190565b805169ffffffffffffffffffff811681146120e257600080fd5b600080600080600060a086880312156123dd57600080fd5b6123e6866123ab565b9450602086015193506040860151925060608601519150612409608087016123ab565b90509295509295909350565b60008282101561242757612427612208565b500390565b600060208083528351808285015260005b818110156124595785810183015185820160400152820161243d565b8181111561246b576000604083870101525b50601f01601f191692909201604001939250505056fea2646970667358221220858c64cad6fd16053e39bd8b3fce620f47e7ca052c21742fe1aae518791bfd0b64736f6c634300080b0033a2646970667358221220c0b0290dec3cf2bcb04072e043a050f1013eb24fb9b9211269c07e468c9a96ff64736f6c634300080b0033",
  "devdoc": {
    "kind": "dev",
    "methods": {
      "createOptions(address,address)": {
        "params": {
          "_collectionAddress": "Collection Address"
        }
      },
      "emitBoughtEvent(address,address,uint256,uint256,uint256,uint256,uint256)": {
        "params": {
          "_amount": "Amount",
          "_contractAddress": "Address of options contract",
          "_epoch": "Epoch",
          "_order": "Order ID",
          "_premium": "Premium",
          "_timestamp": "Timestamp",
          "_user": "User Address"
        }
      },
      "emitCallOptionCreatedEvent(address,uint256,uint256,address,uint256,uint256,uint256)": {
        "params": {
          "_contractAddress": "Address of options contract",
          "_epoch": "Epoch",
          "_expiry": "Expiry Time",
          "_nftToken": "NFT Token Address",
          "_optionId": "Option ID",
          "_start": "Start Time",
          "_strikePrice": "Strike Price"
        }
      },
      "emitExerciseEvent(address,address,uint256,uint256,bool)": {
        "params": {
          "_contractAddress": "Address of options contract",
          "_id": "Order ID",
          "_pnl": "PnL",
          "_profit": "Profit",
          "_user": "User Address"
        }
      },
      "emitPutOptionCreatedEvent(address,uint256,uint256,address,uint256,uint256,uint256)": {
        "params": {
          "_contractAddress": "Address of options contract",
          "_epoch": "Epoch",
          "_expiry": "Expiry Time",
          "_nftToken": "NFT Token Address",
          "_optionId": "Option ID",
          "_start": "Start Time",
          "_strikePrice": "Strike Price"
        }
      },
      "owner()": {
        "details": "Returns the address of the current owner."
      },
      "renounceOwnership()": {
        "details": "Leaves the contract without owner. It will not be possible to call `onlyOwner` functions anymore. Can only be called by the current owner. NOTE: Renouncing ownership will leave the contract without an owner, thereby removing any functionality that is only available to the owner."
      },
      "transferOwnership(address)": {
        "details": "Transfers ownership of the contract to a new account (`newOwner`). Can only be called by the current owner."
      }
    },
    "version": 1
  },
  "userdoc": {
    "events": {
      "Bought(address,address,uint256,uint256,uint256,uint256,uint256)": {
        "notice": "Emitted when an option is bought"
      },
      "CallOptionCreated(address,uint256,uint256,address,uint256,uint256,uint256)": {
        "notice": "Emit when Call Option Contract is Created"
      },
      "Exercised(address,address,uint256,uint256,bool)": {
        "notice": "Emitted when a user claims profits"
      },
      "PutOptionCreated(address,uint256,uint256,address,uint256,uint256,uint256)": {
        "notice": "Emit when Put option contract is Created"
      }
    },
    "kind": "user",
    "methods": {
      "createOptions(address,address)": {
        "notice": "Create a Put and Call Options for a specified collection for the current epoch"
      },
      "emitBoughtEvent(address,address,uint256,uint256,uint256,uint256,uint256)": {
        "notice": "Proxy function to emit event from options contract"
      },
      "emitCallOptionCreatedEvent(address,uint256,uint256,address,uint256,uint256,uint256)": {
        "notice": "Proxy function to emit event from options contract"
      },
      "emitExerciseEvent(address,address,uint256,uint256,bool)": {
        "notice": "Proxy function to emit event from options contract"
      },
      "emitPutOptionCreatedEvent(address,uint256,uint256,address,uint256,uint256,uint256)": {
        "notice": "Proxy function to emit event from options contract"
      },
      "getOptArray()": {
        "notice": "Function to retrieve options array"
      }
    },
    "version": 1
  },
  "storageLayout": {
    "storage": [
      {
        "astId": 148,
        "contract": "contracts/BluebirdManager.sol:BluebirdManager",
        "label": "_owner",
        "offset": 0,
        "slot": "0",
        "type": "t_address"
      },
      {
        "astId": 1872,
        "contract": "contracts/BluebirdManager.sol:BluebirdManager",
        "label": "optArray",
        "offset": 0,
        "slot": "1",
        "type": "t_struct(AddressSet)1473_storage"
      },
      {
        "astId": 1875,
        "contract": "contracts/BluebirdManager.sol:BluebirdManager",
        "label": "optionPricing",
        "offset": 0,
        "slot": "3",
        "type": "t_contract(IOptionPricing)3552"
      },
      {
        "astId": 1878,
        "contract": "contracts/BluebirdManager.sol:BluebirdManager",
        "label": "grinder",
        "offset": 0,
        "slot": "4",
        "type": "t_contract(IBluebirdGrinder)3348"
      }
    ],
    "types": {
      "t_address": {
        "encoding": "inplace",
        "label": "address",
        "numberOfBytes": "20"
      },
      "t_array(t_bytes32)dyn_storage": {
        "base": "t_bytes32",
        "encoding": "dynamic_array",
        "label": "bytes32[]",
        "numberOfBytes": "32"
      },
      "t_bytes32": {
        "encoding": "inplace",
        "label": "bytes32",
        "numberOfBytes": "32"
      },
      "t_contract(IBluebirdGrinder)3348": {
        "encoding": "inplace",
        "label": "contract IBluebirdGrinder",
        "numberOfBytes": "20"
      },
      "t_contract(IOptionPricing)3552": {
        "encoding": "inplace",
        "label": "contract IOptionPricing",
        "numberOfBytes": "20"
      },
      "t_mapping(t_bytes32,t_uint256)": {
        "encoding": "mapping",
        "key": "t_bytes32",
        "label": "mapping(bytes32 => uint256)",
        "numberOfBytes": "32",
        "value": "t_uint256"
      },
      "t_struct(AddressSet)1473_storage": {
        "encoding": "inplace",
        "label": "struct EnumerableSet.AddressSet",
        "members": [
          {
            "astId": 1472,
            "contract": "contracts/BluebirdManager.sol:BluebirdManager",
            "label": "_inner",
            "offset": 0,
            "slot": "0",
            "type": "t_struct(Set)1158_storage"
          }
        ],
        "numberOfBytes": "64"
      },
      "t_struct(Set)1158_storage": {
        "encoding": "inplace",
        "label": "struct EnumerableSet.Set",
        "members": [
          {
            "astId": 1153,
            "contract": "contracts/BluebirdManager.sol:BluebirdManager",
            "label": "_values",
            "offset": 0,
            "slot": "0",
            "type": "t_array(t_bytes32)dyn_storage"
          },
          {
            "astId": 1157,
            "contract": "contracts/BluebirdManager.sol:BluebirdManager",
            "label": "_indexes",
            "offset": 0,
            "slot": "1",
            "type": "t_mapping(t_bytes32,t_uint256)"
          }
        ],
        "numberOfBytes": "64"
      },
      "t_uint256": {
        "encoding": "inplace",
        "label": "uint256",
        "numberOfBytes": "32"
      }
    }
  }
}